:020000040000FA
:1000000000180020FD040000A1760000456B0000F0
:1000100000000000000000000000000000000000E0
:1000200000000000000000000000000019050000B2
:1000300000000000000000001B05000029840000F3
:100040009D52000023050000270500002B0500003D
:100050004F0500004F0500004F0500004F05000050
:100060002F05000033050000370500003B050000A8
:10007000B98700004305000041880000491A0000CC
:100080004F050000898500004F0500004F05000066
:10009000A17E00004F0500004F0500004B05000049
:1000A0004F0500004F0500004F0500004F05000000
:1000B000AD7400004F0500004F0500004F05000023
:1000C0000000000000000000000000000000000030
:1000D0000000000000000000000000000000000020
:1000E0000000000000000000000000000000000010
:1000F0000000000000000000000000000000000000
:10040000FFFFFFFFFFFFFFFFFFFFFFFFFEFBFFFF01
:1004100000F002F800F045F80CA030C808382418A5
:100420002D18A246671EAB4654465D46AC4201D12C
:1004300000F037F87E460F3E0FCCB6460126334219
:1004400000D0FB1AA246AB463343184728AA000047
:1004500048AA00000023002400250026103A01D3FA
:1004600078C1FBD8520700D330C100D50B6070476C
:1004700010B5662902D10AF08DFB10BD642902D1A6
:1004800000F0F0F810BD002010BD1FB500F06AFEAE
:100490000400002000210AF0D5F9E0601FBD10B56E
:1004A00010BD04488546FFF7F0FF0AF065F801F03B
:1004B0002BFA00000018002003B4FFF7F0FF03BC84
:1004C00001F09EFA70B505460C46164602E00FCCC8
:1004D0000FC5103E102EFAD2082E02D303CC03C54E
:1004E000083E042E07D301CC01C5361F03E0217856
:1004F0002970641C6D1C761EF9D270BD72B6154849
:10050000154901600A6882F308881448804762B67A
:1005100013480047FEE7FEE7FEE7FEE7FEE7114867
:10052000004711480047114800471148004711484B
:10053000004711480047114800471148004711483B
:10054000004711480047114800471148004711482B
:100550000047000008ED00E0000000003D840000BE
:10056000110400008D5200000154000011540000DD
:10057000215400004F0500004F0500004F0500000A
:100580004F0500009D8700000988000025880000B5
:100590004F0500004F0500000FB41CB5074B06AA1D
:1005A0007B4469460090059800F075FD002069467F
:1005B00000F084FD1CBC08BC04B01847190B0000F7
:1005C0000FB41CB50C0007AA009001D00019401E02
:1005D000084B7B4469460190069800F05CFD002CB6
:1005E00003D06946002000F069FD1CBC08BC04B0C3
:1005F00018470000F10A0000F8B50E460446002036
:1006000020622046E1688847002829D0252802D0AA
:100610006268A16820E0E16820460027884705005D
:100620001ED028464138192802D80127FF0220355C
:100630003246204627602946FFF71AFF002808D0D7
:10064000012804D0F61DF608F6000836D9E7361D55
:10065000D7E762682846A1689047206A401CCFE728
:10066000206AF8BDF7B5002575291068009914A611
:1006700011D0C046C046002802DA404211A608E068
:10068000009909688A0701D50FA602E0490704D539
:100690000EA6012501E0C046C046009F0024243775
:1006A00004E000F018FD30313955641C0028F8D101
:1006B0002B4632462146009800F083FAFEBD00002A
:1006C000000000002D0000002B00000020000000B2
:1006D000034670B502460B439B070FD10E4CE60153
:1006E00000E008C208C91D1B9D433542F9D0D9B2AC
:1006F0001170521C00290DD01B0AF8E70B78491C19
:100700001370521C002B05D00B78491C1370521C1F
:10071000002BF3D170BD00000101010130B5441C74
:1007200003E00178401C00290DD08107F9D10B4B63
:10073000DD0104C8D11A91432940FAD0001B0A06F2
:1007400003D0C01E30BD001B30BD0A0401D0801E86
:1007500030BD0902FCD0401E30BD00000101010186
:10076000F8B5042A2CD3830712D00B78491C0370E8
:10077000401C521E83070BD00B78491C0370401C91
:10078000521E830704D00B78491C0370401C521E74
:100790008B079B0F05D0C91ADF002023DE1B08C979
:1007A0000AE0FFF78FFEF8BD1D4608C9FD401C4654
:1007B000B4402C4310C0121F042AF5D2F308C91A02
:1007C000521EF0D40B78491C0370401C521EEAD410
:1007D0000B78491C0370401C012AE4D4097801708D
:1007E000F8BD01E004C0091F0429FBD28B0701D525
:1007F0000280801CC90700D00270704700290BD00E
:10080000C30702D00270401C491E022904D383078B
:1008100002D50280801C891EE3E70022EEE7002259
:10082000DFE70378C2781946437812061B021943A2
:100830008378C0781B04194311430902090A000692
:1008400008437047020A08704A70020C8A70020E50
:10085000CA707047002203098B422CD3030A8B42D3
:1008600011D300239C464EE003460B433CD40022A8
:1008700043088B4231D303098B421CD3030A8B42BA
:1008800001D394463FE0C3098B4201D3CB01C01A88
:10089000524183098B4201D38B01C01A5241430953
:1008A0008B4201D34B01C01A524103098B4201D341
:1008B0000B01C01A5241C3088B4201D3CB00C01AAE
:1008C000524183088B4201D38B00C01A5241430826
:1008D0008B4201D34B00C01A5241411A00D201464B
:1008E0005241104670475DE0CA0F00D049420310E4
:1008F00000D34042534000229C4603098B422DD333
:10090000030A8B4212D3FC22890112BA030A8B42DA
:100910000CD3890192118B4208D3890192118B4229
:1009200004D389013AD0921100E08909C3098B42AE
:1009300001D3CB01C01A524183098B4201D38B01F1
:10094000C01A524143098B4201D34B01C01A524194
:1009500003098B4201D30B01C01A5241C3088B42D9
:1009600001D3CB00C01A524183088B4201D38B00C4
:10097000C01A5241D9D243088B4201D34B00C01A4E
:100980005241411A00D20146634652415B10104663
:1009900001D34042002B00D54942704763465B10AB
:1009A00000D3404201B50020C046C04602BD000051
:1009B0000121C9050123411842001B06D3185B0E13
:1009C0000AD0C1100722D206891840075242D142EC
:1009D00001D5520089187047090208D50146002A3E
:1009E00003D0C10FC907002070471046704742026C
:1009F00002D0002002497047072109050143F4E7AE
:100A00000000F87FF0B5FF252D04C609C209FF27B5
:100A100004462E400137CB093E4348402A402B4034
:100A20000746002A6BD0002B69D0AA4267D0AB42A0
:100A300065D0002800DA32460125ED0529432C4314
:100A400009022002090AD21A4B0C7F24E31A434CF4
:100A5000000A7C44E35C7D242404121914145B0016
:100A6000A218884201D3521C00E0400049420C46C3
:100A70005C4324115C43DB016415E318040A5C4306
:100A8000C502200D0C4644436419250A5D43230327
:100A9000EC0C0D46654300030019EB184C42A342D1
:100AA00001D35B18401CD4052018002B07D05B0035
:100AB000C91804D3401C002901D1400840003F213F
:100AC00089048A4209D3002A08DC1106090F04D0E0
:100AD000032149074018C00FC007F0BD01224100A3
:100AE000120689187F2252069142F6D20521490743
:100AF000C84201D59010F0BDFF20C005F0BD002F09
:100B000000DA32461648AA4207D2AB4205D2190291
:100B1000090E17D0F80FC007F0BDFF2563002D06A2
:100B2000AB42F9D84900A942F6D8AB4201D1A9425B
:100B3000F2D0A94201D1002101E061004908D005AD
:100B40000843F0BD1102090EFBD0FF200243D0057F
:100B5000F0BD0A460146104654E700004AA30000D3
:100B60000000C07F1F22030C02D10F2200041CD002
:100B7000030E01D10002083A030F01D10001121F38
:100B8000830F01D18000921E002801DB4000521E1D
:100B9000D2055118021251181922904004D3491C51
:100BA000002801D14908490008467047C10FC9070C
:100BB00000D04042012292071143D3E70121890767
:100BC000D0E7FFB504460D4681B02430009021687F
:100BD000880604D51022E0699143216000E00120DD
:100BE000A84201DD471B00E000270498A1697A199B
:100BF0001018081AA0612078C00602D42046C0460A
:100C0000C046002608E003986268A168805D9047AE
:100C1000206A401C761C206204988642F3DB207810
:100C2000C0060AD52046C046C04606E06268A168F4
:100C300030209047206A401C206238467F1E0028E2
:100C4000F4DC07E000986268A168405D9047206A84
:100C5000401C206228466D1E0028F3DC2046C0465A
:100C6000C0462078000602D5022005B0F0BD012064
:100C7000FBE700007047FFB50C461E468FB003CA65
:100C8000089009914F007D0D00D16D1E002108468E
:100C90000020C0460321099A89050840002A03DA8A
:100CA0008200801840080840800D01280A9002DD6B
:100CB0000020C0430A90089807430DD0F048F1493E
:100CC000281848430714189800281DD07542291E7B
:100CD0001DDD0A9842421BE01898012802D000202E
:100CE000302104E00020F24305E02154401CB042D2
:100CF000FBDB30460022189B002121540F998B60AA
:100D00000A60486013B0F0BDBD1B6D1CDFE70A9A96
:100D1000002900DA69420BA800F0AAFA0BAB07CB56
:100D200003AB07C30899099800F00EFB6B4607C395
:100D30000146D5480918002D00910BDDD2490398D2
:100D40000A9A49424018002303A90390684600F01C
:100D50006BFD08E003990A9A0023081803A9039081
:100D6000684600F00BFD6B4607C30004000C03D07F
:100D70000020C043410800E01046189A002A03D022
:100D80000022009215461EE0751E05D400F0EEF913
:100D9000303262556D1EF9D501220843079602D004
:100DA00000227F1C04E02078302801D100227F1E21
:100DB000002A069787D01EE0112D07DA00F0D6F939
:100DC000303262556D1C02460A43F5D1084303D008
:100DD0000098002819D00EE00021681E05E0235C71
:100DE000625C63542254401E491C8142F7DBA81BFD
:100DF000401E07950690079A18990020A0540F9856
:100E0000079B069A81600CC07CE711260020189091
:100E100059E7D21DF0B50D460446D10893B0C9007C
:100E200003C90C900D9108F03BFB02460D98C00FD2
:100E300001D02D2007E02068810701D52B2002E09A
:100E40004007C00F4001032A0F9001D0072A05DB9D
:100E500003462946204600F0C7F90EE120788006B7
:100E600001D5E76900E006272846652D04D06628ED
:100E700014D0672D69D12DE00020112F009001DBE7
:100E8000112300E07B1C0CAA03A910A8FFF7F3FEB6
:100E90001199002610987D1C0E9142E001203B46DE
:100EA0000CAAC0070B900120009003A910A8FFF71F
:100EB000E2FE119D12981099002600280E9501D18E
:100EC000781C0D18781B02D446427D1C761EE81B48
:100ED00000903AE0012F00DA01270020112F009046
:100EE00001DD112300E03B460CAA03A910A8FFF77F
:100EF000C2FE11993D46109800260E9121780907EF
:100F00000BD40E99A94200DA0D4603A9012D04DD88
:100F10004A19203AD27F302A06D0B84201DA011DA0
:100F200004DA012100910FE06D1EEFE7002802DCDA
:100F300086192D1A03E0411CA94200DD0D46801BD5
:100F4000401C00900120C0070B902078000705D4BA
:100F50000098A84202DB0020C043009069460020B0
:100F6000C8720B98012102AF0337C907884225D008
:100F7000022010902B2011900B9800280BDA404291
:100F80000B902D20119006E00B9800F0A4F8303162
:100F90007F1E0B9039701099481E00291090F3DCC9
:100FA0000B980028F0D111987F1E3870208800051A
:100FB00001D5452000E065207F1E387001A8C01BC8
:100FC000C01D0B900F98002800D0012041190098F7
:100FD000C01709180B980818A169081A401EA061CB
:100FE0002078C00602D42046C046C0460F9800288C
:100FF00005D06268A1689047206A401C2062207872
:10100000C00625D52046C046C04621E0002E07DB9D
:101010000E98B04204DD03A86268805DA16802E01A
:101020006268A16830209047206A761C401C2062CC
:101030000098401E002800900AD100F093F8C06884
:1010400062680168405CA1689047206A401C206289
:1010500028466D1E0028D9DC07E062683878A16850
:101060007F1C9047206A401C20620B99481E002973
:101070000B90F2DC2046C046C046032042E600004A
:1010800001FCFFFF104D0000E1DFFFFF01694A1C7A
:1010900002610878704700B58FB002910021059178
:1010A0000549019379440391114604906846FFF77E
:1010B000A3FA0FB000BD0000E5FFFFFF0A68107043
:1010C000521C0A6070470CC908399A4202D2531C5C
:1010D0000B601070704701468008081A020910184A
:1010E000020A1018020C1018C008820012185200D0
:1010F000891A01E0401C0A390A29FBD27047000016
:1011000010B5FF231B0644009C421DD84C009C4296
:101110001AD80346124A0B4307D4401A02D3EFF3FE
:10112000008010BDEFF3008010BD081A06D2EFF367
:10113000008001219043C907084302E0EFF30080DB
:10114000904380F3008810BD0D231B041A4204D085
:101150001146002000F0B8FB10BD00F0CDFB10BD23
:1011600000000090004870470C0800200B4670B546
:10117000024689078008084319469D08141AA941A8
:1011800025090807054308092C194841250A0106C5
:101190000D43010A2C194141200C0D0428430D0C6C
:1011A00000194D41002140194D41C008690708430D
:1011B000E908840F8D002543840024184D4124192B
:1011C0006D41121BAB4107E00925ED432C1152196B
:1011D00063410024401C61411C460A250026551B22
:1011E000B441F1D270BD0000F8B51F46044601239A
:1011F0000068DB02032601461840072A05DB0028A9
:1012000001D017A506E017A504E0002801D016A517
:1012100000E016A5102081432160A069C01E002FA8
:10122000A06101D0401EA0612046C046C046002FEC
:1012300009D038466268A1689047206A401C206245
:10124000C01C206206E0206AFAE762682878A1687C
:101250006D1C9047761EF8D22046C046C046F8BDA9
:101260004E414E006E616E00494E4600696E66004A
:10127000F7B516468AB0334878446C4603467C334B
:10128000C06F5A689B680DC42E487844763003AC12
:101290000DC80DC43720C001081837211B30FFF7D7
:1012A000E3FA05460C46803D1B3C02D56442012012
:1012B00000E000200027099010E0E0070CD00C208F
:1012C00020497843794432464C3941186846012315
:1012D00000F054FA6B4607C364107F1C002CECD15D
:1012E000184F7F442E3F16E0E80712D02001C019A6
:1012F0000EC80691089307920068F04201D1981930
:1013000008903246012306A903A800F037FA03AB80
:1013100007C36D10641C002DE6D10998002806D083
:1013200032466946012303A800F07EFA05E0012356
:101330003246694603A800F021FA0A9B07C30DB0A4
:10134000F0BD0000649B0000034640000A4610B553
:10135000400D0BD00121C9070F24A40200191C0362
:1013600064082143540D2143D20207E000210120EB
:10137000F2E7D40F490021435200401E0029F8DA59
:10138000DB0FDB07184310BDFFB50D46144685B0D3
:101390004868516808F05EF800910190A868A1685B
:1013A00008F058F802910390A868616808F052F8B4
:1013B000029A12188242029201D2012000E000201B
:1013C000019A0B18D2180028019202D08A4202D941
:1013D00003E08A4201D2012000E0002000990818B1
:1013E00000906868A16808F035F8029A12188242E5
:1013F000029201D2012000E00020019A0B18D218BD
:101400000028019202D08A4202D903E08A4201D226
:10141000012000E000200099081800902868216849
:1014200040004900400849084018FA49471814E0AC
:1014300001994000C90F08430090019802994000AB
:10144000C90F08430190029803994000C90F08434F
:101450000290039840007F1E039000980028E7DA6E
:101460000898002801D0EC4E00E00026B74201DACF
:10147000012000E00020002804902AD0F71BF80685
:10148000C00E15D0029B2021091A039A8B401A43E3
:101490000392029A019BC2408B401A430292019A26
:1014A000009BC2408B4000991A430192C1400091B9
:1014B0007B110DD06F460320C11A03D50021820095
:1014C000B95003E08A008100BA587A50401EF3D523
:1014D000374603980299002800D00120014308985C
:1014E0000291002808460CD0002800D00120019964
:1014F000019A490508430121D20AC902D202019288
:1015000000E001210E9B0122D207012B02D0002B0B
:1015100003D013E0002807D120E0904204D8904285
:101520000CD1019B0B4209D0019B5918019105D1A7
:101530000099491C009101D17F1C009200280DD018
:10154000102108460020C0460498002806D00F98B5
:10155000002803D0082108460020C04628682168DA
:10156000019B009A4840C10F0598C90739430EC036
:1015700009B0F0BDFFB587B0099A0898089953687B
:1015800092684068896896460022039317469446FD
:10159000089A12685300099A5B08126852005208B0
:1015A0009A1A9E4BD4180A9A002A01D0352200E0DC
:1015B000402206920022012315460492DB07059380
:1015C00024E0002D05D175460346039E4D1BB34113
:1015D00009D375466646039B491B049D9841059BAC
:1015E0007519AC465F4163463B4308D0059B049E9A
:1015F000DD0776082E435B080496059301E0521E32
:10160000641EC50FED0749184041521C069B9A42C3
:10161000D7DB002D04D17546039A6B1A824101D2A3
:1016200003200CE0039A0B466B404240134303D067
:10163000014303D0012002E0022000E000206146C7
:1016400001910021009702910A99002905D0614675
:1016500040020143704B019102E080070023029099
:101660009C4201DA012000E0002007003AD01A1B5A
:10167000D006C00E15D0029D2021019C091AC5403C
:101680008C402543029C8C4000D001242543019CC2
:101690000295009DC4408D4000992C430194C140A7
:1016A000009154111DD06D460221002202290CD157
:1016B0000320001B07E0002804DB8600AE59002E43
:1016C00000D00122401C0328F5DB081B02D588004E
:1016D0002A5004E08000285810438A00A850491E70
:1016E000E3D51C460A98002802980CD0002800D0A8
:1016F00001200199019A490508430121D20AC90232
:10170000D202019200E00121109B0122D207012B9D
:1017100002D0002B03D013E0002807D11FE0904235
:1017200004D890420CD1019B0B4209D0019B59185F
:10173000019105D10099491C009101D1641C0092CE
:1017400000280CD0102108460020C046002F06D0EB
:101750001198002803D0082108460020C0460898A8
:101760000999019A009B006809684840C10F0798D1
:10177000C907214382600AC00BB0F0BD00B585B037
:10178000019300920A460146002302A8FFF7FCFDE0
:1017900002A807C805B000BDFFB50A461F4685B0C0
:1017A0000799019301230091014602A8FFF7ECFD80
:1017B00002990398049ECA0F4900D20700920F2293
:1017C000490892028C1A0021002800DB0C464500D3
:1017D00013486D08844214D3079A002A04DA441E81
:1017E0000026104DF64302E004460D460E46102139
:1017F00008460020C046002F03D0042108460020E0
:10180000C0462005E90A0843009908436905F20A21
:101810001143ADE602C0FFFF013C0000FF3F0000A6
:10182000FF070000FFFFFF7F00B585B00193009226
:101830000A460146002302A8FFF79CFE02A807C83B
:10184000A8E7FFB50A461F4685B007990193012313
:101850000091014602A8FFF78DFE02990398049EAD
:10186000CA0F4900D20700920F22490892028C1A2F
:101870000021002800DB0C46450011486D08844219
:1018800014D3079A002A04DA441E00260D4DF643AD
:1018900002E004460D460E46102108460020C046D0
:1018A000002F03D0042108460020C0462005E90A85
:1018B0000843009908436905F20A114358E60000FD
:1018C000FF070000FFFFFF7FC80212D54803400F4B
:1018D000002804D0C803C043012188407047EFF3BB
:1018E00000800001000903210907084380F30088F4
:1018F000704700207047000010B5024800F050F813
:1019000010BD00000000C07F10B50446C046C046B0
:101910002046FEF7D1FD10BD024670B50A4392077E
:101920002AD11E4DEE0104C808C9541B944334400B
:1019300017D0D0B2D9B2401A2106014310D190B2CB
:1019400099B2401A210401430AD110021902000A77
:10195000090A401A2102014302D1100E190E401A41
:1019600070BD9A42DFD010BA19BA884201D901205D
:1019700070BD0020C04370BD02780B78401C491C2C
:10198000002A09D09A4207D102780B78401C491CE2
:10199000002A01D09A42EFD0D01A70BD0101010196
:1019A00010B50C461107090F092904D00A290AD0DD
:1019B00008290CD104E011460820FFF785FF06E056
:1019C000510606D501E0510601D50120C007214688
:1019D00010BDD10607D501010909CC084907000E41
:1019E0000006044309E0410F20024907000A0143B1
:1019F000200E00061D22D14101430846E7E7000002
:101A000001491820ABBEFEE726000200704730B542
:101A10008C180278401C13071B0F01D10378401C5F
:101A2000120906D10278401C03E00578401C0D70B5
:101A3000491C5B1EF9D101E00B70491C521EFBD101
:101A4000A142E6D3002030BD10B50021034800F0CC
:101A50007FF884B2204607F0C5FF10BD00B00340F8
:101A600070B50546284600F021F9800005490C585C
:101A7000210C054A881801680122A24091430160A7
:101A800000BF70BDA8AB000000700440F8B504466C
:101A900000260025206A40210840002803D00126A6
:101AA000206A88432062606AC0210843606208E0BF
:101AB000204600F03DF940210840002801D00125D2
:101AC00007E00021204600F079F880210840002836
:101AD000EED000BF20690090002E03D0206A402184
:101AE00008432062204600F023F9402108400028E6
:101AF00000D00125002D01D02846F8BDE06CA16C76
:101B00004018616C4018216C4018E16B4018A16BC3
:101B100040180090009840080121C9030843009034
:101B20000098E062E06EA16E4018616E4018216E70
:101B30004018E16D4018A16D4018009000984008D1
:101B40000121C90308430090009820630020D4E7D6
:101B500070B505460C46022C00D205E0FF22F73294
:101B600004A10FA007F0B2FCA10028461030405895
:101B700070BD00002E2E5C636F6D706F6E656E74AD
:101B8000735C4D4B4C31365A345C647269766572C5
:101B9000735C66736C5F61646331362E68000000AD
:101BA0006368616E6E656C47726F7570203C204192
:101BB00044435F525F434F554E54000070B5064694
:101BC0000C46022C00D205E0FF226A3207A112A0C7
:101BD00007F07CFC0025A000305880210840002838
:101BE00001D080200543284670BD00002E2E5C6386
:101BF0006F6D706F6E656E74735C4D4B4C31365A01
:101C0000345C647269766572735C66736C5F616480
:101C10006331362E630000006368616E6E656C4749
:101C2000726F7570203C204144435F5343315F43E2
:101C30004F554E540000000010B50446002C00D053
:101C400004E08D220AA115A007F040FC00202070BE
:101C5000032060700120A0700320E070012020713B
:101C6000042060710020A071E071207210BD00009E
:101C70002E2E5C636F6D706F6E656E74735C4D4B72
:101C80004C31365A345C647269766572735C667383
:101C90006C5F61646331362E630000004E554C4C1E
:101CA00020213D20636F6E666967000070B50546B0
:101CB000002406E0A00009490858A84200D102E02B
:101CC000641C002CF6D000BF002C00D104E046229A
:101CD00003A10EA007F0FAFB204670BDA4AB0000E4
:101CE0002E2E5C636F6D706F6E656E74735C4D4B02
:101CF0004C31365A345C647269766572735C667313
:101D00006C5F61646331362E63000000696E73742A
:101D1000616E6365203C2041525241595F53495ADC
:101D20004528735F616463313642617365732900CE
:101D3000014600200A6A80231A40002A01D080222E
:101D400010434A6A40231A40002A01D0402210431F
:101D500070470000F8B506460C46002C00D004E0A1
:101D60004D222AA134A007F0B1FB3046FFF79EFFB9
:101D7000800035490F58390C344A8818016801220F
:101D8000BA401143016000BF60788507AD0F21792B
:101D900089000C2211400D436079042801D01020E5
:101DA0000543E0784001602108400543E0790028C0
:101DB00001D080200543B560F06805092D016079E8
:101DC000042803D060798007800F0543A07900289C
:101DD00001D004200543A078002801D00820054345
:101DE000F560306A8508AD0020788007800F0543D4
:101DF0003562207A002804D0706A08210843706296
:101E000003E0706A082188437062F8BD2E2E5C637F
:101E10006F6D706F6E656E74735C4D4B4C31365ADE
:101E2000345C647269766572735C66736C5F61645E
:101E30006331362E630000004E554C4C20213D206E
:101E4000636F6E6669670000A8AB00000070044015
:101E5000F8B507460E461446022E00D205E0FF22D2
:101E600054320EA118A007F031FB002C00D005E081
:101E7000FF22553209A11CA007F028FB2078C506D7
:101E8000ED0E6079002801D020200543207900283C
:101E900001D040200543B0003D50F8BD2E2E5C63BC
:101EA0006F6D706F6E656E74735C4D4B4C31365A4E
:101EB000345C647269766572735C66736C5F6164CE
:101EC0006331362E630000006368616E6E656C4797
:101ED000726F7570203C204144435F5343315F4330
:101EE0004F554E54000000004E554C4C20213D20D3
:101EF000636F6E666967000010B5436ADA08D20046
:101F0000042904D08B079B0F042423431A43426205
:101F100010BD000070B52448FEF783FC441C224924
:101F20002046FEF78FFC2048FEF77BFC04461E4847
:101F30000A38437A22461DA1002006F0EFF81A481D
:101F4000FEF76FFC044618482B30FEF76AFC84420B
:101F500024D215482B30FEF764FC06466421FEF7B8
:101F600079FC04461048FEF75CFC05462146FEF766
:101F700071FC002916D10C480A38407A012811DB7F
:101F800015A1002006F0CAF807480A38407A401E1A
:101F900005490A39487206F0D3FA03E002490020E5
:101FA000FEF750FC70BD0000E30100204150505F7F
:101FB000426174746572795F52656475636520432C
:101FC0006F756E74203A25640D0A20426174746541
:101FD00072793A25640D0A004150505F4261747471
:101FE0006572795F52656475636520536176650D2E
:101FF0000A00000010B5FFF78DFF06F0A1FA10BD32
:1020000010B596230A220321002001F027FE0020AC
:102010000149087010BD00003CF8FF1F014800781E
:10202000704700003CF8FF1FF0B59BB0074600BFAB
:10203000642102A8FEF7F3FB002602AC7E2020708C
:10204000A0206070251D0020019007F007F8019086
:10205000042201A9284604F085FD0546361DA67018
:10206000300AE070B11D204604F0A2FD28706D1CFE
:102070007E2028706D1C281B81B2204600F0F2F9EA
:102080001BB0F0BDF0B59DB000BF642104A8FEF701
:10209000C6FB0020019002900390002604AC7E2035
:1020A000207013206070251D1148FEF7BAFB07460B
:1020B0000422394601A8FEF753FB042201A9284651
:1020C00004F050FD0546361DA670300AE070B11DC3
:1020D000204604F06DFD28706D1C7E2028706D1C5C
:1020E000281B81B2204600F0BDF91DB0F0BD0000F4
:1020F0000E020020F0B59DB000BF642104A8FEF7D9
:102100008EFB0020019002900390002604AC7E20FC
:10211000207011206070251D1148FEF782FB0746D4
:102120000422394601A8FEF71BFB042201A9284618
:1021300004F018FD0546361DA670300AE070B11D8A
:10214000204604F035FD28706D1C7E2028706D1C23
:10215000281B81B2204600F085F91DB0F0BD0000BB
:102160000A02002070B504460D462946204600F0BC
:1021700079F970BDF0B599B0074600BF6421684693
:10218000FEF74DFB00266C467E202070022060701A
:10219000251D08220C49284604F0E4FC05460836B3
:1021A000A670300AE070B11D204604F001FD2870D1
:1021B0006D1C7E2028706D1C281B81B2204600F00B
:1021C00051F919B0F0BD0000D9010020F0B59DB063
:1021D000074600BF642104A8FEF721FB0020019000
:1021E00002900390002604AC7E20207004206070D2
:1021F000251D3548C17D827D0802104301126846C5
:1022000001713148C17D827D08021043C1B2684628
:102210004171022201A9284604F0A4FC0546B61C1F
:10222000C021684601712849487D097D00020843A4
:102230000112684641712449487D097D0002084326
:10224000C1B2684681712048807E1F49497EC9001D
:1022500008431D49097E89010843C1B26846C1711E
:102260001948C17E6846017217481430007B164930
:10227000C97F890008431449897FC900084312496E
:10228000497F890108431049097FC9010843C1B248
:1022900068464172062201A9284604F063FC0546FF
:1022A000B61DA670300AE070B11D204604F080FC17
:1022B00028706D1C7E2028706D1C281B81B2204662
:1022C00000F0D0F81DB0F0BDD9010020F0B59BB0F2
:1022D00000BF642102A8FEF7A2FA002402AD7E200E
:1022E0002870472068702E1D2148FEF79AFA07468D
:1022F000694601F011FF02226946304604F032FCC3
:102300000646A41C0122A91F304604F02BFC0646F9
:10231000641C0122691F304604F024FC0646641C3C
:10232000012201A9304604F01DFC0646641C01226E
:10233000E91E304604F016FC0646641C0122A91E64
:10234000304604F00FFC0646641CAC70200AE870AE
:10235000A11D284604F02CFC3070761C7E203070C5
:10236000761C701B81B2284600F07CF81BB0F0BDD3
:10237000E7010020F0B59DB0074600BF642104A826
:10238000FEF74DFA0020019002900390002604AC65
:102390007E20207006206070251D032201A928469A
:1023A00004F0E0FB0546F61C02221049284604F022
:1023B000D9FB0546B61C042201A9284604F0D2FB2D
:1023C0000546361DA670300AE070B11D204604F0A7
:1023D000EFFB28706D1C7E2028706D1C281B81B2BD
:1023E000204600F03FF81DB0F0BD0000EB010020DA
:1023F000F0B59DB0074600BF642104A8FEF70FFAB0
:102400000020019002900390002604AC7E202070F2
:1024100008206070251D032201A9284604F0A2FBB4
:102420000546F61C012201A9284604F09BFB05463F
:10243000761CA670300AE070B11D204604F0B8FB8F
:1024400028706D1C7E2028706D1C281B81B22046D0
:1024500000F008F81DB0F0BD01B50121684607F095
:10246000E7FA08BD70B504460D462A4621460448E1
:10247000FEF776F92A460249022002F03FF970BDC4
:10248000D4FFFF1FF3B5A1B00646002020901F9097
:102490002298082850D13068209070681F902099A9
:1024A0001F9808F00FFB8321C9050190FEF7AAFAD7
:1024B00022490290FEF7C6F920991F9808F002FB06
:1024C0008121C9050090FEF79DFA0190209908F03E
:1024D000EDFA1A49091D0290FEF7B4F906F030F83A
:1024E00000BF642106A8FEF79AF90020039004902B
:1024F0000590002706AC7E2020706A206070251DA4
:10250000012069460873012203A9284604F02AFB2A
:1025100005467F1CA770380AE070B91D204604F0FC
:1025200047FB28706D1C7E2028706D1C281B81B213
:102530002046FFF797FF00BF23B0F0BD0202002046
:1025400070B504460D46607A8006800E607229469A
:102550002046FFF787FF607921790902401881B290
:1025600021488175090AC175207AE179090240186C
:1025700081B21D480175090A4175607A4107490F0A
:1025800019488176607A8006410F17484176607A53
:10259000801115490876A17A1348C176E07A81073F
:1025A000890F114814300173E07A4007C10F0E48BB
:1025B000C177E07A8006410F0B488177E07A4006C8
:1025C000C10F09484177E07AC0110749087705F043
:1025D000B7FF022000F07AFD022000F00DFD00217F
:1025E000022000F077FE70BDD901002010B57D23D8
:1025F000DB0032220021084601F030FB01F01EFD15
:1026000000F0F2FC0120044908707D21C90004207B
:1026100000F050FD10BD00003CF8FF1FF0B5A1B068
:10262000064600F0DBF92090307801280CD14549AE
:10263000087020990888FEF7C1FA0446424908F05C
:10264000B1F9424908600EE0707801280BD1404989
:10265000087020990888FEF7B1FA04463A4908F054
:10266000A1F93C49086037480078012867D138480B
:102670000078012863D1002032490870344908707D
:10268000344801683148006808F038F957D03148BB
:1026900001682E48006808F015FA014602902E489D
:1026A000FEF7B0F92D490390FEF7CCF829480168F0
:1026B0002648006808F006FA019024480168832043
:1026C000C00508F06FF900900199FEF79BF9812190
:1026D000C905029008F0CCF82049091D0390FEF7C7
:1026E000B1F805F02DFF00BF642107A8FEF797F8A9
:1026F0000020049005900690002707AC7E202070F3
:1027000069206070251D012069460874012204A912
:10271000284604F027FA05467F1CA770380AE070A7
:10272000B91D204604F044FA28706D1C7E202870E4
:102730006D1C281B81B22046FFF794FE00BF21B01C
:10274000F0BD000047F8FF1F82FFEF394CF8FF1F74
:1027500048F8FF1F50F8FF1F000080C1FA01002059
:102760007CB504460E46218868460180A1788170B8
:10277000E178C1702179017161794171A17981712B
:1027800001F074FC05460349FEF75CF805F0D8FE3D
:102790007CBD0000E701002070B504460D462946C7
:1027A0002046FFF75FFEE0790449FEF74BF864200E
:1027B00002490A394872FFF7ADFB70BDE301002002
:1027C0007CB504460D4629462046FFF74BFE002007
:1027D0000090019000BF06E00B21091A615C6A4677
:1027E0001154411CC8B20828F6DB08226946034888
:1027F000FDF7B6FF05F0A4FE7CBD0000D901002066
:1028000070B504460D4629462046FFF72BFEE079B9
:10281000217A0902084303498874000AC87405F044
:102820008FFE70BDD901002070B504460D462946C3
:102830002046FFF717FE70BD70B504460D46042D07
:1028400008D10026266804493046FDF7FBFF05F055
:1028500077FE00BF70BD00000E02002070B5044678
:102860000D46042D08D10026266804493046FDF7A0
:10287000E9FF05F065FE00BF70BD00000A02002000
:1028800070B504460D4629462046FFF7EBFD00F0E3
:10289000A3FB70BD70B504460D4629462046FFF7E0
:1028A000E1FD70BDF0B589B0002000F097FC38491B
:1028B00008800888FEF782F90446364908F072F865
:1028C000334948603448FDF7ACFF06463248001FE4
:1028D000FDF7A7FF07462E490888FEF76FF92F4935
:1028E000009008F05FF80546394608F05BF80446AA
:1028F000314607F0BDFF2649886027480830FDF7BC
:1029000090FF05462448001DFDF78BFF0646204931
:102910008868314608F046F80446294607F0A8FFC3
:102920001B49C86088681E4908F012F803D20320CA
:102930001749887016E0164988681A4908F008F89F
:1029400003D80220124988700CE0114988681649A2
:1029500008F080F803D201200D49887002E00020C1
:102960000B498870202101A8FDF759FF08498868A4
:10297000FEF71EF8044622460B460CA101A8FDF7FF
:102980000BFE01AA0FA1002005F0C8FB09B0F0BDA5
:102990009CFAFF1F9D7F3B3DFE01002082FFEF3927
:1029A000CDCC4C3ECDCC6C400000C0414150505F7E
:1029B000476574446174615F43616C633A256620C6
:1029C0006D41000025730D0A0000000010B50120C4
:1029D00000F060FC00F0D0FB10BD00000048704724
:1029E0009CFAFF1F10B500F0FFFB012000F062FC15
:1029F00010BD10B500F09CFE01F020FBFFF7F2FFC8
:102A000010BD10B5002001F05DF900F0B7FCFFF734
:102A1000DDFF01F0FBFA10BD10B50120044908707C
:102A20000020886004F046FF0149486010BD0000A6
:102A300014FBFF1F10B504F03DFF094988600846EC
:102A400080684968401A022806D3054800780228A1
:102A500002D00320024908700148007810BD000030
:102A600014FBFF1F70B504460D462946204607F0AB
:102A700049F970BD70B505460E4600242C466078B5
:102A8000112871D00CDC030006F0FCFC1150492C1D
:102A9000E237425C676F787DE2E2E2E2E2BEE200AA
:102AA000502816D00CDC462847D004DC12286FD002
:102AB00013286ED1C3E0472879D04928F9D16CE0BA
:102AC000692868D06A2867D0882879D0A028F0D1F2
:102AD00091E0E078A278000210430146201D06F044
:102AE00026FDBBE0FFF782FDE078A27800021043EC
:102AF0000146201DFFF73EFBB0E0FFF777FDE078D1
:102B0000A278000210430146201DFFF75FFBA5E0FD
:102B1000FFF76CFD31462846FFF712FD9EE0FFF7F8
:102B20006FFA31462846FFF7ABFE97E0FFF75EFDF0
:102B300031462846FFF7AEFE90E031462846FFF7C3
:102B400011FB8BE0FFF752FDE078A2780002104302
:102B50000146201DFFF70EFC80E0FFF747FD3146E0
:102B60002846FFF74DFE79E057E0E078A2780002B2
:102B700010430146201DFFF73BFC6FE0314628461D
:102B8000FFF752FE6AE031462846FFF705FE65E092
:102B90004CE05DE00BE018E022E0E078A278000273
:102BA00010430146201DFFF7DBFD57E008E0E07809
:102BB000A278000210430146201DFFF787FB4DE07D
:102BC00031462846FFF7FCFD48E0FFF70FFDE078AF
:102BD000A278000210430146201DFFF71FFD3DE0D3
:102BE000FFF704FDE078A278000210430146201DA3
:102BF000FFF748FC32E0E078A2780002104301467B
:102C0000201DFFF711FA29E0E078A27800021043B6
:102C10000146201DFFF722FE20E0E078A2780002A6
:102C200010430146201DFFF765FA17E0E078A2780F
:102C3000000210430146201DFFF7FEFD0EE0E07884
:102C4000A278000210430146201DFFF71BFA05E0A1
:102C5000627803A1002005F061FA00BF00BF70BDDB
:102C60006C6E50726F746F434D443A25580D0A00D4
:102C70000EB50E4903C9029101900C480830006856
:102C8000009002F0C9FA002002F01EFA00231A4652
:102C90001946032002F054F96946002002F026FA92
:102CA00002F080FA01A802F08FFA0EBD38AD0000E4
:102CB00070B5002506F0EEFC002803DD06F0B2FC3E
:102CC000054600E001252B0006F0DCFB08A50529E0
:102CD000526A828996A551A1002005F01FFAFFF7DC
:102CE0009DF9012805D17D21C900022000F0E2F9FB
:102CF00014E006F05FFC012808D1022006F0B0FCC9
:102D0000FF21F531022000F0D5F907E0062006F09A
:102D1000A7FC7D21C900022000F0CCF97CE0002452
:102D200006F020FC0446012C0BD1032006F098FC91
:102D30004048FDF776FD06463146022000F0BAF91C
:102D400015E0601C002808D1022006F089FC7D21D6
:102D5000C900022000F0AEF909E0A01C002806D14D
:102D6000032006F07DFC0A21022000F0A3F953E0C5
:102D700031A1002005F0D2F9012000F001FE00F0A1
:102D8000EFFC06F0A5FC052006F06AFC7D21C900D9
:102D9000022000F08FF9FFF73FFE01F037F93BE02A
:102DA0002BA1002005F0BAF900F0DAFC012000F0B8
:102DB000E7FD06F079FC052006F052FC7D21C900F4
:102DC000022000F077F9FFF727FEFFF7A3F823E0D2
:102DD00006F05CFD25A1002005F0A0F91CE029A16A
:102DE000002005F09BF906F0BDFD072006F038FC39
:102DF000022000F055F90FE029A1002005F08EF91E
:102E0000FFF788F806F04CFC012006F029FC0220B0
:102E100000F046F900E000BF00BF70BD4170705483
:102E200072616E736665725F436865636B54696D4A
:102E3000650D0A000A0200204170705472616E73C1
:102E40006665725F53656E645265710D0A0000001D
:102E50004170705F5472616E736665725F52655344
:102E6000656E645265710D0A0000000041505054B7
:102E700072616E736665725F53656E6452657370DE
:102E80000D0A00004170705472616E736665725F66
:102E90005365724E65787454696D650D0A000000C3
:102EA0004170705472616E736665725F4C6F7750DB
:102EB0006F7765720D0A000010B5FFF7AFF80128B3
:102EC00005D100F007F80249042000F0F3F810BD26
:102ED00010270000F0B59DB00024642104A8FDF780
:102EE0009EFC00200190029003900025FFF776FDE4
:102EF000074604AC7E20207045206070261D01200E
:102F000069460871012201A9304603F02BFE0646EE
:102F10006D1CB878012808D12C480090042269461D
:102F2000304603F01FFE064622E0B878022808D19A
:102F30002748009004226946304603F013FE0646F7
:102F400016E0B878002807D1042239460C31304603
:102F500003F008FE06460BE0B878032808D10020ED
:102F6000009004226946304603F0FCFD064600BF8F
:102F70002D1D01221749304603F0F4FD06466D1C55
:102F80001448093881796846017112480938C179B5
:102F900068464171022201A9304603F0E3FD06466E
:102FA000A81C85B2A570280AE070A81D81B2204631
:102FB00003F0FEFD3070761C7E203070761C301BD6
:102FC00081B22046FFF74EFA1DB0F0BDF0FF794404
:102FD000F0FF79C4E201002010B5032006F040FBA9
:102FE000022000F05DF810BD002002494871C87051
:102FF0000871704730F8FF1F10B50446214602489B
:10300000007804F0A1FC10BDCBF9FF1F10B50446F9
:103010000A4804707D23DB000A220021084600F0E4
:103020001DFE0749074800F0E7FF7D22D20002217C
:103030000248007804F0ECFC10BD0000CBF9FF1F43
:10304000F3290000032A000070B505460C46E0078E
:10305000C00F002809D0104A01211048007804F060
:10306000D7FC20460121484070BD022020400028A6
:1030700005D0FFF71DFE204602214840F4E704205A
:103080002040002805D0FFF717FF204604214840C4
:10309000EAE70020E8E7000088130000CBF9FF1FF3
:1030A00010B5044621460248007804F067FC10BDC4
:1030B000CBF9FF1F70B504460D462A46214602484B
:1030C000007804F0A5FC70BDCBF9FF1F10B50446D5
:1030D00021460248007804F0ABFC10BDCBF9FF1F7D
:1030E00038B501F0E3FD0446224619A1002005F0A1
:1030F00015F802F091F81A4802F066F820216846A7
:1031000001700021417081706946002001F0EEFFDE
:10311000012001F0D9FF2A21124805F04DF905F0F0
:1031200037F9104805F054F905F022F901F0BEFD19
:103130000446224606A1002004F0F0FF094805F0ED
:103140003DF9FFF795FD08A1002004F0E7FF38BD29
:103150006D63675F6D6F6465203A2025640D0A001A
:1031600028AD000000E00740424F4152445F5761E4
:103170006B6555700D0A00001FB50122022112482F
:1031800004F0A8FC002168464170012101706A46E4
:1031900002210E4803F04EFC00216846817101A90E
:1031A0000B48FEF7D7FD0A48FEF75AFC0948020C07
:1031B000094BD1180A68012383409A430A6000BF73
:1031C0000F2003F099FA1FBD00B0044080F00F40BB
:1031D00000B003401B003C10007004400146014851
:1031E000408A7047C800002000B585B0244801F02F
:1031F0007BFB00220221234804F06CFC224801F0F2
:1032000073FB02A8FEF718FD0021684641730321F5
:10321000017302A91D48FEF79DFD1C48FEF736FC10
:103220000020009001900B20009000216846417121
:10323000012101716A4600211448FEF709FE0F20A2
:1032400003F08AFA0120002806D01049096A4022BA
:1032500011430E4A116205E00C49096A402291436C
:103260000A4A116200BF8820094988610020074985
:10327000886200BF00210548FEF73EFE05B000BD94
:103280000B00381000B004401B003C1000B003409D
:103290000080044010B50446002C02D0012C06D159
:1032A00002E006F033FE03E006F09EFE00E000BF01
:1032B00000BF10BD10B50446002C02D0012C06D171
:1032C00002E006F025FE03E006F0B6FE00E000BFD7
:1032D00000BF10BD70B504460D4610480178001DB2
:1032E0004454001F0078401C0C4908700846807840
:1032F000401C88700A46D1781078FDF7B5FAC8B23C
:1033000006490870002D04D00A21042004F0BCFAFC
:1033100002E0042004F0AEFA70BD00009AF9FF1F2D
:1033200070B505460C461449097865225143124A86
:10333000121D881822462946FDF712FA0E48007819
:10334000652148430C49091D401860300471081F6D
:103350000078401C091F087008468078401C88705F
:103360000A46D1781078FDF77FFAC8B20249087092
:10337000102004F07FFA70BD5CF8FF1F10B5042028
:1033800000F0FEFA00F0E2F901F0DEF906F032FC9E
:1033900000200749087088704870022004F0DEF9A8
:1033A000042004F0DBF9082004F0D8F910BD000077
:1033B0009AF9FF1F70B50024002504213F4803F04F
:1033C0007BFB012803D100203D4908701AE03C48EE
:1033D0000078FA2810DD00203949087039A104F07E
:1033E0009DFE042004F0BAF9042004F059FA06F016
:1033F000E7FB022004F03EFA31480078401C3049D7
:10340000087070BD00F0C6F80446230006F03AF8D4
:103410000705060B1933523E52004CE02DA1002047
:1034200004F07CFE47E02FA1002004F077FE06F0B8
:10343000CFFB14210320FFF74DFF04F045FA0546AA
:1034400039E02E48007800280ED104F03DFA401BE8
:10345000642804D900210220FFF73CFF0AE0142170
:103460000320FFF737FF05E000202449087024A15E
:1034700004F054FE1FE028A1002004F04FFE06F0E7
:1034800005FD14210320FFF725FF14E028A10020EB
:1034900004F044FEE1214902002001F003F902207A
:1034A000FFF7FEFD7D23DB0032220321002000F028
:1034B000D5FB00E000BF00BF00BFA2E700F00F4057
:1034C000A9F9FF1F4155585F74696D656F75740DDB
:1034D0000A0000004533325F434D445F5245535468
:1034E0000D0A00004533325F434D445F4745544366
:1034F0004F4E465F5265710D0A000000A8F9FF1F8C
:103500004533325F434D445F474554434F4E465F1A
:10351000526573700D0A00004533325F434D445FBE
:10352000534554434F4E465F5265710D0A000000EB
:103530004533325F434D445F434F4E465F4F4B0D23
:103540000A000000014800787047000099F9FF1F49
:1035500010B506F079FB002001F08FF800F0F6F8C6
:10356000052001F07DF800F0FBF8012001F078F86B
:1035700004A1002004F0D2FD00210220FFF7AAFEE2
:1035800010BD00004253505F4533325F496E69748D
:103590000D0A000010B500240D488078002814DDC5
:1035A0000B484178001D445C001F4078401C0849CE
:1035B000487008468078401E88700A46D178507856
:1035C000FDF752F9C8B202494870204610BD00000C
:1035D0009AF9FF1FF0B587B0044600BF00BF00BFD7
:1035E00000BF00BF00BF00BF00BF00BF00BF6078CA
:1035F0000002A178401885B2E078C0210840861109
:10360000E07838210840C710E0784007400F069066
:1036100020790590607980210840C011029060797E
:103620004021084080110190607938210840C01085
:103630000090607904210840801004906079800730
:10364000800F03902849487D097D00020843A84265
:103650002BD12548007EB04227D12348407EB84276
:1036600023D12148817E069881421ED11E48C17E09
:103670000598814219D11C48017F0298814214D1DA
:103680001948417F019881420FD11748817F0098E6
:1036900081420AD11448C17F0498814205D1124861
:1036A0001430017B0398814208D010A1002004F05F
:1036B00035FD00210420FFF70DFE03E00021062068
:1036C000FFF708FE2A4610A1002004F027FD064956
:1036D000487D097D00020843024610A1002004F045
:1036E0001DFD07B0F0BD0000D90100204533322098
:1036F00068617320536F6D652064696666657265E5
:103700006E740D0A000000004C6F63616C416464CC
:10371000723A253034580D0A00000000675F4C6F84
:1037200063616C416464723A253034580D0A0000BC
:1037300010B506F089FA012000F022F900F010F827
:1037400001F02EF8042004F095F810BD10B5012208
:103750001321024803F0C0F910BD000000F10F4032
:1037600010B500221321024803F0B6F910BD000085
:1037700000F10F4030B599B000202349087023486C
:10378000027923A1002004F0C9FC27A1002004F045
:10379000C5FC002408E01D486038025D25A100201A
:1037A00004F0BCFC601CC4B218480079A042F2DCF2
:1037B00022A1002004F0B2FC00251448057902790A
:1037C000014660396846FCF7CBFF00210F480171C4
:1037D000FFF7B8FE042807D10120194908702946CF
:1037E0006846FFF7F7FE0DE0FFF7ACFE012809D1B0
:1037F00029466846FFF736F950230A2202210020A5
:1038000000F02CFA19B030BD98F9FF1FD401002048
:103810004253505F4533325F526576206C656E3A95
:1038200025640D0A0000000056616C75653A0D0AAA
:103830000000000020255820000000000D0A0000B4
:10384000A8F9FF1F10B504460C4801790079401C07
:10385000C2B20A48027160384454084908796421A8
:10386000FCF7F8FF0548017105480078002803D1EE
:103870000A21082004F008F810BD0000D40100203F
:1038800098F9FF1FFFB581B00E4617461D460B4C39
:10389000694608790002497908432070000A60707F
:1038A000A6702A463946E01CFCF75AFFE81C81B294
:1038B0002046FFF735FD05B0F0BD000010010020E7
:1038C00010B50421264803F0F7F8012804D00A2196
:1038D000102003F0D9FF10BD2248807800283CDD7D
:1038E00020484078652148431E49091D4018603032
:1038F00002791DA1002004F011FC50230A220221AC
:10390000002000F0ABF9174A527865235A43154B53
:103910001B1DD218603211791A1F527865235A4341
:10392000104B1B1DD01800F0B7F80E488078401ED1
:103930000C49887008464078401C48700A46D17887
:103940005078FCF791FFC8B2064948700846807865
:10395000002802DD102003F08DFF00BFBBE7000050
:1039600000F00F405CF8FF1F4253505F4533325F59
:1039700053656E644C656E203A2025640D0A000084
:1039800010B50446012C06D0022C16D0032C26D0EC
:10399000042C48D135E025A1002004F0BFFB002213
:1039A0000721284803F098F800220621254803F053
:1039B00093F801202449087036E024A1002004F087
:1039C000ADFB012207211F4803F086F800220621E3
:1039D0001C4803F081F802201B49087024E021A153
:1039E000002004F09BFB00220721164803F074F826
:1039F00001220621134803F06FF8032012490870D2
:103A000012E01FA1002004F089FB012207210D48CC
:103A100003F062F8012206210A4803F05DF8042051
:103A20000949087000E000BF00BF10BD45333220D7
:103A3000456E746572204E6F726D616C204D6F64BF
:103A4000650D0A00C0F00F4099F9FF1F4533322081
:103A5000456E7465722057616B657570204D6F649B
:103A6000650D0A0045333220456E746572204C6F37
:103A700077706F776572204D6F64650D0A000000E6
:103A800045333220456E74657220536C6565702035
:103A90004D6F64650D0A000070B504460D462A4658
:103AA0002146002000F02AFE70BD00000EB5002067
:103AB000029001900090144802F0ECFE02AA04214A
:103AC000114802F0B3FE01AA01210F4802F0AEFE38
:103AD0006A4600210C4802F0A9FE0CA1002004F067
:103AE0001DFB11A1002004F019FB0198820A034676
:103AF00013A1002004F012FB0098820A03461DA1C6
:103B0000002004F00BFB0EBDDC0000200D0A20504D
:103B1000466C617368204578616D706C65205374E4
:103B2000617274200D0A00000D0A2050466C61730A
:103B30006820496E666F726D6174696F6E3A20001D
:103B40000D0A20546F74616C2050726F6772616D42
:103B500020466C6173682053697A653A09256420B0
:103B60004B422C204865783A202830782578290D5A
:103B70000A0000000D0A2050726F6772616D2046C6
:103B80006C61736820536563746F722053697A6542
:103B90003A092564204B422C204865783A20283089
:103BA00078257829200D0A0010B50346002000BFB3
:103BB00003E01C5C0C54441CA0B29042F9DB10BD25
:103BC00070B5FFB0FFB082B004460D461646012125
:103BD00089026846FCF723FE0122920269462046CC
:103BE000FFF7E2FF324629466846FCF7B9FD72B698
:103BF000094B012292022146084802F0BFFD012331
:103C00009B026A462146054802F0BCFE62B60020CF
:103C10007FB07FB002B070BD6B66656BDC000020CA
:103C200001460020002902D001290FD108E000BF81
:103C30000022084BDA601A46D26892B2104606E0BB
:103C400000BF054A526892B2104600E000BF00BFB4
:103C5000704700000000044000800340FFB581B0C1
:103C60000D4616461F46002E25D0002F23D0019862
:103C70000001124944182078022801DA20782073C4
:103C800000202070A780A6706570002D03D12078D9
:103C900004210843207003F017FEA0602078022161
:103CA000084320700648007803F0C2FE0221044851
:103CB000007803F063FE05B0F0BD0000380000207E
:103CC000C8F9FF1F70B5044618236343084D5B19FC
:103CD0005A7D182363435B19D968182363435B1922
:103CE000986802F0EFFE00202101024A505470BD96
:103CF000D8AC00003800002070B5002400BF46E0BA
:103D000018216143234A5058020C234BD1180A68EA
:103D1000012383401A430A6000BF182363431D4DEB
:103D20005B195868182363435B19D96818236343E8
:103D30005B191A7C8B00C35807252D02AB43150273
:103D40000726360235402B438D00435100BF182310
:103D50006343104D5B191A461132182363435B19F4
:103D6000D968182363435B19986802F063FE18232F
:103D700063435B195A7D182363435B19D968182381
:103D800063435B19986802F09DFE601CC4B2012C6D
:103D9000B6DB70BDD8AC00000070044070B50446BE
:103DA00018236343084D5B191A7D182363435B197D
:103DB000D968182363435B19986802F083FE0120D9
:103DC0002101024A505470BDD8AC000038000020D8
:103DD00010B5044620010749085CC007C00F002841
:103DE00003D02046FFF76EFF02E02046FFF7D6FF24
:103DF00010BD000038000020FEB50025A4E0280119
:103E000057494418207802210840002878D003F050
:103E10005BFD0646A168B14273D82078C007C00F89
:103E2000002821D0A0786421081AC0B2019020781F
:103E3000400840002070182068434A4BC018427D5B
:103E400018206843C018C16818206843C0188068EB
:103E5000009002F037FE207804210840002826D187
:103E60006078401E607022E06078002809D12078D8
:103E700004210840002804D1207802214840207005
:103E800015E0A078019020780121084320701820C7
:103E90006843344BC018027D18206843C018C168BD
:103EA00018206843C0188068009002F00BFE20784C
:103EB0000221084000280CD0A188019A51430846ED
:103EC0006421FCF7C7FC80B2029002983018A06011
:103ED0002FE000200290207B002813D01821694396
:103EE000204BC9180A7D18216943C918C968009177
:103EF00018216943C9188868009902F0E3FD11E0B0
:103F000020E012E018206843164BC018427D1820AC
:103F10006843C018C16818206843C01880680090C2
:103F200002F0D0FD0020207303E02089801B80B2C6
:103F30000290002F05D00298002803D00298B842C2
:103F400000DA029F681CC5B2012D00DA57E7002F86
:103F500005D03A4602210448007803F059FDFEBD21
:103F600038000020D8AC0000C8F9FF1F10B5064883
:103F70000068804700F018FBFFF7B2F800F020FB64
:103F800002480068804710BDACF9FF1FB0F9FF1F61
:103F900038B51548020C154BD1180A680123834027
:103FA0001A430A6000BF1248052101228B00C35842
:103FB00007242402A343140207252D022C40234387
:103FC0008C00035100BF002168464170012101703F
:103FD0006A460521074802F02DFD0022052105480B
:103FE00002F084FD38BD00000C0038100070044061
:103FF00000C00440C0F00F40024A1060024A116045
:1040000070470000ACF9FF1FB0F9FF1F10B505A104
:10401000002004F083F800220521074802F066FD25
:1040200010BD00004253505F506F7765725F56338A
:10403000305F4F46460D0A00C0F00F4010B505A195
:10404000002004F06BF801220521074802F04EFD24
:1040500010BD00004253505F506F7765725F56335A
:10406000305F4F4E0D0A0000C0F00F4030B587B0F2
:104070000446002C00D004E0E6221CA120A005F09C
:1040800025FA1C2221496846FCF71CFA20882049A1
:10409000401AFF216E31484305462088C117890F19
:1040A00009188910FF39ED394D19A078400069468B
:1040B000085A4519E078401E451920788007800F7E
:1040C000002803D1A078022800D86D1E114868434B
:1040D0002179E12212015143411860793C22504379
:1040E0000818A1794518284607B030BD2E2E5C620D
:1040F00073705C6273705F7274632E630000000003
:104100006461746574696D6500000000F0AC0000C6
:10411000B207000080510100F3B585B00C46002CB9
:1041200000D004E09F222EA132A005F0CFF934A0E8
:1041300001460EC9C0686D460EC5039005980490EF
:1041400033490498FCF786FB461C31490498FCF778
:1041500081FB0491E12109010498FCF77BFB2071AC
:10416000E12109010498FCF775FB04913C210498B6
:10417000FCF770FB60713C210498FCF76BFBA171AC
:10418000FF276E37234820800DE0F61B2088401C57
:10419000208020788007800F002802D0FF276E370C
:1041A00001E0FF276F37BE42EFD820788007800FED
:1041B000002802D11D2069468870012509E0684663
:1041C000405DB04201D3A57005E06846405D361AF7
:1041D0006D1C0C2DF3D900BFE67007B0F0BD0000D8
:1041E0002E2E5C6273705C6273705F7274632E63F8
:1041F000000000006461746574696D650000000072
:10420000001F1C1F1E1F1E1F1F1E1F1E1F00000041
:1042100080510100B20700000148006870470000AB
:1042200000D0034010B504462146024803F0E0FDEB
:1042300010BD000000D0034030B587B000200490CE
:1042400005900690029003902F4800F041FB2F4804
:1042500001210A468B00C35807242402A3431402F9
:1042600007252D022C4023438C00035100BF002161
:104270006846017101AA0121254802F0DBFB2548AF
:1042800000F026FB0220244909680322920491438E
:10429000820403239B041A4011431F4A116000BF8C
:1042A00004A803F0D3FD04A91C4803F027FE012154
:1042B00089021A4A10690F239B0202469A4310464C
:1042C00002460A431046154A106100BF1449684669
:1042D0000181012181720221C17203210173042134
:1042E00041730521817302A9104603F073FE042176
:1042F0000A4803F079FD142002F01CFA074803F085
:104300009DFE07B030BD00000B00381000B0044027
:1043100080F00F401D003C100070044000D00340AE
:10432000E40700000021044A1168884200D2704767
:10433000014A906000BFFAE700D0034010B5044680
:10434000054803F080FE2146034803F043FE02487F
:1043500003F074FE10BD000000D003400148006867
:104360007047000058F8FF1F02480068401C0149D0
:104370000860704758F8FF1F10B5002000F0ECFBF4
:10438000044622462FA1002003F0C8FE012000F0C1
:10439000E3FB0446224631A1002003F0BFFE0220C9
:1043A00000F0DAFB0446224631A1002003F0B6FEFD
:1043B000042000F0D1FB0446224632A1002003F085
:1043C000ADFE052000F0C8FB0446224633A10020C4
:1043D00003F0A4FE082000F0BFFB0446224636A1ED
:1043E000002003F09BFE092000F0B6FB04462246A5
:1043F00038A1002003F092FE0A2000F0ADFB044635
:1044000022463CA1002003F089FE0B2000F0A4FB13
:10441000044622463DA1002003F080FE0D2000F05E
:104420009BFB044622463FA1002003F077FE0720B5
:1044300000F092FB044622463FA1002003F06EFEEE
:1044400010BD00006B434C4F434B5F436F7265538D
:104450007973436C6B3A25640D0A00006B434C4F33
:10446000434B5F506C6174436C6B3A25640D0A00DA
:104470006B434C4F434B5F427573436C6B3A2564FF
:104480000D0A00006B434C4F434B5F466C617368F1
:10449000436C6B3A25640D0A000000006B434C4FDF
:1044A000434B5F506C6C466C6C53656C436C6B3A61
:1044B00025640D0A000000006B434C4F434B5F4DD9
:1044C0006367466978656446726571436C6B3A252B
:1044D000640D0A006B434C4F434B5F4D6367496E5D
:1044E0007465726E616C526566436C6B3A25640D3F
:1044F0000A0000006B434C4F434B5F4D6367466CB3
:104500006C436C6B3A25640D0A0000006B434C4F02
:10451000434B5F4D6367506C6C30436C6B3A256462
:104520000D0A00006B434C4F434B5F4C706F436C64
:104530006B3A25640D0A00006B434C4F434B5F4FB1
:104540007363304572436C6B3A25640D0A000000BA
:1045500000B587B000200590069005A90A4803F031
:1045600047FC6846817E427E037EC07D01930292B5
:10457000039100906846837D828A04A1002003F0A5
:10458000CDFD07B000BD000000D003402564202E03
:10459000202564202E202564202025643A25643AB5
:1045A00025640D0A0000000010B5034803490861A6
:1045B000481703F083F810BD0600010000E000E09A
:1045C00070B5002000F0C8FA05467D21C900FCF74F
:1045D00041F90446601E0949884200D90CE0601E7A
:1045E000074948610321081F03F07CF800200449B3
:1045F00088610720086100BF70BD0000FFFFFF0059
:1046000000E000E010B500F007FE0F4800F058FC95
:104610000D4908680D49086000BF0D49087900F090
:1046200031F90B4AD21D0021084600F0E9F8084B89
:10463000DA789978587800F0F1FC064800F0C4FD6B
:1046400005480649086010BD20AD00000CF8FF1FAA
:104650000CAD000018AD0000006CDC0200F8FF1F7C
:1046600000B501460022FFF779FE024600BFFFF7C2
:1046700075FE801A8842FAD300BD10B50446002C9E
:1046800004D0012C05D0022C09D105E005F066FD0F
:1046900006E005F0CDFD03E005F02CFE00E000BFD4
:1046A00000BF10BD70B504460D46002C04D0012C8F
:1046B00018D0022C1CD118E0002000F04DFA06465C
:1046C000324629460C4802F083FC01210A4802F0D8
:1046D000F1FA01214903084802F0DCFA0C2002F04B
:1046E0001DF806E005F0A4FD03E005F003FE00E080
:1046F00000BF00BF70BD000000A006407CB50446AE
:104700000E46154600960195002C04D0012C08D0C9
:10471000022C0DD106E06A460749084802F0E8FD80
:1047200007E006E06A460649064804F043FB00E05D
:1047300000BF00BF7CBD00006800002000A0064054
:10474000A800002000C0064008B5114802F086FA13
:10475000012202210F4803F0AFF9002168464170A1
:1047600001706A4602210C4802F064F901221146E8
:10477000084803F0A1F900216846417001706A46BB
:104780000121054802F056F9044800F089F808BDF7
:1047900000A006400090044000F00F4009003810CF
:1047A00010B50020FFF769FFE12149020020FFF763
:1047B00079FF10BD10B504F057FC0446224609A14C
:1047C000002003F0ABFCFFF737FDFFF76FF9FFF7B1
:1047D000DFFB0220FFF751FF03F044FEFDF70AFC68
:1047E00010BD000056657273696F6E3A25730D0A2D
:1047F0000000000010B5FFF705FFFFF7BDFD10BD7D
:1048000070B506460D461446002C00D004E00E4A52
:104810000EA119A004F05AFE304600F08DFB21468F
:10482000284600F063FC16480078C02188431449EC
:10483000087000BF124880790C21084080080328C6
:10484000F8D1002070BD0000F40500002E2E5C633E
:104850006F6D706F6E656E74735C4D4B4C31365A74
:10486000345C647269766572735C66736C5F636CEA
:104870006F636B2E63000000636F6E6669670000F4
:10488000004006400549097838229143C200382388
:104890001A401143014A1170704700000040064061
:1048A000020C044BD1180A68012383401A430A60A2
:1048B0007047000000700440020C044BD1180A68D5
:1048C000012383401A430A607047000000700440CF
:1048D000020C044BD1180A68012383401A430A6072
:1048E0007047000000700440020C044BD1180A68A5
:1048F000012383401A430A6070470000007004409F
:10490000020C044BD1180A68012383401A430A6041
:10491000704700000070044070B50446002C00D0C1
:1049200004E0124A12A11DA004F0D0FD0025607819
:10493000C006C00E05431B4805714079400940017F
:10494000A178C906C90E084316494871084600797E
:1049500021784022114308431249087100BF1148D1
:104960008079402108400028F9D070BDDF020000A6
:104970002E2E5C636F6D706F6E656E74735C4D4B45
:104980004C31365A345C647269766572735C667356
:104990006C5F636C6F636B2E63000000636F6E6609
:1049A000696700000040064010B516480068032102
:1049B00089040840800C002804D002280CD0032869
:1049C0001BD117E000F0AEF90121C903884200D1E4
:1049D00000E00020044612E00B480068002800D0E8
:1049E00005E0FF22693209A113A004F06FFD06481B
:1049F000046804E07D24E40001E0002400BF00BF5F
:104A0000204610BD0070044010F8FF1F2E2E5C637E
:104A10006F6D706F6E656E74735C4D4B4C31365AB2
:104A2000345C647269766572735C66736C5F636C28
:104A30006F636B2E63000000675F7874616C3332C4
:104A4000467265710000000010B500F073F804466E
:104A5000002C06D000F0B0F9C008A04201D32046D7
:104A600010BD0020FCE7000070B500F0F3F805462B
:104A7000002D01D1284670BD174800783821084024
:104A8000C4082846E04005461348407830210840D5
:104A90000609002E1DD0230004F0F4FC08050607CB
:104AA00008090A0C121800BF00BF00BF00BF00BFFA
:104AB0006D090DE014212846FBF7CCFE054607E002
:104AC0000C212846FBF7C6FE054601E0002500BF85
:104AD00000BF2846CFE700000040064070B51348ED
:104AE000407802210840002805D110488079202113
:104AF0000840002801D0002070BD00F01BF80446DB
:104B0000002C01D12046F7E70848C0786021084012
:104B100045090648C07880210840C609A800044914
:104B200040187100405A6043E6E70000004006402C
:104B3000ECAB000010B50648807910210840000950
:104B4000002802D1FFF790FF10BD02480068FBE784
:104B50000040064004F8FF1F70B505462B0004F026
:104B600091FC0E0809154C162D314835393D414C44
:104B7000454C00BF00F020F9064622484068000F6F
:104B8000411C3046FBF766FE044638E000BF00F0EB
:104B900013F906461B484068000F411C3046FBF7DE
:104BA00059FE044617484068072212041040000CC2
:104BB000411C2046FBF74EFE044620E000F064F95D
:104BC00004461CE0FFF7F0FE044618E0FFF73CFF48
:104BD000044614E000F018F8044610E0FFF77EFFEA
:104BE00004460CE000F008F9044608E07D24E400E7
:104BF00005E000F097F8044601E0002400BF00BF84
:104C0000204670BD4080044010B505480078022160
:104C10000840002800D110BD00F004F8FBE70000B8
:104C20000040064008488079C007C00F002802D124
:104C30000648006870470448007A0E210840410881
:104C400003480068C840F5E70040064004F8FF1F2D
:104C500008F8FF1F10B506480068002800D004E0DF
:104C6000E12204A10EA004F031FC0148006810BD4F
:104C70000CF8FF1F2E2E5C636F6D706F6E656E7487
:104C8000735C4D4B4C31365A345C64726976657294
:104C9000735C66736C5F636C6F636B2E6300000004
:104CA000675F7874616C30467265710070B508207A
:104CB0001B4DAD790C263540AA08194DAD7910264B
:104CC00035402B09164D6D78022635406908144D84
:104CD000AD79202635406C09002A06D0012A0AD079
:104CE000022A0ED0032A18D115E0002B01D103208F
:104CF00000E0002012E0002901D0022000E00120A5
:104D00000CE0002901D0052004E0012C01D106208F
:104D100000E0042002E0072000E000BF00BF70BDFB
:104D20000040064010B50B4800788021084000285C
:104D30000DD009480068002800D005E0FF22553258
:104D400006A111A004F0C2FB0348006810BD0020BA
:104D5000FCE70000005006400CF8FF1F2E2E5C639D
:104D60006F6D706F6E656E74735C4D4B4C31365A5F
:104D7000345C647269766572735C66736C5F636CD5
:104D80006F636B2E63000000675F7874616C304660
:104D9000726571000146064A914201D8002005E083
:104DA000044A914201D8012000E00220704700002F
:104DB0009798000000127A0010B50E4989790C22EC
:104DC00011408C08002C08D0012C09D0022C0AD0EC
:104DD000032C0BD100F010F80AE0FFF77FFE07E08C
:104DE000FFF720FF04E0FFF735FF01E0002000BFE0
:104DF00000BF10BD0040064010B512488079402128
:104E00000840002800D110BD00F03AF80446002CFC
:104E100000D005E08F2292000BA116A004F056FBF3
:104E200008480079C006C00E411C2046FBF712FD61
:104E3000044604484079C006C00E1830444320465A
:104E4000E1E70000004006402E2E5C636F6D706F3E
:104E50006E656E74735C4D4B4C31365A345C6472C3
:104E600069766572735C66736C5F636C6F636B2EDF
:104E7000630000006D6367706C6C30636C6B0000E6
:104E800010B5FFF7E7FE10BD10B50C4840680121D2
:104E900009040840000C002802D0012809D103E0D1
:104EA000FFF71CFE044606E0FFF7A6FF0446640871
:104EB00001E0002400BF00BF204610BD0080044078
:104EC00070B504462068FFF765FF0546184822794B
:104ED0000178090909010B4613431946017000BF07
:104EE00000BF0178A0230A469A431146A2791143D4
:104EF000017000BF0F4840783C21884329013022CF
:104F000011400843617908430A49487060790028D4
:104F10000CD00748007880210840002806D000BF48
:104F200004488079022108400028F9D070BD0000B3
:104F30000050064000400640014600207047000037
:104F4000FFB581B006460F461C460020009032484F
:104F50004079402188433049487100BF2E4880790C
:104F6000202108400028F9D12B48407802218843AD
:104F7000294948700846C578807910210840000901
:104F8000002807D0012000902348C0782021484005
:104F90002149C87020480078FC218843F10038225C
:104FA00011408022114308431B490870084640788D
:104FB00004210840002806D000BF1748807902214C
:104FC00008400028F9D000BF13488079102108401C
:104FD00000090028F8D10098002801D00E48C570BB
:104FE000F8018021084003994901602211400843DB
:104FF000E022294691430843054600BF06488079D0
:105000000C21084080080228F8D1002C00D0A047CD
:10501000002005B0F0BD000000400640F8B5034692
:10502000284880790C263040840826488079C507B6
:10503000ED0F2448007A0E2630404008009000987A
:10504000824220D0012D14D1012C05D01D480078BA
:105050000226304000280CD01A4840784008400012
:10506000184E707000BF17488079C007C00F002825
:10507000F9D11448007A2F26B04356000E273E403F
:105080003043104E30720F48407840084000CE0741
:10509000F60F30430B4E7070304600788008800069
:1050A00018433070012C03D002201840002806D08D
:1050B00000BF04488079C007C00F8842F9D10020A2
:1050C000F8BD000000400640002806D00649497897
:1050D00002221143044A517005E003494978022233
:1050E0009143014A517070470040064070B5054633
:1050F0000C46002C00D004E01B4A1CA126A004F0A2
:10510000E5F9274840780221884325494870084638
:105110000078C421884380302149087000BF2048AE
:1051200080791C2108400828F9D11D484079402188
:1051300088431B49487100BF1948807920210840E5
:105140000028F9D12046FFF7E7FB154840794021B8
:1051500008431349487100BF114880792021084055
:105160000028F9D0002070BD4B0500002E2E5C6396
:105170006F6D706F6E656E74735C4D4B4C31365A4B
:10518000345C647269766572735C66736C5F636CC1
:105190006F636B2E63000000636F6E6669670000CB
:1051A0000040064007480078C02188430549087040
:1051B00000BF044880790C21084080080328F8D1FA
:1051C000002070470040064010B5114A4168516008
:1051D00001780F4A403A526801231B049A430B049A
:1051E0000124240423401A43094B403B5A6000BF6A
:1051F0004178084A126803239B049A438B040324D2
:10520000A40423401A43034B1A6000BF10BD0000E2
:1052100040800440007004400148024948607047E3
:10522000000003104080044006494968032212062A
:105230009143020603231B061A401143014A5160A1
:10524000704700000080044070B502460B460D48D0
:10525000002113E0555C684000240BE0C507ED0F0A
:10526000002D04D04510084E7540284600E040103F
:10527000651CACB2082CF1DB4D1CA9B29942E9DBEC
:1052800070BD0000FFFF000001A0000010B5024942
:10529000086800F011FD10BDDCF9FF1F10B54DA12D
:1052A000002002F03BFF00214F4800F089FC000283
:1052B000000A4E49884204D1024600214A4800F0C3
:1052C00067FA0021484800F07BFC012109060840EC
:1052D000884209D14649474803F074FC012212066E
:1052E0000021414800F054FA00213F4800F068FCDA
:1052F000012149060840884204D1024600213A486B
:1053000000F046FA0021384800F05AFC01218906D5
:105310000840884204D102460021334800F038FAA0
:105320000021314800F04CFC012109070840884267
:1053300004D1024600212C4800F02AFA01212A4813
:1053400000F03EFC0002000A2849884204D10246CF
:105350000121254800F01CFA0121234800F030FC0F
:10536000012109060840884209D12349234801F058
:10537000C7FE0122120601211B4800F009FA012193
:10538000194800F01DFC012149060840884204D15B
:1053900002460121144800F0FBF90121124800F0F7
:1053A0000FFC012189060840884204D102460121F0
:1053B0000D4800F0EDF901210B4800F001FC01213E
:1053C00009070840884204D102460121064800F03E
:1053D000DFF910BD444D41305F49525148616E6460
:1053E0006C65720D0A00000000800040FFFFFF00A6
:1053F000A800002000C006406800002000A0064071
:1054000010B50249486800F057FC10BDDCF9FF1FD9
:1054100010B50249886800F04FFC10BDDCF9FF1F91
:1054200010B50249C86800F047FC10BDDCF9FF1F49
:1054300070B505460C46042C00D204E0642204A199
:105440000EA004F043F8285D80210843285570BD64
:105450002E2E5C636F6D706F6E656E74735C4D4B5A
:105460004C31365A345C647269766572735C66736B
:105470006C5F646D616D75782E6800006368616EA5
:105480006E656C203C2046534C5F46454154555256
:10549000455F444D414D55585F4D4F44554C455F18
:1054A0004348414E4E454C0070B50546002406E089
:1054B000A00009490858A84200D102E0641C002C51
:1054C000F6D000BF002C00D104E04C2203A10EA0B6
:1054D00003F0FCFF204670BD18AC00002E2E5C636C
:1054E0006F6D706F6E656E74735C4D4B4C31365AD8
:1054F000345C647269766572735C66736C5F646D4C
:10550000616D75782E630000696E7374616E6365FA
:10551000203C2041525241595F53495A4528735FFC
:10552000646D616D757842617365732900000000D8
:1055300070B505462846FFF7B7FF800005490C58AF
:10554000210C054A881801680122A240114301601C
:1055500000BF70BD1CAC00000070044070B5054673
:105560000C461646042C00D204E0822205A110A0AD
:1055700003F0ACFF285D80098001B106890E084365
:10558000285570BD2E2E5C636F6D706F6E656E74E6
:10559000735C4D4B4C31365A345C6472697665727B
:1055A000735C66736C5F646D616D75782E68000066
:1055B0006368616E6E656C203C2046534C5F4645C7
:1055C00041545552455F444D414D55585F4D4F44F0
:1055D000554C455F4348414E4E454C0010B504467E
:1055E000002C00D005E0FF22153213A11CA003F00F
:1055F0006DFF2068FF300130217909014018C06833
:105600000121890788432168FF3101312279120184
:105610008918C8602068FF300130217909014018DD
:1056200081680120000601432068FF3001302279A3
:1056300012018018816010BD2E2E5C636F6D706F3B
:105640006E656E74735C4D4B4C31365A345C6472CB
:1056500069766572735C66736C5F646D612E63005E
:1056600068616E646C6520213D204E554C4C0000F5
:1056700070B505460C461646042C00D205E0FF2204
:10568000DA320AA113A003F021FF002E0CD0210171
:10569000E81DF93008188068012109060843220135
:1056A000E91DF9315118886070BD00002E2E5C6331
:1056B0006F6D706F6E656E74735C4D4B4C31365A06
:1056C000345C647269766572735C66736C5F646D7A
:1056D000612E68006368616E6E656C203C204653E5
:1056E0004C5F464541545552455F444D414D5558D8
:1056F0005F4D4F44554C455F4348414E4E454C002D
:1057000070B505460C461646042C00D205E0FF2273
:10571000DA320AA113A003F0D9FE002E0CD0210129
:10572000E81DF930081880680121090608432201A4
:10573000E91DF9315118886070BD00002E2E5C63A0
:105740006F6D706F6E656E74735C4D4B4C31365A75
:10575000345C647269766572735C66736C5F646DE9
:10576000612E68006368616E6E656C203C20465354
:105770004C5F464541545552455F444D414D555847
:105780005F4D4F44554C455F4348414E4E454C009C
:1057900070B505460C461646042C00D205E0FF22E3
:1057A000DA320AA113A003F091FE002E0CD02101E1
:1057B000E81DF93008188068012109060843220114
:1057C000E91DF9315118886070BD00002E2E5C6310
:1057D0006F6D706F6E656E74735C4D4B4C31365AE5
:1057E000345C647269766572735C66736C5F646D59
:1057F000612E68006368616E6E656C203C204653C4
:105800004C5F464541545552455F444D414D5558B6
:105810005F4D4F44554C455F4348414E4E454C000B
:10582000F7B504461546002C00D004E0A32218A1C9
:1058300021A003F04BFE042D00D204E0A42214A109
:1058400021A003F043FE002020606060A060E060C3
:10585000019820602571019800F0EEF90646B0002D
:105860004719B80023490C50B100234A8918C8577A
:105870007F21C943884200D108E000BFC206D20E92
:10588000012191401D4A116000BF00BFFEBD000014
:105890002E2E5C636F6D706F6E656E74735C4D4B16
:1058A0004C31365A345C647269766572735C667327
:1058B0006C5F646D612E630068616E646C652021AD
:1058C0003D204E554C4C00006368616E6E656C2047
:1058D0003C2046534C5F464541545552455F444D2C
:1058E000415F4D4F44554C455F4348414E4E454CFA
:1058F00000000000DCF9FF1F14AC000000E100E034
:1059000070B505460C46042C00D205E0FF22793222
:1059100008A112A003F0DAFD2101E81DF9300818F2
:10592000C068410049082201E81DF9301018C16023
:1059300070BD00002E2E5C636F6D706F6E656E74AF
:10594000735C4D4B4C31365A345C647269766572C7
:10595000735C66736C5F646D612E68006368616E72
:105960006E656C203C2046534C5F46454154555271
:10597000455F444D414D55585F4D4F44554C455F33
:105980004348414E4E454C0070B505460C46042C2C
:1059900000D205E0FF22793208A112A003F096FDA3
:1059A0002101E81DF9300818C068410049082201AA
:1059B000E81DF9301018C16070BD00002E2E5C6328
:1059C0006F6D706F6E656E74735C4D4B4C31365AF3
:1059D000345C647269766572735C66736C5F646D67
:1059E000612E68006368616E6E656C203C204653D2
:1059F0004C5F464541545552455F444D414D5558C5
:105A00005F4D4F44554C455F4348414E4E454C0019
:105A100070B505460C461646042C00D205E0FF2260
:105A20005F320BA114A003F051FD2101E81DF930F4
:105A30000818C0680121C9058843F1050122D20573
:105A4000114008432201E91DF9315118C86070BDA9
:105A50002E2E5C636F6D706F6E656E74735C4D4B54
:105A60004C31365A345C647269766572735C667365
:105A70006C5F646D612E68006368616E6E656C209A
:105A80003C2046534C5F464541545552455F444D7A
:105A9000414D55585F4D4F44554C455F4348414E2D
:105AA0004E454C0070B505460C461646042C00D2F7
:105AB00005E0FF223D320BA114A003F007FD2101F8
:105AC000E81DF9300818C0680121490788437107AB
:105AD00001225207114008432201E91DF9315118F2
:105AE000C86070BD2E2E5C636F6D706F6E656E74D6
:105AF000735C4D4B4C31365A345C64726976657216
:105B0000735C66736C5F646D612E68006368616EC0
:105B10006E656C203C2046534C5F464541545552BF
:105B2000455F444D414D55585F4D4F44554C455F81
:105B30004348414E4E454C0070B505460C46042C7A
:105B400000D205E0FF226C3208A112A003F0BEFCD7
:105B50002101E81DF9300818C0680121C907084370
:105B60002201E91DF9315118C86070BD2E2E5C6309
:105B70006F6D706F6E656E74735C4D4B4C31365A41
:105B8000345C647269766572735C66736C5F646DB5
:105B9000612E68006368616E6E656C203C20465320
:105BA0004C5F464541545552455F444D414D555813
:105BB0005F4D4F44554C455F4348414E4E454C0068
:105BC00070B505460C46042C00D205E0FF22CB320E
:105BD00004A10EA003F07AFC2101E81DF930081899
:105BE000806870BD2E2E5C636F6D706F6E656E7415
:105BF000735C4D4B4C31365A345C64726976657215
:105C0000735C66736C5F646D612E68006368616EBF
:105C10006E656C203C2046534C5F464541545552BE
:105C2000455F444D414D55585F4D4F44554C455F80
:105C30004348414E4E454C0070B50546002406E0F1
:105C4000A00009490858A84200D102E0641C002CB9
:105C5000F6D000BF002C00D104E0522203A10DA019
:105C600003F034FC204670BD0CAC00002E2E5C63AB
:105C70006F6D706F6E656E74735C4D4B4C31365A40
:105C8000345C647269766572735C66736C5F646DB4
:105C9000612E6300696E7374616E6365203C204100
:105CA000525241595F53495A4528735F646D6142AE
:105CB0006173657329000000F8B50446002C00D01C
:105CC00005E0FF221E3215A11EA003F0FFFB25797F
:105CD00001273F062668042D00D206E0FF22DA32B3
:105CE0001C490846283003F0F1FB002F0CD0290195
:105CF000F01DF930081880680121090608432A01BF
:105D0000F11DF9315118886000BFA068002803D048
:105D10002046A268E1689047F8BD00002E2E5C6323
:105D20006F6D706F6E656E74735C4D4B4C31365A8F
:105D3000345C647269766572735C66736C5F646D03
:105D4000612E630068616E646C6520213D204E55B4
:105D50004C4C00002463000070B505462846FFF750
:105D60006BFF800005490C58210C054A8818016812
:105D70000122A2401143016000BF70BD10AC0000C1
:105D800000700440FFB581B004460F4615460A9ED8
:105D9000002C00D004E0BF2237A141A003F096FB05
:105DA000002F00D004E0C02233A141A003F08EFBFD
:105DB0000498002800D004E0C1222FA140A003F0E5
:105DC00085FB012D03D0022D01D0042D00D104E06C
:105DD000C22229A13FA003F079FB012E03D0022E9D
