:020000040000FA
:1000000000180020E104000035650000D959000007
:1000100000000000000000000000000000000000E0
:10002000000000000000000000000000FD040000CF
:100030000000000000000000FF04000089720000C2
:1000400031410000070500000B0500000F0500000E
:1000500033050000330500003305000033050000C0
:1000600013050000170500001B0500001F05000018
:1000700005760000270500008D760000AD0D00001C
:1000800033050000D5730000330500003305000080
:10009000016D000033050000330500002F0500004E
:1000A0003305000033050000330500003305000070
:1000B00041630000330500003305000033050000F4
:1000C0000000000000000000000000000000000030
:1000D0000000000000000000000000000000000020
:1000E0000000000000000000000000000000000010
:1000F0000000000000000000000000000000000000
:10040000FFFFFFFFFFFFFFFFFFFFFFFFFEFBFFFF01
:1004100000F002F800F038F80CA030C808382418B2
:100420002D18A246671EAB4654465D46AC4201D12C
:1004300000F02AF87E460F3E0FCCB6460126334226
:1004400000D0FB1AA246AB4633431847789700000A
:10045000989700000023002400250026103A01D3BD
:1004600078C1FBD8520700D330C100D50B6070476C
:1004700010B5642902D100F0D3F810BD002010BDE2
:100480001FB51FBD10B510BD03488546FFF7F8FF27
:1004900008F084FF00F02EFC0018002003B4FFF7E2
:1004A000F1FF03BC00F05EFC70B505460C46164635
:1004B00002E00FCC0FC5103E102EFAD2082E02D348
:1004C00003CC03C5083E042E07D301CC01C5361F5B
:1004D00003E021782970641C6D1C761EF9D270BD72
:1004E00072B61548154901600A6882F308881448F5
:1004F000804762B613480047FEE7FEE7FEE7FEE7E7
:10050000FEE71148004711480047114800471148CD
:10051000004711480047114800471148004711485B
:10052000004711480047114800471148004711484B
:10053000004711480047000008ED00E000000000FF
:100540009D7200001104000021410000954200004E
:10055000A5420000B542000033050000330500004D
:100560003305000033050000E975000055760000F2
:100570007176000033050000330500000FB41CB590
:100580000C0007AA009001D00019401E084B7B44C4
:1005900069460190069800F026FB002C03D06946BE
:1005A000002000F033FB1CBC08BC04B0184700005E
:1005B00085060000F8B50E4604460020206220465D
:1005C000E1688847002829D0252802D06268A16800
:1005D00020E0E16820460027884705001ED0284615
:1005E0004138192802D80127FF022035324620461B
:1005F00027602946FFF73CFF002808D0012804D0D7
:10060000F61DF608F6000836D9E7361DD7E762680A
:100610002846A1689047206A401CCFE7206AF8BDB1
:10062000F7B5002575291068009914A611D0C046A9
:10063000C046002802DA404211A608E00099096885
:100640008A0701D50FA602E0490704D50EA60125A9
:1006500001E0C046C046009F0024243704E000F0BB
:10066000E2FA30313955641C0028F8D12B46324665
:100670002146009800F059FAFEBD0000000000007D
:100680002D0000002B00000020000000034670B584
:1006900002460B439B070FD10E4CE60100E008C257
:1006A00008C91D1B9D433542F9D0D9B21170521CA7
:1006B00000290DD01B0AF8E70B78491C1370521C57
:1006C000002B05D00B78491C1370521C002BF3D162
:1006D00070BD00000101010130B5441C03E0017848
:1006E000401C00290DD08107F9D10B4BDD0104C856
:1006F000D11A91432940FAD0001B0A0603D0C01E2C
:1007000030BD001B30BD0A0401D0801E30BD09027F
:10071000FCD0401E30BD000001010101F8B5042AE3
:100720002CD3830712D00B78491C0370401C521E37
:1007300083070BD00B78491C0370401C521E8307A3
:1007400004D00B78491C0370401C521E8B079B0F72
:1007500005D0C91ADF002023DE1B08C90AE0FFF715
:10076000A3FEF8BD1D4608C9FD401C46B4402C43FD
:1007700010C0121F042AF5D2F308C91A521EF0D471
:100780000B78491C0370401C521EEAD40B78491C9C
:100790000370401C012AE4D409780170F8BD01E01F
:1007A00004C0091F0429FBD28B0701D50280801CDD
:1007B000C90700D00270704700290BD0C30702D0D0
:1007C0000270401C491E022904D3830702D502800F
:1007D000801C891EE3E70022EEE70022DFE70378B2
:1007E000C2781946437812061B0219438378C078F1
:1007F0001B04194311430902090A00060843704704
:10080000020A08704A70020C8A70020ECA707047A1
:10081000002203098B422CD3030A8B4211D30023FD
:100820009C464EE003460B433CD4002243088B42D7
:1008300031D303098B421CD3030A8B4201D3944664
:100840003FE0C3098B4201D3CB01C01A5241830957
:100850008B4201D38B01C01A524143098B4201D311
:100860004B01C01A524103098B4201D30B01C01A3C
:100870005241C3088B4201D3CB00C01A52418308B6
:100880008B4201D38B00C01A524143088B4201D3E3
:100890004B00C01A5241411A00D201465241104643
:1008A00070475DE0CA0F00D04942031000D34042B8
:1008B000534000229C4603098B422DD3030A8B42EE
:1008C00012D3FC22890112BA030A8B420CD389018C
:1008D00092118B4208D3890192118B4204D3890172
:1008E0003AD0921100E08909C3098B4201D3CB01B0
:1008F000C01A524183098B4201D38B01C01A524165
:1009000043098B4201D34B01C01A524103098B4268
:1009100001D30B01C01A5241C3088B4201D3CB0053
:10092000C01A524183088B4201D38B00C01A524136
:10093000D9D243088B4201D34B00C01A5241411A0D
:1009400000D20146634652415B10104601D340423B
:10095000002B00D54942704763465B1000D34042EC
:1009600001B50020C046C04602BD0000F0B5FF251D
:100970002D04C609C209FF2704462E400137CB09C2
:100980003E4348402A402B400746002A6BD0002BAC
:1009900069D0AA4267D0AB4265D0002800DA32465F
:1009A0000125ED0529432C4309022002090AD21A28
:1009B0004B0C7F24E31A434C000A7C44E35C7D2407
:1009C0002404121914145B00A218884201D3521C8B
:1009D00000E0400049420C465C4324115C43DB01CB
:1009E0006415E318040A5C43C502200D0C46444319
:1009F0006419250A5D432303EC0C0D46654300038F
:100A00000019EB184C42A34201D35B18401CD405DB
:100A10002018002B07D05B00C91804D3401C002904
:100A200001D1400840003F2189048A4209D3002AAD
:100A300008DC1106090F04D0032149074018C00F34
:100A4000C007F0BD01224100120689187F2252061C
:100A50009142F6D205214907C84201D59010F0BD58
:100A6000FF20C005F0BD002F00DA32461648AA422A
:100A700007D2AB4205D21902090E17D0F80FC007F2
:100A8000F0BDFF2563002D06AB42F9D84900A9420D
:100A9000F6D8AB4201D1A942F2D0A94201D100213E
:100AA00001E061004908D0050843F0BD1102090EBC
:100AB000FBD0FF200243D005F0BD0A460146104698
:100AC00054E70000C69100000000C07F1F22030C05
:100AD00002D10F2200041CD0030E01D10002083AFB
:100AE000030F01D10001121F830F01D18000921E5C
:100AF000002801DB4000521ED20551180212511885
:100B00001922904004D3491C002801D1490849000A
:100B100008467047C10FC90700D040420122920722
:100B20001143D3E701218907D0E7FFB504460D46FD
:100B300081B0243000902168880604D51022E06935
:100B40009143216000E00120A84201DD471B00E045
:100B500000270498A1697A191018081AA061207852
:100B6000C00602D42046C046C046002608E00398CE
:100B70006268A168805D9047206A401C761C2062F4
:100B800004988642F3DB2078C0060AD52046C0468A
:100B9000C04606E06268A16830209047206A401C89
:100BA000206238467F1E0028F4DC07E00098626867
:100BB000A168405D9047206A401C206228466D1E57
:100BC0000028F3DC2046C046C0462078000602D547
:100BD000022005B0F0BD0120FBE7000001694A1CBE
:100BE00002610878704700B58FB00291002105912D
:100BF0000549019379440391114604906846FFF733
:100C0000D9FC0FB000BD0000E5FFFFFF0A681070BF
:100C1000521C0A6070470CC908399A4202D2531C10
:100C20000B601070704701468008081A02091018FE
:100C3000020A1018020C1018C00882001218520084
:100C4000891A01E0401C0A390A29FBD270470000CA
:100C500010B5FF231B0644009C421DD84C009C424B
:100C60001AD80346124A0B4307D4401A02D3EFF3B3
:100C7000008010BDEFF3008010BD081A06D2EFF31C
:100C8000008001219043C907084302E0EFF3008090
:100C9000904380F3008810BD0D231B041A4204D03A
:100CA0001146002000F006F810BD00F01BF810BD42
:100CB00000000090C80212D54803400F002804D05D
:100CC000C803C043012188407047EFF30080000152
:100CD000000903210907084380F3008870470020BA
:100CE0007047000010B5024800F00CF810BD00007D
:100CF0000000C07F10B50446C046C0462046FFF73E
:100D0000CDFB10BD10B50C461107090F092904D001
:100D10000A290AD008290CD104E011460820FFF75F
:100D2000C9FF06E0510606D501E0510601D50120B4
:100D3000C007214610BDD10607D501010909CC081D
:100D40004907000E0006044309E0410F200249074D
:100D5000000A0143200E00061D22D141014308462E
:100D6000E7E7000001491820ABBEFEE726000200BD
:100D7000704730B58C180278401C13071B0F01D147
:100D80000378401C120906D10278401C03E0057864
:100D9000401C0D70491C5B1EF9D101E00B70491C11
:100DA000521EFBD1A142E6D3002030BD10B5002178
:100DB000034800F07FF884B2204607F0CBFC10BD5A
:100DC00000B0034070B50546284600F021F98000C8
:100DD00005490C58210C054A881801680122A240D7
:100DE0009143016000BF70BD949900000070044001
:100DF000F8B5044600260025206A40210840002856
:100E000003D00126206A88432062606AC02108431B
:100E1000606208E0204600F03DF9402108400028CB
:100E200001D0012507E00021204600F079F880215B
:100E300008400028EED000BF20690090002E03D0AB
:100E4000206A402108432062204600F023F9402117
:100E50000840002800D00125002D01D02846F8BD0B
:100E6000E06CA16C4018616C4018216C4018E16B7B
:100E70004018A16B40180090009840080121C90358
:100E8000084300900098E062E06EA16E4018616E29
:100E90004018216E4018E16D4018A16D4018009077
:100EA000009840080121C90308430090009820637E
:100EB0000020D4E770B505460C46022C00D205E0B0
:100EC000FF22F73204A10FA007F0F6F9A10028468F
:100ED0001030405870BD00002E2E5C636F6D706F37
:100EE0006E656E74735C4D4B4C31365A345C647273
:100EF00069766572735C66736C5F61646331362E0C
:100F0000680000006368616E6E656C47726F757093
:100F1000203C204144435F525F434F554E540000F4
:100F200070B506460C46022C00D205E0FF226A325C
:100F300007A112A007F0C0F90025A00030588021B9
:100F40000840002801D080200543284670BD0000DD
:100F50002E2E5C636F6D706F6E656E74735C4D4B9F
:100F60004C31365A345C647269766572735C6673B0
:100F70006C5F61646331362E630000006368616EEC
:100F80006E656C47726F7570203C204144435F531F
:100F900043315F434F554E540000000010B50446E6
:100FA000002C00D004E08D220AA115A007F084F9DE
:100FB00000202070032060700120A0700320E070EA
:100FC00001202071042060710020A071E071207266
:100FD00010BD00002E2E5C636F6D706F6E656E74B9
:100FE000735C4D4B4C31365A345C64726976657271
:100FF000735C66736C5F61646331362E630000005E
:101000004E554C4C20213D20636F6E666967000091
:1010100070B50546002406E0A00009490858A8421A
:1010200000D102E0641C002CF6D000BF002C00D1DF
:1010300004E0462203A10EA007F03EF9204670BD51
:10104000909900002E2E5C636F6D706F6E656E74EC
:10105000735C4D4B4C31365A345C64726976657200
:10106000735C66736C5F61646331362E63000000ED
:10107000696E7374616E6365203C20415252415920
:101080005F53495A4528735F616463313642617327
:1010900065732900014600200A6A80231A40002A4D
:1010A00001D0802210434A6A40231A40002A01D00E
:1010B0004022104370470000F8B506460C46002C4D
:1010C00000D004E04D222AA134A007F0F5F8304604
:1010D000FFF79EFF800035490F58390C344A8818B5
:1010E00001680122BA401143016000BF60788507A2
:1010F000AD0F217989000C2211400D43607904283D
:1011000001D010200543E0784001602108400543EC
:10111000E079002801D080200543B560F06805091A
:101120002D016079042803D060798007800F054382
:10113000A079002801D004200543A078002801D020
:1011400008200543F560306A8508AD0020788007E7
:10115000800F05433562207A002804D0706A082188
:101160000843706203E0706A082188437062F8BD2A
:101170002E2E5C636F6D706F6E656E74735C4D4B7D
:101180004C31365A345C647269766572735C66738E
:101190006C5F61646331362E630000004E554C4C29
:1011A00020213D20636F6E666967000094990000FE
:1011B00000700440F8B507460E461446022E00D2D1
:1011C00005E0FF2254320EA118A007F075F8002C9C
:1011D00000D005E0FF22553209A11CA007F06CF8F1
:1011E0002078C506ED0E6079002801D02020054347
:1011F0002079002801D040200543B0003D50F8BDC3
:101200002E2E5C636F6D706F6E656E74735C4D4BEC
:101210004C31365A345C647269766572735C6673FD
:101220006C5F61646331362E630000006368616E39
:101230006E656C47726F7570203C204144435F536C
:1012400043315F434F554E54000000004E554C4C07
:1012500020213D20636F6E666967000010B5436A08
:10126000DA08D200042904D08B079B0F04242343FF
:101270001A43426210BD000010B51E48FFF7AFFAD6
:10128000441C1C492046FFF7BBFA1A48FFF7A7FA8F
:10129000044618480A38437A224617A1002005F070
:1012A0006DFE1448FFF79BFA1E4988421CD2114874
:1012B000FFF795FA044619214901FFF7A9FA002919
:1012C00016D10C480A38407A012811DB16A10020FB
:1012D00005F054FE07480A38407A401E05490A398D
:1012E000487206F053F803E002490020FFF788FA3D
:1012F00010BD0000D70100204150505F426174745E
:101300006572795F52656475636520436F756E74AD
:10131000203A25640D0A20426174746572793A2579
:10132000640D0A00803801004150505F42617474BE
:101330006572795F52656475636520536176650DEA
:101340000A00000010B596230A220321002001F0B4
:10135000E7FB00200149087010BD000038F8FF1FAE
:10136000014800787047000038F8FF1FF0B59BB0C7
:10137000074600BF642102A8FFF72FFA002602AC3F
:101380007E202070A0206070251D0020019006F0B6
:101390008BFD0190042201A9284604F02DFB05468F
:1013A000361DA670300AE070B11D204604F04AFBDD
:1013B00028706D1C7E2028706D1C281B81B2204671
:1013C00000F082F91BB0F0BD70B504460D46294609
:1013D000204600F079F970BDF0B599B0074600BF1E
:1013E00064216846FFF7F9F900266C467E202070DC
:1013F00002206070251D08220C49284604F0FCFAE2
:1014000005460836A670300AE070B11D204604F08B
:1014100019FB28706D1C7E2028706D1C281B81B262
:10142000204600F051F919B0F0BD0000CD010020B8
:10143000F0B59DB0074600BF642104A8FFF7CDF9C1
:101440000020019002900390002604AC7E202070C2
:1014500004206070251D3548C17D827D080210433F
:101460000112684601713148C17D827D0802104336
:10147000C1B268464171022201A9284604F0BCFAB3
:101480000546B61CC021684601712849487D097D82
:10149000000208430112684641712449487D097DD4
:1014A00000020843C1B2684681712048807E1F490E
:1014B000497EC90008431D49097E89010843C1B21C
:1014C0006846C1711948C17E6846017217481430D8
:1014D000007B1649C97F890008431449897FC900E8
:1014E00008431249497F890108431049097FC9010E
:1014F0000843C1B268464172062201A9284604F099
:101500007BFA0546B61DA670300AE070B11D204674
:1015100004F098FA28706D1C7E2028706D1C281B22
:1015200081B2204600F0D0F81DB0F0BDCD01002002
:10153000F0B59BB000BF642102A8FFF74EF900246C
:1015400002AD7E202870472068702E1D2148FFF7CD
:1015500046F90746694601F02DFD022269463046EC
:1015600004F04AFA0646A41C0122A91F304604F0E2
:1015700043FA0646641C0122691F304604F03CFA17
:101580000646641C012201A9304604F035FA0646DD
:10159000641C0122E91E304604F02EFA0646641C43
:1015A0000122A91E304604F027FA0646641CAC70DE
:1015B000200AE870A11D284604F044FA3070761C19
:1015C0007E203070761C701B81B2284600F07CF8BB
:1015D0001BB0F0BDDB010020F0B59DB0074600BF99
:1015E000642104A8FFF7F9F800200190029003900D
:1015F000002604AC7E20207006206070251D03228A
:1016000001A9284604F0F8F90546F61C0222104903
:10161000284604F0F1F90546B61C042201A9284623
:1016200004F0EAF90546361DA670300AE070B11DD7
:10163000204604F007FA28706D1C7E2028706D1C6F
:10164000281B81B2204600F03FF81DB0F0BD00001D
:10165000DF010020F0B59DB0074600BF642104A85B
:10166000FFF7BBF80020019002900390002604AC25
:101670007E20207008206070251D032201A92846C5
:1016800004F0BAF90546F61C012201A9284604F027
:10169000B3F90546761CA670300AE070B11D2046ED
:1016A00004F0D0F928706D1C7E2028706D1C281B5A
:1016B00081B2204600F008F81DB0F0BD01B501214F
:1016C000684607F06DF808BD70B504460D462A4619
:1016D00021460448FFF722F82A460249022001F079
:1016E0005BFF70BDC8FFFF1FF3B5A1B00646002029
:1016F00020901F902298082850D130682090706860
:101700001F9020991F9808F0DBF88321C9050190EC
:10171000FFF72CF922490290FFF772F820991F98E1
:1017200008F0CEF88121C9050090FFF71FF901905C
:10173000209908F0B9F81A49091D0290FFF760F8DE
:1017400005F024FE00BF642106A8FFF746F800203C
:10175000039004900590002706AC7E2020706A203C
:101760006070251D012069460873012203A92846DF
:1017700004F042F905467F1CA770380AE070B91DD5
:10178000204604F05FF928706D1C7E2028706D1CC7
:10179000281B81B22046FFF797FF00BF23B0F0BDA2
:1017A000F601002070B504460D46607A8006800E72
:1017B000607229462046FFF787FF60792179090288
:1017C000401881B221488175090AC175207AE179F2
:1017D0000902401881B21D480175090A4175607AF5
:1017E0004107490F19488176607A8006410F1748F2
:1017F0004176607A801115490876A17A1348C1763E
:10180000E07A8107890F114814300173E07A4007AC
:10181000C10F0E48C177E07A8006410F0B488177EF
:10182000E07A4006C10F09484177E07AC0110749C4
:10183000087705F0ABFD022000F0E8FB022000F085
:101840008DFB0021022000F0E5FC70BDCD010020E1
:1018500010B57D23DB0032220021084601F060F93B
:1018600001200149087010BD38F8FF1FF0B5A1B084
:10187000064600F075F92090307801280CD14549D2
:10188000087020990888FFF74DF90446424907F08F
:1018900087FF424908600EE0707801280BD140496B
:1018A000087020990888FFF73DF904463A4907F087
:1018B00077FF3C49086037480078012867D13848ED
:1018C0000078012863D1002032490870344908703B
:1018D000344801683148006807F00EFF57D031489E
:1018E00001682E48006807F0EBFF014602902E4881
:1018F000FFF73CF82D490390FEF782FF2948016865
:101900002648006807F0DCFF019024480168832026
:10191000C00507F045FF00900199FFF727F88121E6
:10192000C905029007F0A2FE2049091D0390FEF7A9
:1019300067FF05F02BFD00BF642107A8FEF74DFFF0
:101940000020049005900690002707AC7E202070B0
:1019500069206070251D012069460874012204A9D0
:10196000284604F049F805467F1CA770380AE07045
:10197000B91D204604F066F828706D1C7E20287082
:101980006D1C281B81B22046FFF79EFE00BF21B0D0
:10199000F0BD000043F8FF1F82FFEF3948F8FF1F3A
:1019A00044F8FF1F4CF8FF1F000080C1EE0100202B
:1019B0007CB504460E46218868460180A178817076
:1019C000E178C1702179017161794171A1798171E9
:1019D00001F09AFA05460349FEF712FF05F0D6FC1E
:1019E0007CBD0000DB01002070B504460D46294691
:1019F0002046FFF769FEE0790449FEF701FF642005
:101A000002490A394872FFF737FC70BDD701002040
:101A100070B504460D4629462046FFF755FE0822BC
:101A2000211D0348FEF77AFE05F0B0FC70BD0000F2
:101A3000CD01002070B504460D4629462046FFF72B
:101A400043FEE079217A0902084303498874000AB9
:101A5000C87405F09BFC70BDCD01002070B5044634
:101A60000D4629462046FFF72FFE70BD70B504468F
:101A70000D4629462046FFF727FE70BD70B5044687
:101A80000D4629462046FFF71FFE70BDF8B5002021
:101A900000F044FB284908800888FFF743F8044613
:101AA000264907F07DFE244948602548FEF797FE49
:101AB00006462348001FFEF792FE07461E49088887
:101AC000FFF730F81F49009007F06AFE05463946D7
:101AD00007F066FE0446314607F0C8FD16498860E7
:101AE00017480830FEF77BFE05461548001DFEF737
:101AF00076FE064610498868314607F051FE0446D6
:101B0000294607F0B3FD0C49C86088680E4907F004
:101B10001DFE03D80220084988700CE00649886839
:101B20000A4907F095FE03D201200349887002E0BC
:101B3000002001498870F8BD90FAFF1F9D7F3B3D52
:101B4000F201002082FFEF39CDCC6C400000C04193
:101B500010B5012000F03EFB00F0AEFA10BD000011
:101B60000048704790FAFF1F10B500F0DDFA012021
:101B700000F040FB10BD000010B5012004490870C2
:101B80000020886004F0C6FD0149486010BD0000D7
:101B900008FBFF1F10B504F0BDFD09498860084629
:101BA00080684968401A022806D305480078022850
:101BB00002D00320024908700148007810BD0000DF
:101BC00008FBFF1F70B504460D462946204606F067
:101BD0005FFF70BD70B505460E4600242C46607848
:101BE0000A2876D008DC030006F058FB0A463F229C
:101BF000B42D38525D646EB469286FD008DC462875
:101C000041D0472879D049286DD0502869D106E0C5
:101C10006A2867D0882879D0A028F7D191E0E078A9
:101C2000A278000210430146201D06F076FB97E0E3
:101C3000FFF70EFEE078A278000210430146201D57
:101C4000FFF7CAFB8CE0FFF703FEE078A278000202
:101C500010430146201DFFF7EBFB81E0FFF7F8FD85
:101C600031462846FFF79EFD7AE0FFF76BFB3146D1
:101C70002846FFF7FBFE73E0FFF7EAFD31462846F2
:101C8000FFF7FCFE6CE031462846FFF79DFB67E05E
:101C9000FFF7DEFDE078A278000210430146201D28
:101CA000FFF79AFC5CE0FFF7D3FD31462846FFF7CB
:101CB000C1FE55E0E078A278000210430146201DE5
:101CC000FFF7C8FC4CE004E031462846FFF7C6FEAB
:101CD00046E031462846FFF787FE41E01BE00CE076
:101CE00001E037E022E0E078A278000210430146EC
:101CF000201DFFF75DFE33E008E0E078A2780002E7
:101D000010430146201DFFF713FC29E03146284609
:101D1000FFF77EFE24E0FFF79BFDE078A27800024B
:101D200010430146201DFFF7A1FD19E0FFF790FDCC
:101D3000E078A278000210430146201DFFF7D4FC92
:101D40000EE0E078A278000210430146201DFFF764
:101D50000DFB05E0627803A1002005F00FF900BF3C
:101D600000BF70BD6C6E50726F746F434D443A2566
:101D7000580D0A000EB50E4903C9029101900C4896
:101D800008300068009002F091F9002002F0E6F8B7
:101D900000231A461946032002F01CF86946002069
:101DA00002F0EEF802F048F901A802F057F90EBD72
:101DB000249B000010B5002406F03AFB002803DD48
:101DC00006F0FEFA044600E00124230006F066FA5D
:101DD000077605293E535A6776003AA1002005F0A0
:101DE000CDF8FFF7BDFA012805D17D21C9000220F9
:101DF00000F000F914E006F0ABFA012808D1022047
:101E000006F0FCFAFF21F531022000F0F3F807E0BC
:101E1000052006F0F3FA7D21C900022000F0EAF85F
:101E20004DE02EA1002005F0A9F800F04DFB01289F
:101E30000BD106F01BFB042006F0E0FA7D21C9005F
:101E4000022000F0D7F8FFF797FE38E029A1002024
:101E500005F094F800F038FB01280BD106F0F2FAF7
:101E6000042006F0CBFA7D21C900022000F0C2F860
:101E7000FFF782FE23E006F0C1FB25A1002005F05C
:101E80007DF81CE028A1002005F078F806F022FC7F
:101E9000062006F0B3FA022000F0A2F80FE029A114
:101EA000002005F06BF8FFF7E7F906F0C7FA01200C
:101EB00006F0A4FA022000F093F800E000BF00BF93
:101EC00010BD00004170705472616E736665725F80
:101ED000436865636B54696D650D0A004170705409
:101EE00072616E736665725F53656E645265710DE3
:101EF0000A0000004170705F5472616E7366657213
:101F00005F526553656E645265710D0A00000000F2
:101F10004150505472616E736665725F53656E64B2
:101F2000526573700D0A00004170705472616E73D7
:101F30006665725F5365724E65787454696D650DA0
:101F40000A0000004170705472616E736665725FC2
:101F50004C6F77506F7765720D0A000010B504461C
:101F600021460248007804F01FFC10BDBFF9FF1F96
:101F700010B50446084804707D23DB000A220021C6
:101F8000084600F0CDFD7D22D200022102480078F3
:101F900004F06EFC10BD0000BFF9FF1F70B50546D0
:101FA0000C46E007C00F002809D00B4A01210B485E
:101FB000007804F05DFC20460121484070BD0220FD
:101FC0002040002805D0FFF7F5FE204602214840BA
:101FD000F4E70020F2E7000088130000BFF9FF1FBC
:101FE00010B5044621460248007804F0F7FB10BD06
:101FF000BFF9FF1F70B504460D462A462146024828
:10200000007804F035FC70BDBFF9FF1F10B5044621
:1020100021460248007804F03BFC10BDBFF9FF1FC9
:1020200038B501F08DFD0446224619A1002004F0C8
:10203000A5FF02F03BF81A4802F010F8202168468C
:1020400001700021417081706946002001F098FF05
:10205000012001F083FF2A21124805F0DDF805F088
:10206000C7F8104805F0E4F805F0B2F801F068FD93
:102070000446224606A1002004F080FF094805F02E
:10208000CDF8FFF777FE08A1002004F077FF38BDF8
:102090006D63675F6D6F6465203A2025640D0A00EB
:1020A000149B000000E00740424F4152445F5761DB
:1020B0006B6555700D0A00001FB501220221124800
:1020C00004F038FC002168464170012101706A4625
:1020D00002210E4803F0F8FB00216846817101A936
:1020E0000B48FEF7E9FF0A48FEF76CFE0948020CB0
:1020F000094BD1180A68012383409A430A6000BF44
:102100000F2003F043FA1FBD00B0044080F00F40E1
:1021100000B003401B003C10007004400146014821
:10212000408A7047BC00002000B585B0244801F00B
:1021300025FB00220221234804F0FCFB224801F089
:102140001DFB02A8FEF72AFF002168464173032108
:10215000017302A91D48FEF7AFFF1C48FEF748FEB9
:102160000020009001900B200090002168464171F2
:10217000012101716A4600211448FFF71BF80F2066
:1021800003F034FA0120002806D01049096A4022E1
:1021900011430E4A116205E00C49096A402291433D
:1021A0000A4A116200BF8820094988610020074956
:1021B000886200BF00210548FFF750F805B000BD58
:1021C0000B00381000B004401B003C1000B003406E
:1021D0000080044010B50446002C02D0012C06D12A
:1021E00002E006F0A5FD03E006F010FE00E000BFEF
:1021F00000BF10BD10B50446002C02D0012C06D142
:1022000002E006F097FD03E006F028FE00E000BFC4
:1022100000BF10BD70B504460D4610480178001D82
:102220004454001F0078401C0C4908700846807810
:10223000401C88700A46D1781078FEF7F3FAC8B2CD
:1022400006490870002D04D00A21042004F04CFA3D
:1022500002E0042004F03EFA70BD000096F9FF1F72
:1022600070B505460C461549097865225143134A55
:10227000121D881822462946FEF750FA0F480078AA
:10228000652148430D49091D401860300471081F3D
:102290000078401C091F087008468078401C887030
:1022A0000A46D1781078FEF7BDFAC8B20349087023
:1022B00000210820FFF7AEFF70BD000058F8FF1F97
:1022C00010B500F005FA01F08DF906F043FB00208F
:1022D0000649087088704870022004F089F90420CB
:1022E00004F086F9082004F083F910BD96F9FF1F69
:1022F00070B50024002504214D4803F027FB012878
:1023000003D100204B4908701AE04A480078FA28A7
:1023100010DD00204749087047A104F02FFE04207B
:1023200004F066F9042004F0EBF906F0FDFA02204F
:1023300004F0D0F93F480078401C3E49087070BD59
:1023400000F0EAF80446230005F0A8FF0A06070C8F
:102350001F396D446D5B6A6D66E03BA1002004F09F
:102360000DFE61E03CA1002004F008FE4B21C901F4
:10237000002001F0E5F806F0DFFA14210320FFF752
:1023800049FF04F0D1F905464EE0394800780028AD
:102390000ED104F0C9F9401B642804D900210220A1
:1023A000FFF738FF0AE014210320FFF733FF05E0B1
:1023B00000202F4908702FA104F0E0FD34E033A184
:1023C000002004F0DBFD06F073FC14210320FFF76E
:1023D00021FF29E033A1002004F0D0FD012000F00E
:1023E00031FAE1214902002001F0AAF80220FFF7AA
:1023F000F7FD7D23DB0032220321002000F090FB5B
:1024000012E02DA1002004F0B9FD50230A22022180
:10241000002000F085FB14210920FFF7FBFE03E0FC
:1024200006F0FAFB00E000BF00BF00BF87E7000036
:1024300000F00F40A5F9FF1F4155585F74696D65A5
:102440006F75740D0A0000004533325F434D445FE1
:10245000524553540D0A00004533325F434D445FEB
:10246000474554434F4E465F5265710D0A000000C8
:10247000A4F9FF1F4533325F434D445F4745544342
:102480004F4E465F526573700D0A00004533325F50
:10249000434D445F534554434F4E465F5265710D63
:1024A0000A0000004533325F434D445F434F4E46C0
:1024B0005F4F4B0D0A0000004533325F434D445FD0
:1024C00053454E440D0A0000014800787047000053
:1024D00095F9FF1F10B506F071FA002001F01BF806
:1024E00000F0F6F8052001F009F800F0FBF80120F3
:1024F00001F004F804A1002004F040FD00210220B6
:10250000FFF788FE10BD00004253505F4533325F35
:10251000496E69740D0A000010B500240D488078DA
:10252000002814DD0B484178001D445C001F4078F2
:10253000401C0849487008468078401E88700A464A
:10254000D1785078FEF76EF9C8B20249487020463B
:1025500010BD000096F9FF1FF0B587B0044600BF1C
:1025600000BF00BF00BF00BF00BF00BF00BF00BF73
:1025700000BF60780002A178401885B2E078C021E1
:1025800008408611E07838210840C710E0784007FD
:10259000400F069020790590607980210840C01195
:1025A00002906079402108408011019060793821C3
:1025B0000840C01000906079042108408010049009
:1025C00060798007800F03902849487D097D0002CB
:1025D0000843A8422BD12548007EB04227D123488A
:1025E000407EB84223D12148817E069881421ED187
:1025F0001E48C17E0598814219D11C48017F02986E
:10260000814214D11948417F019881420FD1174866
:10261000817F009881420AD11448C17F0498814289
:1026200005D112481430017B0398814208D010A1D3
:10263000002004F0A3FC00210420FFF7EBFD03E0E1
:1026400000210620FFF7E6FD2A4610A1002004F035
:1026500095FC0649487D097D00020843024610A109
:10266000002004F08BFC07B0F0BD0000CD0100207D
:102670004533322068617320536F6D65206469664D
:10268000666572656E740D0A000000004C6F636130
:102690006C416464723A253034580D0A0000000021
:1026A000675F4C6F63616C416464723A25303458E3
:1026B0000D0A000010B506F081F900F013F800F0E3
:1026C000BDFF012000F0BEF8042004F003F810BDA7
:1026D00010B501221321024803F048F910BD000093
:1026E00000F10F4010B500221321024803F03EF91B
:1026F00010BD000000F10F4030B599B00020234913
:1027000008702348027923A1002004F037FC27A198
:10271000002004F033FC002408E01D486038025D0E
:1027200025A1002004F02AFC601CC4B218480079DE
:10273000A042F2DC22A1002004F020FC0025144875
:1027400005790279014660396846FDF7E7FF002107
:102750000F480171FFF7B8FE042807D1012019497D
:10276000087029466846FFF7F7FE0DE0FFF7ACFE5C
:10277000012809D129466846FFF724FA50230A2286
:102780000221002000F0CCF919B030BD94F9FF1FF0
:10279000C80100204253505F4533325F52657620B6
:1027A0006C656E3A25640D0A0000000056616C7578
:1027B000653A0D0A000000002025582000000000A6
:1027C0000D0A0000A4F9FF1F10B504460C4801795A
:1027D0000079401CC2B20A4802716038445408496A
:1027E00008796421FEF714F805480171054800785E
:1027F000002803D10A21082003F076FF10BD000055
:10280000C801002094F9FF1FFFB581B00E4617469E
:102810001D460B4C6946087900024979084320702F
:10282000000A6070A6702A463946E01CFDF776FF64
:10283000E81C81B22046FFF713FD05B0F0BD000093
:102840000401002010B50446012C06D0022C16D03D
:10285000032C26D0042C48D135E025A1002004F01B
:102860008DFB00220721284803F080F80022062172
:10287000254803F07BF801202449087036E024A1A4
:10288000002004F07BFB012207211F4803F06EF8B3
:10289000002206211C4803F069F802201B49087039
:1028A00024E021A1002004F069FB00220721164842
:1028B00003F05CF801220621134803F057F80320C7
:1028C0001249087012E01FA1002004F057FB0122FA
:1028D00007210D4803F04AF8012206210A4803F0B7
:1028E00045F804200949087000E000BF00BF10BD92
:1028F00045333220456E746572204E6F726D616C87
:10290000204D6F64650D0A00C0F00F4095F9FF1F60
:1029100045333220456E7465722057616B65757062
:10292000204D6F64650D0A0045333220456E746595
:1029300072204C6F77706F776572204D6F64650DF4
:102940000A00000045333220456E74657220536CD6
:10295000656570204D6F64650D0A000070B5044612
:102960000D462A462146002000F016FE70BD0000EC
:102970000EB50020029001900090144802F0D4FEA1
:1029800002AA0421114802F09BFE01AA01210F486E
:1029900002F096FE6A4600210C4802F091FE0CA15E
:1029A000002004F0EBFA11A1002004F0E7FA0198EE
:1029B000820A034613A1002004F0E0FA0098820A7C
:1029C00003461DA1002004F0D9FA0EBDD00000205E
:1029D0000D0A2050466C617368204578616D706CFB
:1029E00065205374617274200D0A00000D0A205096
:1029F000466C61736820496E666F726D6174696FB1
:102A00006E3A20000D0A20546F74616C2050726F72
:102A10006772616D20466C6173682053697A653A0C
:102A2000092564204B422C204865783A20283078CC
:102A30002578290D0A0000000D0A2050726F677278
:102A4000616D20466C61736820536563746F7220FA
:102A500053697A653A092564204B422C20486578F1
:102A60003A20283078257829200D0A0010B5034631
:102A7000002000BF03E01C5C0C54441CA0B2904238
:102A8000F9DB10BD70B5FFB0FFB082B004460D4653
:102A90001646012189026846FDF79FFE0122920237
:102AA00069462046FFF7E2FF324629466846FDF7B1
:102AB00035FE72B6094B012292022146084802F007
:102AC000A7FD01239B026A462146054802F0A4FEA9
:102AD00062B600207FB07FB002B070BD6B66656BE0
:102AE000D000002001460020002902D001290FD18A
:102AF00008E000BF0022084BDA601A46D26892B2A2
:102B0000104606E000BF054A526892B2104600E047
:102B100000BF00BF70470000000004400080034079
:102B2000FFB581B00D4616461F46002E25D0002F5A
:102B300023D001980001124944182078022801DAB4
:102B40002078207300202070A780A6706570002D6B
:102B500003D1207804210843207003F0E5FDA06034
:102B600020780221084320700648007803F090FE88
:102B700002210448007803F031FE05B0F0BD0000EA
:102B80002C000020BCF9FF1F70B5044618236343D6
:102B9000084D5B195A7D182363435B19D9681823C4
:102BA00063435B19986802F0D7FE00202101024AB6
:102BB000505470BDC49A00002C00002070B5002451
:102BC00000BF46E018216143234A5058020C234BB2
:102BD000D1180A68012383401A430A6000BF1823F2
:102BE00063431D4D5B195868182363435B19D9680B
:102BF000182363435B191A7C8B00C35807252D02E9
:102C0000AB4315020726360235402B438D00435156
:102C100000BF18236343104D5B191A461132182365
:102C200063435B19D968182363435B19986802F002
:102C30004BFE182363435B195A7D182363435B19CA
:102C4000D968182363435B19986802F085FE601CFD
:102C5000C4B2012CB6DB70BDC49A00000070044001
:102C600070B5044618236343084D5B191A7D182379
:102C700063435B19D968182363435B19986802F0B2
:102C80006BFE01202101024A505470BDC49A00001D
:102C90002C00002010B5044620010749085CC0073D
:102CA000C00F002803D02046FFF76EFF02E0204649
:102CB000FFF7D6FF10BD00002C000020FEB5002558
:102CC000A4E0280157494418207802210840002830
:102CD00078D003F029FD0646A168B14273D8207868
:102CE000C007C00F002821D0A0786421081AC0B204
:102CF00001902078400840002070182068434A4B1B
:102D0000C018427D18206843C018C1681820684365
:102D1000C0188068009002F01FFE2078042108404F
:102D2000002826D16078401E607022E0607800287C
:102D300009D1207804210840002804D120780221FC
:102D40004840207015E0A0780190207801210843C8
:102D5000207018206843344BC018027D1820684347
:102D6000C018C16818206843C0188068009002F03D
:102D7000F3FD20780221084000280CD0A188019A98
:102D8000514308466421FDF743FD80B2029002984A
:102D90003018A0602FE000200290207B002813D084
:102DA00018216943204BC9180A7D18216943C918A5
:102DB000C968009118216943C9188868009902F010
:102DC000CBFD11E020E012E018206843164BC0183C
:102DD000427D18206843C018C16818206843C01895
:102DE0008068009002F0B8FD0020207303E0208985
:102DF000801B80B20290002F05D00298002803D0DB
:102E00000298B84200DA029F681CC5B2012D00DAB0
:102E100057E7002F05D03A4602210448007803F016
:102E200027FDFEBD2C000020C49A0000BCF9FF1F46
:102E300010B50DA1002004F0A1F80020FFF7A4FEBA
:102E4000FEF786FEFFF73CFA00F0FCFA00F048F8C7
:102E5000FFF7E6F800F04EF800F000FBFFF72AFC61
:102E6000FEF782FE10BD0000454E54455220564CE0
:102E700050530D0A0000000038B51548020C154BE0
:102E8000D1180A68012383401A430A6000BF124820
:102E9000052101228B00C35807242402A3431402F6
:102EA00007252D022C4023438C00035100BF002135
:102EB00068464170012101706A460521074802F009
:102EC00003FD00220521054802F05AFD38BD00002F
:102ED0000C0038100070044000C00440C0F00F40E7
:102EE00010B500220521024802F04AFD10BD000085
:102EF000C0F00F4010B501220521024802F040FD4C
:102F000010BD0000C0F00F4030B587B00446002C63
:102F100000D004E0E6221CA120A005F0CDF91C227F
:102F200021496846FDF7C0FA20882049401AFF2150
:102F30006E31484305462088C117890F091889104A
:102F4000FF39ED394D19A07840006946085A4519F6
:102F5000E078401E451920788007800F002803D1B3
:102F6000A078022800D86D1E114868432179E1221B
:102F700012015143411860793C2250430818A1794D
:102F80004518284607B030BD2E2E5C6273705C6217
:102F900073705F7274632E63000000006461746577
:102FA00074696D6500000000DC9A0000B207000043
:102FB00080510100F3B585B00C46002C00D004E030
:102FC0009F222EA132A005F077F934A001460EC948
:102FD000C0686D460EC50390059804903349049867
:102FE000FDF716FC461C31490498FDF711FC0491CD
:102FF000E12109010498FDF70BFC2071E121090191
:103000000498FDF705FC04913C210498FDF700FCB1
:1030100060713C210498FDF7FBFBA171FF276E371F
:10302000234820800DE0F61B2088401C208020785B
:103030008007800F002802D0FF276E3701E0FF27AE
:103040006F37BE42EFD820788007800F002802D16A
:103050001D2069468870012509E06846405DB04240
:1030600001D3A57005E06846405D361A6D1C0C2D35
:10307000F3D900BFE67007B0F0BD00002E2E5C62F1
:1030800073705C6273705F7274632E630000000083
:103090006461746574696D6500000000001F1C1F89
:1030A0001E1F1E1F1F1E1F1E1F000000805101003B
:1030B000B2070000014800687047000000D00340DC
:1030C00010B504462146024803F0C2FD10BD0000C1
:1030D00000D0034030B587B00020049005900690E2
:1030E000029003902F4800F03DFB2F4801210A4633
:1030F0008B00C35807242402A343140207252D0282
:103100002C4023438C00035100BF0021684601710D
:1031100001AA0121254802F0D7FB254800F022FB37
:103120000220244909680322920491438204032364
:103130009B041A4011431F4A116000BF04A803F00A
:10314000B5FD04A91C4803F009FE012189021A4AB1
:1031500010690F239B0202469A43104602460A4317
:103160001046154A106100BF1449684601810121CB
:1031700081720221C172032101730421417305216F
:10318000817302A9104603F055FE04210A4803F09A
:103190005BFD142002F018FA074803F07FFE07B029
:1031A00030BD00000B00381000B0044080F00F402C
:1031B0001D003C100070044000D00340E4070000F4
:1031C0000021044A1168884200D27047014A906089
:1031D00000BFFAE700D0034010B50446054803F0ED
:1031E00062FE2146034803F025FE024803F056FE26
:1031F00010BD000000D00340014800687047000087
:1032000054F8FF1F02480068401C014908607047DD
:1032100054F8FF1F10B5002000F0E8FB04462246DA
:103220002FA1002003F0AAFE012000F0DFFB0446DE
:10323000224631A1002003F0A1FE022000F0D6FBBF
:103240000446224631A1002003F098FE042000F03D
:10325000CDFB0446224632A1002003F08FFE05205C
:1032600000F0C4FB0446224633A1002003F086FE92
:10327000082000F0BBFB0446224636A1002003F0E4
:103280007DFE092000F0B2FB0446224638A1002052
:1032900003F074FE0A2000F0A9FB044622463CA17C
:1032A000002003F06BFE0B2000F0A0FB044622463A
:1032B0003DA1002003F062FE0D2000F097FB0446C4
:1032C00022463FA1002003F059FE072000F08EFBAC
:1032D000044622463FA1002003F050FE10BD00002E
:1032E0006B434C4F434B5F436F7265537973436C31
:1032F0006B3A25640D0A00006B434C4F434B5F5003
:103300006C6174436C6B3A25640D0A006B434C4F3F
:10331000434B5F427573436C6B3A25640D0A0000A2
:103320006B434C4F434B5F466C617368436C6B3A25
:1033300025640D0A000000006B434C4F434B5F5067
:103340006C6C466C6C53656C436C6B3A25640D0A6F
:10335000000000006B434C4F434B5F4D6367466971
:1033600078656446726571436C6B3A25640D0A009A
:103370006B434C4F434B5F4D6367496E7465726E90
:10338000616C526566436C6B3A25640D0A0000005F
:103390006B434C4F434B5F4D6367466C6C436C6BA8
:1033A0003A25640D0A0000006B434C4F434B5F4DC0
:1033B0006367506C6C30436C6B3A25640D0A0000F7
:1033C0006B434C4F434B5F4C706F436C6B3A2564BF
:1033D0000D0A00006B434C4F434B5F4F7363304506
:1033E00072436C6B3A25640D0A00000000B587B08B
:1033F00000200590069005A90A4803F029FC6846BC
:10340000817E427E037EC07D0193029203910090F3
:103410006846837D828A04A1002003F0AFFD07B0D7
:1034200000BD000000D003402564202E202564202C
:103430002E202564202025643A25643A25640D0A4F
:103440000000000010B5034803490861481703F065
:103450007FF810BD0600010000E000E070B500201C
:1034600000F0C4FA05467D21C900FDF7D1F90446F4
:10347000601E0949884200D90CE0601E0749486176
:103480000321081F03F078F8002004498861072011
:10349000086100BF70BD0000FFFFFF0000E000E01A
:1034A00010B500F003FE0F4800F054FC0D49086809
:1034B0000D49086000BF0D49087900F02DF90B4A4D
:1034C000D21D0021084600F0E5F8084BDA7899781B
:1034D000587800F0EDFC064800F0C0FD05480649AC
:1034E000086010BD0C9B00000CF8FF1FF89A00004C
:1034F000049B0000006CDC0200F8FF1F00B50146D1
:103500000022FFF779FE024600BFFFF775FE801A22
:103510008842FAD300BD10B50446002C04D0012C1B
:1035200005D0022C09D105E005F02AFD06E005F0E2
:1035300091FD03E005F0F0FD00E000BF00BF10BD0D
:1035400070B504460D46002C04D0012C18D0022C76
:103550001CD118E0002000F049FA06463246294600
:103560000C4802F07FFC01210A4802F0EDFA01212B
:103570004903084802F0D8FA0C2002F019F806E0D6
:1035800005F068FD03E005F0C7FD00E000BF00BFE7
:1035900070BD000000A006407CB504460E461546EE
:1035A00000960195002C04D0012C08D0022C0DD1DE
:1035B00006E06A460749084802F0E4FD07E006E035
:1035C0006A460649064804F01BFB00E000BF00BF46
:1035D0007CBD00005C00002000A006409C00002094
:1035E00000C0064008B5114802F082FA012202210B
:1035F0000F4803F091F900216846417001706A4656
:1036000002210C4802F060F901221146084803F03B
:1036100083F900216846417001706A46012105481E
:1036200002F052F9044800F085F808BD00A00640F9
:103630000090044000F00F400900381010B5002041
:10364000FFF769FFE12149020020FFF779FF10BD74
:1036500010B504F02FFC0446224607A1002003F019
:103660008DFCFFF737FDFFF783F9FFF705FC02201C
:10367000FFF751FF10BD000056657273696F6E3A17
:1036800025730D0A0000000010B5FFF709FFFFF7D2
:10369000C1FD10BD70B506460D461446002C00D085
:1036A00004E00E4A0EA119A004F006FE304600F018
:1036B0008DFB2146284600F063FC16480078C021A7
:1036C00088431449087000BF124880790C210840D3
:1036D00080080328F8D1002070BD0000F405000028
:1036E0002E2E5C636F6D706F6E656E74735C4D4BE8
:1036F0004C31365A345C647269766572735C6673F9
:103700006C5F636C6F636B2E63000000636F6E66AB
:103710006967000000400640054909783822914356
:10372000C20038231A401143014A1170704700004B
:1037300000400640020C044BD1180A680123834064
:103740001A430A607047000000700440020C044BEA
:10375000D1180A68012383401A430A6070470000A9
:1037600000700440020C044BD1180A680123834006
:103770001A430A607047000000700440020C044BBA
:10378000D1180A68012383401A430A607047000079
:1037900000700440020C044BD1180A6801238340D6
:1037A0001A430A60704700000070044070B5044678
:1037B000002C00D004E0124A12A11DA004F07CFDF0
:1037C00000256078C006C00E05431B48057140798E
:1037D00040094001A178C906C90E0843164948713D
:1037E00008460079217840221143084312490871A4
:1037F00000BF11488079402108400028F9D070BDF1
:10380000DF0200002E2E5C636F6D706F6E656E744C
:10381000735C4D4B4C31365A345C64726976657218
:10382000735C66736C5F636C6F636B2E6300000088
:10383000636F6E66696700000040064010B5164869
:103840000068032189040840800C002804D0022865
:103850000CD003281BD117E000F0AEF90121C903F9
:10386000884200D100E00020044612E00B480068C6
:10387000002800D005E0FF22693209A113A004F05E
:103880001BFD0648046804E07D24E40001E00024F8
:1038900000BF00BF204610BD0070044010F8FF1F9D
:1038A0002E2E5C636F6D706F6E656E74735C4D4B26
:1038B0004C31365A345C647269766572735C667337
:1038C0006C5F636C6F636B2E63000000675F7874DE
:1038D000616C3332467265710000000010B500F073
:1038E00073F80446002C06D000F0B0F9C008A042DE
:1038F00001D3204610BD0020FCE7000070B500F0A9
:10390000F3F80546002D01D1284670BD1748007810
:1039100038210840C4082846E0400546134840784E
:10392000302108400609002E1DD0230004F0B6FC0B
:103930000805060708090A0C121800BF00BF00BFDF
:1039400000BF00BF6D090DE014212846FCF760FFA1
:10395000054607E00C212846FCF75AFF054601E022
:10396000002500BF00BF2846CFE70000004006400A
:1039700070B51348407802210840002805D110484E
:10398000807920210840002801D0002070BD00F07F
:103990001BF80446002C01D12046F7E70848C07800
:1039A0006021084045090648C07880210840C609C2
:1039B000A800044940187100405A6043E6E700003F
:1039C00000400640D899000010B5064880791021C3
:1039D00008400009002802D1FFF790FF10BD0248FF
:1039E0000068FBE70040064004F8FF1F70B505467D
:1039F0002B0004F053FC0E0809154C162D314835E8
:103A0000393D414C454C00BF00F020F906462248A4
:103A10004068000F411C3046FCF7FAFE044638E0CF
:103A200000BF00F013F906461B484068000F411C18
:103A30003046FCF7EDFE04461748406807221204A2
:103A40001040000C411C2046FCF7E2FE044620E03A
:103A500000F064F904461CE0FFF7F0FE044618E0AD
:103A6000FFF73CFF044614E000F018F8044610E0AD
:103A7000FFF77EFF04460CE000F008F9044608E07A
:103A80007D24E40005E000F097F8044601E00024FE
:103A900000BF00BF204670BD4080044010B50548FF
:103AA000007802210840002800D110BD00F004F881
:103AB000FBE700000040064008488079C007C00FBF
:103AC000002802D10648006870470448007A0E2199
:103AD0000840410803480068C840F5E70040064038
:103AE00004F8FF1F08F8FF1F10B5064800680028FB
:103AF00000D004E0E12204A10EA004F0DDFB0148A7
:103B0000006810BD0CF8FF1F2E2E5C636F6D706F88
:103B10006E656E74735C4D4B4C31365A345C647216
:103B200069766572735C66736C5F636C6F636B2E32
:103B300063000000675F7874616C304672657100E5
:103B400070B508201B4DAD790C263540AA08194DDB
:103B5000AD79102635402B09164D6D78022635407B
:103B60006908144DAD79202635406C09002A06D02D
:103B7000012A0AD0022A0ED0032A18D115E0002B00
:103B800001D1032000E0002012E0002901D0022032
:103B900000E001200CE0002901D0052004E0012C08
:103BA00001D1062000E0042002E0072000E000BF71
:103BB00000BF70BD0040064010B50B480078802162
:103BC000084000280DD009480068002800D005E012
:103BD000FF22553206A111A004F06EFB03480068D5
:103BE00010BD0020FCE70000005006400CF8FF1F4D
:103BF0002E2E5C636F6D706F6E656E74735C4D4BD3
:103C00004C31365A345C647269766572735C6673E3
:103C10006C5F636C6F636B2E63000000675F78748A
:103C2000616C3046726571000146064A914201D8C6
:103C3000002005E0044A914201D8012000E0022062
:103C4000704700009798000000127A0010B50E49E6
:103C500089790C2211408C08002C08D0012C09D045
:103C6000022C0AD0032C0BD100F010F80AE0FFF769
:103C70007FFE07E0FFF720FF04E0FFF735FF01E0DC
:103C8000002000BF00BF10BD0040064010B5124824
:103C9000807940210840002800D110BD00F03AF89A
:103CA0000446002C00D005E08F2292000BA116A044
:103CB00004F002FB08480079C006C00E411C2046F3
:103CC000FCF7A6FD044604484079C006C00E183033
:103CD00044432046E1E70000004006402E2E5C638E
:103CE0006F6D706F6E656E74735C4D4B4C31365AF0
:103CF000345C647269766572735C66736C5F636C66
:103D00006F636B2E630000006D6367706C6C3063D3
:103D10006C6B000010B5FFF7E7FE10BD10B50C4846
:103D20004068012109040840000C002802D0012845
:103D300009D103E0FFF71CFE044606E0FFF7A6FFEB
:103D40000446640801E0002400BF00BF204610BD07
:103D50000080044070B504462068FFF765FF054603
:103D6000184822790178090909010B4613431946BD
:103D7000017000BF00BF0178A0230A469A43114694
:103D8000A2791143017000BF0F4840783C2188435D
:103D90002901302211400843617908430A494870DB
:103DA000607900280CD0074800788021084000285E
:103DB00006D000BF04488079022108400028F9D0CD
:103DC00070BD000000500640004006400146002043
:103DD00070470000FFB581B006460F461C46002024
:103DE000009032484079402188433049487100BFF3
:103DF0002E488079202108400028F9D12B484078AE
:103E000002218843294948700846C57880791021E5
:103E100008400009002807D0012000902348C078FE
:103E2000202148402149C87020480078FC2188435F
:103E3000F100382211408022114308431B490870C9
:103E40000846407804210840002806D000BF1748E3
:103E50008079022108400028F9D000BF13488079FA
:103E60001021084000090028F8D10098002801D04E
:103E70000E48C570F801802108400399490160226D
:103E800011400843E022294691430843054600BFFC
:103E9000064880790C21084080080228F8D1002CBF
:103EA00000D0A047002005B0F0BD00000040064053
:103EB000F8B50346284880790C2630408408264807
:103EC0008079C507ED0F2448007A0E26304040085F
:103ED00000900098824220D0012D14D1012C05D0F1
:103EE0001D4800780226304000280CD01A4840783F
:103EF00040084000184E707000BF17488079C00716
:103F0000C00F0028F9D11448007A2F26B04356007C
:103F10000E273E403043104E30720F484078400824
:103F20004000CE07F60F30430B4E707030460078DD
:103F30008008800018433070012C03D00220184004
:103F4000002806D000BF04488079C007C00F88420F
:103F5000F9D10020F8BD000000400640002806D03E
:103F60000649497802221143044A517005E0034989
:103F7000497802229143014A51707047004006403F
:103F800070B505460C46002C00D004E01B4A1CA16D
:103F900026A004F091F9274840780221884325495A
:103FA000487008460078C421884380302149087051
:103FB00000BF204880791C2108400828F9D11D48FD
:103FC0004079402188431B49487100BF19488079D6
:103FD000202108400028F9D12046FFF7E7FB1548CB
:103FE0004079402108431349487100BF1148807946
:103FF000202108400028F9D0002070BD4B050000AA
:104000002E2E5C636F6D706F6E656E74735C4D4BBE
:104010004C31365A345C647269766572735C6673CF
:104020006C5F636C6F636B2E63000000636F6E6682
:10403000696700000040064007480078C0218843B7
:104040000549087000BF044880790C2108408008A9
:104050000328F8D1002070470040064010B5114AEF
:104060004168516001780F4A403A526801231B04AD
:104070009A430B040124240423401A43094B403B78
:104080005A6000BF4178084A126803239B049A4390
:104090008B040324A40423401A43034B1A6000BF7B
:1040A00010BD0000408004400070044001480249F7
:1040B000486070470000031040800440064949688A
:1040C000032212069143020603231B061A401143E2
:1040D000014A5160704700000080044070B50246FC
:1040E0000B460D48002113E0555C684000240BE0AE
:1040F000C507ED0F002D04D04510084E7540284629
:1041000000E04010651CACB2082CF1DB4D1CA9B2DC
:104110009942E9DB70BD0000FFFF000001A0000034
:1041200010B50249086800F011FD10BDD0F9FF1F5D
:1041300010B54DA1002002F021FF00214F4800F0F2
:1041400089FC0002000A4E49884204D1024600213F
:104150004A4800F067FA0021484800F07BFC012142
:1041600009060840884209D14649474803F050FCF7
:10417000012212060021414800F054FA00213F4874
:1041800000F068FC012149060840884204D102463B
:1041900000213A4800F046FA0021384800F05AFC65
:1041A000012189060840884204D102460021334893
:1041B00000F038FA0021314800F04CFC01210907D9
:1041C0000840884204D1024600212C4800F02AFA17
:1041D00001212A4800F03EFC0002000A28498842DA
:1041E00004D102460121254800F01CFA0121234890
:1041F00000F030FC012109060840884209D123491A
:10420000234801F0C7FE0122120601211B4800F0DD
:1042100009FA0121194800F01DFC01214906084056
:10422000884204D102460121144800F0FBF9012123
:10423000124800F00FFC012189060840884204D191
:10424000024601210D4800F0EDF901210B4800F074
:1042500001FC012109070840884204D102460121DE
:10426000064800F0DFF910BD444D41305F4952511E
:1042700048616E646C65720D0A00000000800040A9
:10428000FFFFFF009C00002000C006405C000020F3
:1042900000A0064010B50249486800F057FC10BD68
:1042A000D0F9FF1F10B50249886800F04FFC10BD1F
:1042B000D0F9FF1F10B50249C86800F047FC10BDD7
:1042C000D0F9FF1F70B505460C46042C00D204E05F
:1042D000642204A10EA003F0EFFF285D80210843B3
:1042E000285570BD2E2E5C636F6D706F6E656E7499
:1042F000735C4D4B4C31365A345C6472697665722E
:10430000735C66736C5F646D616D75782E68000018
:104310006368616E6E656C203C2046534C5F464579
:1043200041545552455F444D414D55585F4D4F44A2
:10433000554C455F4348414E4E454C0070B50546CF
:10434000002406E0A00009490858A84200D102E074
:10435000641C002CF6D000BF002C00D104E04C22DD
:1043600003A10EA003F0A8FF204670BD049A000030
:104370002E2E5C636F6D706F6E656E74735C4D4B4B
:104380004C31365A345C647269766572735C66735C
:104390006C5F646D616D75782E630000696E737477
:1043A000616E6365203C2041525241595F53495A26
:1043B0004528735F646D616D75784261736573291B
:1043C0000000000070B505462846FFF7B7FF8000E3
:1043D00005490C58210C054A881801680122A240A1
:1043E0001143016000BF70BD089A000000700440D6
:1043F00070B505460C461646042C00D204E0822215
:1044000005A110A003F058FF285D80098001B106C6
:10441000890E0843285570BD2E2E5C636F6D706F3A
:104420006E656E74735C4D4B4C31365A345C6472FD
:1044300069766572735C66736C5F646D616D7578C7
:104440002E6800006368616E6E656C203C204653E8
:104450004C5F464541545552455F444D414D55587A
:104460005F4D4F44554C455F4348414E4E454C00CF
:1044700010B50446002C00D005E0FF22153213A130
:104480001CA003F019FF2068FF30013021790901D9
:104490004018C0680121890788432168FF31013134
:1044A000227912018918C8602068FF300130217913
:1044B0000901401881680120000601432068FF308F
:1044C0000130227912018018816010BD2E2E5C63AC
:1044D0006F6D706F6E656E74735C4D4B4C31365AF8
:1044E000345C647269766572735C66736C5F646D6C
:1044F000612E630068616E646C6520213D204E551D
:104500004C4C000070B505460C461646042C00D2F3
:1045100005E0FF22DA320AA113A003F0CDFE002E3F
:104520000CD02101E81DF930081880680121090626
:1045300008432201E91DF9315118886070BD00005F
:104540002E2E5C636F6D706F6E656E74735C4D4B79
:104550004C31365A345C647269766572735C66738A
:104560006C5F646D612E68006368616E6E656C20BF
:104570003C2046534C5F464541545552455F444D9F
:10458000414D55585F4D4F44554C455F4348414E52
:104590004E454C0070B505460C461646042C00D21C
:1045A00005E0FF22DA320AA113A003F085FE002EF7
:1045B0000CD02101E81DF930081880680121090696
:1045C00008432201E91DF9315118886070BD0000CF
:1045D0002E2E5C636F6D706F6E656E74735C4D4BE9
:1045E0004C31365A345C647269766572735C6673FA
:1045F0006C5F646D612E68006368616E6E656C202F
:104600003C2046534C5F464541545552455F444D0E
:10461000414D55585F4D4F44554C455F4348414EC1
:104620004E454C0070B505460C461646042C00D28B
:1046300005E0FF22DA320AA113A003F03DFE002EAE
:104640000CD02101E81DF930081880680121090605
:1046500008432201E91DF9315118886070BD00003E
:104660002E2E5C636F6D706F6E656E74735C4D4B58
:104670004C31365A345C647269766572735C667369
:104680006C5F646D612E68006368616E6E656C209E
:104690003C2046534C5F464541545552455F444D7E
:1046A000414D55585F4D4F44554C455F4348414E31
:1046B0004E454C00F7B504461546002C00D004E0EA
:1046C000A32218A121A003F0F7FD042D00D204E0DD
:1046D000A42214A121A003F0EFFD0020206060605F
:1046E000A060E060019820602571019800F0EEF96B
:1046F0000646B0004719B80023490C50B100234AC0
:104700008918C8577F21C943884200D108E000BFFB
:10471000C206D20E012191401D4A116000BF00BFA8
:10472000FEBD00002E2E5C636F6D706F6E656E7443
:10473000735C4D4B4C31365A345C647269766572E9
:10474000735C66736C5F646D612E630068616E6498
:104750006C6520213D204E554C4C00006368616E15
:104760006E656C203C2046534C5F46454154555283
:10477000455F444D415F4D4F44554C455F43484173
:104780004E4E454C00000000D0F9FF1F009A00007B
:1047900000E100E070B505460C46042C00D205E0AF
:1047A000FF22793208A112A003F086FD2101E81D45
:1047B000F9300818C068410049082201E81DF930A5
:1047C0001018C16070BD00002E2E5C636F6D706F9D
:1047D0006E656E74735C4D4B4C31365A345C64724A
:1047E00069766572735C66736C5F646D612E6800D8
:1047F0006368616E6E656C203C2046534C5F464595
:1048000041545552455F444D414D55585F4D4F44BD
:10481000554C455F4348414E4E454C0070B50546EA
:104820000C46042C00D205E0FF22793208A112A028
:1048300003F042FD2101E81DF9300818C06841006D
:1048400049082201E81DF9301018C16070BD000050
:104850002E2E5C636F6D706F6E656E74735C4D4B66
:104860004C31365A345C647269766572735C667377
:104870006C5F646D612E68006368616E6E656C20AC
:104880003C2046534C5F464541545552455F444D8C
:10489000414D55585F4D4F44554C455F4348414E3F
:1048A0004E454C0070B505460C461646042C00D209
:1048B00005E0FF225F320BA114A003F0FDFC2101F3
:1048C000E81DF9300818C0680121C9058843F105C1
:1048D0000122D205114008432201E91DF931511886
:1048E000C86070BD2E2E5C636F6D706F6E656E74E8
:1048F000735C4D4B4C31365A345C64726976657228
:10490000735C66736C5F646D612E68006368616ED2
:104910006E656C203C2046534C5F464541545552D1
:10492000455F444D414D55585F4D4F44554C455F93
:104930004348414E4E454C0070B505460C46164660
:10494000042C00D205E0FF223D320BA114A003F09D
:10495000B3FC2101E81DF9300818C068012149079E
:104960008843710701225207114008432201E91DC3
:10497000F9315118C86070BD2E2E5C636F6D706F79
:104980006E656E74735C4D4B4C31365A345C647298
:1049900069766572735C66736C5F646D612E680026
:1049A0006368616E6E656C203C2046534C5F4645E3
:1049B00041545552455F444D414D55585F4D4F440C
:1049C000554C455F4348414E4E454C0070B5054639
:1049D0000C46042C00D205E0FF226C3208A112A084
:1049E00003F06AFC2101E81DF9300818C0680121B4
:1049F000C90708432201E91DF9315118C86070BD8B
:104A00002E2E5C636F6D706F6E656E74735C4D4BB4
:104A10004C31365A345C647269766572735C6673C5
:104A20006C5F646D612E68006368616E6E656C20FA
:104A30003C2046534C5F464541545552455F444DDA
:104A4000414D55585F4D4F44554C455F4348414E8D
:104A50004E454C0070B505460C46042C00D205E0CE
:104A6000FF22CB3204A10EA003F026FC2101E81D99
:104A7000F9300818806870BD2E2E5C636F6D706F02
:104A80006E656E74735C4D4B4C31365A345C647297
:104A900069766572735C66736C5F646D612E680025
:104AA0006368616E6E656C203C2046534C5F4645E2
:104AB00041545552455F444D414D55585F4D4F440B
:104AC000554C455F4348414E4E454C0070B5054638
:104AD000002406E0A00009490858A84200D102E0DD
:104AE000641C002CF6D000BF002C00D104E0522240
:104AF00003A10DA003F0E0FB204670BDF899000073
:104B00002E2E5C636F6D706F6E656E74735C4D4BB3
:104B10004C31365A345C647269766572735C6673C4
:104B20006C5F646D612E6300696E7374616E6365A2
:104B3000203C2041525241595F53495A4528735FE6
:104B4000646D61426173657329000000F8B5044625
:104B5000002C00D005E0FF221E3215A11EA003F09C
:104B6000ABFB257901273F062668042D00D206E01D
:104B7000FF22DA321C490846283003F09DFB002F43
:104B80000CD02901F01DF9300818806801210906B0
:104B900008432A01F11DF9315118886000BFA0684F
:104BA000002803D02046A268E1689047F8BD0000C5
:104BB0002E2E5C636F6D706F6E656E74735C4D4B03
:104BC0004C31365A345C647269766572735C667314
:104BD0006C5F646D612E630068616E646C6520219A
:104BE0003D204E554C4C0000B851000070B50546B4
:104BF0002846FFF76BFF800005490C58210C054A39
:104C0000881801680122A2401143016000BF70BDF5
:104C1000FC99000000700440FFB581B004460F46C7
:104C200015460A9E002C00D004E0BF2237A141A007
:104C300003F042FB002F00D004E0C02233A141A0CA
:104C400003F03AFB0498002800D004E0C1222FA111
:104C500040A003F031FB012D03D0022D01D0042D23
:104C600000D104E0C22229A13FA003F025FB012EC0
:104C700003D0022E01D0042E00D104E0C32223A1D0
:104C800048A003F019FB2760049860600B98E0606F
:104C9000012D04D0022D05D0042D09D105E00120FD
:104CA000607206E00220607203E00020607200E0A3
:104CB00000BF00BF012E04D0022E05D0042E09D162
:104CC00005E00120E07206E00220E07203E000202F
:104CD000E07200E000BF00BF0C98002804D001285B
:104CE00006D002280ED108E001202072A0720AE04E
:104CF000002020720120A07205E001202072002017
:104D0000A07200E000BF00BF05B0F0BD2E2E5C63B6
:104D10006F6D706F6E656E74735C4D4B4C31365AAF
:104D2000345C647269766572735C66736C5F646D23
:104D3000612E6300636F6E66696720213D204E55CA
:104D40004C4C00007372634164647220213D204E1C
:104D5000554C4C00646573744164647220213D209D
:104D60004E554C4C00000000287372635769647400
:104D700068203D3D20315529207C7C2028737263BA
:104D80005769647468203D3D20325529207C7C2081
:104D9000287372635769647468203D3D2034552937
:104DA0000000000028646573745769647468203DCE
:104DB0003D20315529207C7C202864657374576917
:104DC000647468203D3D20325529207C7C20286475
:104DD0006573745769647468203D3D20345529001B
:104DE00070B505460C46042C00D204E0672212A1DF
:104DF0001BA003F061FA2101E81DF9300818806852
:104E00000121090608432201E91DF9315118886082
:104E100000212201E81DF930815022011018416063
:104E20002201E81DF9301018816018492201E81D9F
:104E3000F9301018C16070BD2E2E5C636F6D706FFD
:104E40006E656E74735C4D4B4C31365A345C6472D3
:104E500069766572735C66736C5F646D612E630066
:104E60006368616E6E656C203C2046534C5F46451E
:104E700041545552455F444D415F4D4F44554C455B
:104E80005F4348414E4E454C00000000800000202A
:104E900070B504460E461546002C00D004E0F922F9
:104EA00003A10DA003F008FAA660E56070BD000044
:104EB0002E2E5C636F6D706F6E656E74735C4D4B00
:104EC0004C31365A345C647269766572735C667311
:104ED0006C5F646D612E630068616E646C65202197
:104EE0003D204E554C4C0000F8B506460D46144684
:104EF000042D00D204E0752222A12CA003F0DCF9DD
:104F0000002C00D004E076221EA133A003F0D4F9D7
:104F10002A01F01DF930216881502A0110186168BA
:104F20004160E0680102090A2A01F01DF9301018F9
:104F300081602901F01DF9300818C7683F21490434
:104F4000384688430746E07A400403214904084074
:104F5000A17AC9040122D20411400843617A0905EB
:104F60000322120511400843217A89050122920586
:104F70001140084307432901F01DF9300818C760A4
:104F8000F8BD00002E2E5C636F6D706F6E656E74E1
:104F9000735C4D4B4C31365A345C64726976657281
:104FA000735C66736C5F646D612E63006368616E31
:104FB0006E656C203C2046534C5F4645415455522B
:104FC000455F444D415F4D4F44554C455F4348411B
:104FD0004E4E454C00000000636F6E6669672021ED
:104FE0003D204E554C4C000010B50446002C00D01E
:104FF00005E0232212010BA114A003F05DF9206843
:10500000FF300130217909014018C068012189076A
:1050100008432168FF310131227912018918C860E3
:1050200010BD00002E2E5C636F6D706F6E656E7428
:10503000735C4D4B4C31365A345C647269766572E0
:10504000735C66736C5F646D612E680068616E648A
:105050006C6520213D204E554C4C000010B5044697
:10506000002C00D005E0232212010BA114A003F0B4
:1050700023F92068FF300130217909014018C06808
:105080000121890708432168FF310131227912018A
:105090008918C86010BD00002E2E5C636F6D706FA4
:1050A0006E656E74735C4D4B4C31365A345C647271
:1050B00069766572735C66736C5F646D612E6800FF
:1050C00068616E646C6520213D204E554C4C00009B
:1050D000F7B504460E46002C00D005E0FF22023250
:1050E00022A12CA003F0E8F8002E00D005E0FF225A
:1050F00003321EA12BA003F0DFF82068FF3001303F
:1051000021790901401880680121490608400028DA
:1051100001D02848FEBD21792068FFF761FE217982
:1051200032462068FFF7E0FE0298C007C00F002853
:1051300019D025792768042D00D205E0FF226C32B2
:105140001DA127A003F0B8F82901F81DF9300818AF
:10515000C0680121C90708432A01F91DF931511816
:10516000C86000BF00BF0020D4E700002E2E5C63A3
:105170006F6D706F6E656E74735C4D4B4C31365A4B
:10518000345C647269766572735C66736C5F646DBF
:10519000612E630068616E646C6520213D204E5570
:1051A0004C4C0000636F6E66696720213D204E55B0
:1051B0004C4C0000881300002E2E5C636F6D706FE6
:1051C0006E656E74735C4D4B4C31365A345C647250
:1051D00069766572735C66736C5F646D612E6800DE
:1051E0006368616E6E656C203C2046534C5F46459B
:1051F00041545552455F444D414D55585F4D4F44C4
:10520000554C455F4348414E4E454C00FFB585B077
:1052100000200190059C2070641C0798002826D06F
:1052200006980668002E07D1302020700198401C97
:105230000190019809B0F0BD16E030460899FBF7DF
:10524000F1FA0490089904984843371A002F04DAB9
:105250003D46E8430746313700E03037049E27706B
:10526000641C0198401C0190002EE6D12EE00698A7
:10527000006803900398002806D130202070019820
:10528000401C01900198D5E71DE008990398FBF7B1
:10529000BFFA029008990298484303990D1A0A2D03
:1052A00001D2303508E028460A380E99002901D08D
:1052B000412100E061214518029803902570641C8B
:1052C0000198401C019003980028DED10198B1E7B5
:1052D0000FB438B50A480078002804D1401E38BC05
:1052E00008BC04B0184705A800900648009A049925
:1052F00000F00AF80446002000902046EFE7000086
:10530000C0F9FF1F69550000F7B596B006460020AA
:105310000C900B90099004900290179D0AE1252CA7
:1053200005D02046B0470998401C099001E10120B2
:105330000590002008900A9011E0681C054604784A
:10534000302C09DB392C07DC0A2108984843214618
:1053500030394018089002E06D1E01200A900A982A
:105360000028EAD006200790681C054600782E2801
:1053700019D1002007900A9011E0681C05460478B6
:10538000302C09DB392C07DC0A21079848432146D9
:1053900030394018079002E06D1E01200A900A98EB
:1053A0000028EAD000E06D1E681C05460478642CD5
:1053B00011D0692C0FD0662C0DD0462C0BD0782C38
:1053C00009D0582C07D06F2C05D0622C03D0702C3C
:1053D00001D0752C7CD1642C01D0692C12D1189885
:1053E000006803901898001D189005980A23012260
:1053F00003A900900DA8FFF709FF0B900DA90B98CA
:1054000008180C90582C01D0782C16D1782C01D18A
:10541000002005901898006802901898001D1890B8
:1054200005981023002202A900900DA8FFF7EEFEB8
:105430000B900DA90B9808180C906F2C05D0622CBE
:1054400003D0702C01D0752C29D1189800680290D7
:105450001898001D1890622C09D06F2C04D0702C65
:1054600008D0752C0CD108E00820049009E0022037
:10547000049006E01020049003E00A20049000E06D
:1054800000BF00BF05980090002202A90DA8049B50
:10549000FFF7BCFE0B900DA90B9808180C9009ABF8
:1054A00000962020089A0B9900F04BF80C980028E1
:1054B0003ED007E00C990878491E0C91B047099836
:1054C000401C09900C9800780028F3D130E0FFE7E9
:1054D000632C0BD118980178001D1890C8B2069063
:1054E0000698B0470998401C099021E0732C1AD106
:1054F000189880C81890002F1AD03846FBF7ECF89F
:105500000B9009AB00962020089A0B9900F019F82F
:1055100005E038787F1CB0470998401C099038781E
:105520000028F6D104E02046B0470998401C0990B5
:1055300000BF6D1C2878041E00D0F0E6099819B051
:10554000F0BDFFB581B00D4616461C462F4606E05D
:105550000A99019888472068401C20607F1CB74248
:10556000F6DB05B0F0BD000001B507480078002863
:1055700001D1401E08BD0449486801228B68694674
:1055800098470120F6E70000C0F9FF1F7F21C943BB
:10559000884200D1704700BFC206D20E012191405F
:1055A000024A116000BF00BFF4E7000080E100E0A4
:1055B00010B504467F20C043844200D110BD204670
:1055C00000F0D0FF00BFF9E77F21C943884200D136
:1055D000704700BFC206D20E01219140024A1160FD
:1055E00000BF00BFF4E7000000E100E07F21C943F5
:1055F000884200D1704700BFC206D20E01219140FF
:10560000024A116000BF00BFF4E7000000E100E0C3
:10561000FFB58BB007460C4603AA2146384603F077
:1056200085FE21463846079B0D9A03F02BFE064661
:10563000002E02D030460FB0F0BD0E9803F040FEB1
:105640000646002E01D03046F5E7039C049D0D98D8
:105650002018401E029029460298FBF7D9F800292D
:1056600009D029460298FBF7D3F8401C0190019815
:105670006843401E02900021384603F0E2FD13E02B
:105680002002000A0921090608430C4948603846EF
:1056900003F020FE06463869002801D038698047AB
:1056A000002E00D003E0641902988442E8D900BFBC
:1056B000384603F0BFFD3046BDE700000000024061
:1056C00010B50446002C01D0002A01D1042010BDE1
:1056D0000B0002F0E3FD0A06090C0F1215181B1E41
:1056E0002124E06810601CE06068106019E06068C8
:1056F000106016E0207A106013E02068106010E05F
:10570000002010600DE0606910600AE0A069106080
:1057100007E0206A106004E0606A106001E06A201F
:10572000D5E700BF0020D2E710B50446002C01D118
:10573000042010BD174AD2680F231B061A40110E11
:105740000F2902D10120000403E04A00124B9A5AAB
:105750009002002222606060012222729202E260C6
:1057600000206061A0612061204603F07BFD0028DD
:105770000BD0002009490860094848600948886042
:105780000846E061204600F035F8002020626062A3
:1057900000BFCEE7408004403C9A000060FAFF1F43
:1057A000E0F9FF1F20FAFF1F024611491078012877
:1057B0000AD15078002801D1782070470868012369
:1057C000DB031843086011E008680123DB039843FA
:1057D00008605078002804D108685B1018430860FE
:1057E00004E0086801239B03984308600020E4E775
:1057F0000C3000F070B50546002D01D1042070BDBD
:10580000EC69606803F006FDA06803F0EDFC02207F
:1058100020600020F3E70000FFB589B00D46144674
:105820001E46002C02D104200DB0F0BD01AA29466D
:10583000099803F07BFD32462946049B099803F042
:1058400021FD0746002F01D03846EDE7019D0021DC
:10585000099803F0F6FC2CE001CC1A498860049802
:10586000042807D12802000A0321490608431549E4
:1058700048600CE00498082809D101CC1149C8609F
:105880002802000A0721090608430E4948600998C2
:1058900003F020FD074609980069002802D0099905
:1058A00008698047002F00D005E004984519049846
:1058B000361A002ED0D100BF099803F0BBFC384641
:1058C000B2E700000000024070B504460D461646DF
:1058D000002E00D004E04B220FA11AA002F0ECFC35
:1058E0003078002805D161690120A84081436161B9
:1058F00010E028467178002903D101228240A2607D
:1059000002E001228240626000BF60690121A9407B
:105910000843606170BD00002E2E5C636F6D706F78
:105920006E656E74735C4D4B4C31365A345C6472E8
:1059300069766572735C66736C5F6770696F2E63FE
:1059400000000000636F6E66696700000246106920
:10595000C840C007C00F7047002A03D101238B4005
:10596000836002E001238B4043607047002A03D12B
:1059700001238B40836002E001238B40436070472A
:10598000002A03D101238B40836002E001238B4076
:105990004360704710B5044602480470FDF70EF9E5
:1059A00010BD0000BCF9FF1F70B505460C46022073
:1059B0002040002805D0FDF781F92046022148400B
:1059C00070BD04202040002803D020460421484018
:1059D000F6E70020F4E7000003E002A1002001F058
:1059E000CDFAFAE7486172644661756C745F48618C
:1059F0006E646C65720D0A0070B504460E4615465D
:105A00002A4631462046FAF789FE601970BD70B506
:105A100002460B46002400210025511CD81E85B2E9
:105A200003E00E78491C3019C4B228466E1EB5B288
:105A30000028F6D10878A04201D1012070BD0020D5
:105A4000C043FBE770B50246002000230024531C2E
:105A5000CD1EACB203E01E785B1C3518E8B22546BB
:105A6000661EB4B2002DF6D170BD70B5024600209E
:105A700000230024531CCD1EACB203E01E785B1C37
:105A80003518A8B22546661EB4B2002DF6D170BDF9
:105A900018B50246002400946B461B785B1CDCB2F0
:105AA00000940123DB030B40002B05D080235371AE
:105AB0001C020B46A343194601239B030B40002BFA
:105AC00005D0402353711C020B46A3431946CB0655
:105AD000DB0E002B04D0CB06DB0E13714909490104
:105AE000002901D0014800E0002018BDB4040000E6
:105AF00070B5054600BF2879402108400028FAD03B
:105B0000284600F07FF8800005490C58210C054A12
:105B1000881801680122A2409143016000BF70BD56
:105B2000649A000000700440064A114002780A435B
:105B30000270C2780B0A1A43C27082790B0C1A43A6
:105B400082717047C0F00F00002904D0C27804238E
:105B50001A43C27003E0C27804239A43C2707047AC
:105B6000002907D0C27A20231A43C272C2781A438E
:105B7000C27006E0C27A20239A43C272C2789A4366
:105B8000C2707047002907D0C27A80231A43C272BC
:105B9000C2781A43C27006E0C27A80239A43C27266
:105BA000C2789A43C270704710B50446002C00D0EA
:105BB00005E0FF22563206A110A002F07DFBE12095
:105BC00040022060002020716071A071E07110BD62
:105BD0002E2E5C636F6D706F6E656E74735C4D4BD3
:105BE0004C31365A345C647269766572735C6673E4
:105BF0006C5F6C707363692E63000000636F6E6688
:105C00006967000070B50546002406E0A000094958
:105C10000858A84200D102E0641C002CF6D000BF56
:105C2000002C00D104E0902203A10EA002F044FB5E
:105C3000204670BD5C9A00002E2E5C636F6D706F05
:105C40006E656E74735C4D4B4C31365A345C6472C5
:105C500069766572735C66736C5F6C707363692ED2
:105C600063000000696E7374616E6365203C2041BF
:105C7000525241595F53495A4528735F6C707363A0
:105C8000694261736573290001460A794B791B02E9
:105C90001A43104670470000F7B588B004460D4619
:105CA000002D00D004E0D72258A163A002F004FB2D
:105CB0002868002800D004E0D82254A160A002F097
:105CC000FBFA0020079005902868029004263BE02C
:105CD0002868704301460A98FAF79AFD80B2069048
:105CE0000698002801D101200690069870430146CD
:105CF0000A98FAF78DFD039029680398401A0490DA
:105D00000698401C704301460A98FAF781FD2968FD
:105D1000091A049881420DD20698401C704301462E
:105D20000A98FAF775FD2968081A04900698401C2D
:105D300080B2069002990498884204D80498029090
:105D4000059606980790761C202EC1D964212868F4
:105D5000FAF75EFD410041180298814202D23E48A6
:105D60000BB0F0BD2046FFF74DFF80003B490858BF
:105D700001900199090C3A4A881802680123019997
:105D80008B401A43026000BFE0780C218843E0702A
:105D90000598032806D90598082803D2E07A02213D
:105DA0000843E072A07A410949010598401E014369
:105DB000A172A07A40094001079909120843207096
:105DC00007986070A77813218F432879002803D0A3
:105DD0002879102108430743A770207820218843A1
