:020000040000FA
:1000000000180020FD04000035700000D9640000D5
:1000100000000000000000000000000000000000E0
:1000200000000000000000000000000019050000B2
:1000300000000000000000001B050000757D0000AE
:10004000314C000023050000270500002B050000AF
:100050004F0500004F0500004F0500004F05000050
:100060002F05000033050000370500003B050000A8
:10007000E5800000430500006D810000491A000082
:100080004F050000B57E00004F0500004F05000041
:10009000ED7700004F0500004F0500004B05000004
:1000A0004F0500004F0500004F0500004F05000000
:1000B000416E00004F0500004F0500004F05000095
:1000C0000000000000000000000000000000000030
:1000D0000000000000000000000000000000000020
:1000E0000000000000000000000000000000000010
:1000F0000000000000000000000000000000000000
:10040000FFFFFFFFFFFFFFFFFFFFFFFFFEFBFFFF01
:1004100000F002F800F045F80CA030C808382418A5
:100420002D18A246671EAB4654465D46AC4201D12C
:1004300000F037F87E460F3E0FCCB6460126334219
:1004400000D0FB1AA246AB46334318473CA300003A
:100450005CA300000023002400250026103A01D3ED
:1004600078C1FBD8520700D330C100D50B6070476C
:1004700010B5662902D10AF01BF810BD642902D11B
:1004800000F0F0F810BD002010BD1FB500F06AFEAE
:1004900004000020002109F063FEE0601FBD10B5DC
:1004A00010BD04488546FFF7F0FF09F0F1FC01F0AC
:1004B0002BFA00000018002003B4FFF7F0FF03BC84
:1004C00001F09EFA70B505460C46164602E00FCCC8
:1004D0000FC5103E102EFAD2082E02D303CC03C54E
:1004E000083E042E07D301CC01C5361F03E0217856
:1004F0002970641C6D1C761EF9D270BD72B6154849
:10050000154901600A6882F308881448804762B67A
:1005100013480047FEE7FEE7FEE7FEE7FEE7114867
:10052000004711480047114800471148004711484B
:10053000004711480047114800471148004711483B
:10054000004711480047114800471148004711482B
:100550000047000008ED00E000000000897D000079
:1005600011040000214C0000954D0000A54D000035
:10057000B54D00004F0500004F0500004F0500007D
:100580004F050000C9800000358100005181000046
:100590004F0500004F0500000FB41CB5074B06AA1D
:1005A0007B4469460090059800F075FD002069467F
:1005B00000F084FD1CBC08BC04B01847190B0000F7
:1005C0000FB41CB50C0007AA009001D00019401E02
:1005D000084B7B4469460190069800F05CFD002CB6
:1005E00003D06946002000F069FD1CBC08BC04B0C3
:1005F00018470000F10A0000F8B50E460446002036
:1006000020622046E1688847002829D0252802D0AA
:100610006268A16820E0E16820460027884705005D
:100620001ED028464138192802D80127FF0220355C
:100630003246204627602946FFF71AFF002808D0D7
:10064000012804D0F61DF608F6000836D9E7361D55
:10065000D7E762682846A1689047206A401CCFE728
:10066000206AF8BDF7B5002575291068009914A611
:1006700011D0C046C046002802DA404211A608E068
:10068000009909688A0701D50FA602E0490704D539
:100690000EA6012501E0C046C046009F0024243775
:1006A00004E000F018FD30313955641C0028F8D101
:1006B0002B4632462146009800F083FAFEBD00002A
:1006C000000000002D0000002B00000020000000B2
:1006D000034670B502460B439B070FD10E4CE60153
:1006E00000E008C208C91D1B9D433542F9D0D9B2AC
:1006F0001170521C00290DD01B0AF8E70B78491C19
:100700001370521C002B05D00B78491C1370521C1F
:10071000002BF3D170BD00000101010130B5441C74
:1007200003E00178401C00290DD08107F9D10B4B63
:10073000DD0104C8D11A91432940FAD0001B0A06F2
:1007400003D0C01E30BD001B30BD0A0401D0801E86
:1007500030BD0902FCD0401E30BD00000101010186
:10076000F8B5042A2CD3830712D00B78491C0370E8
:10077000401C521E83070BD00B78491C0370401C91
:10078000521E830704D00B78491C0370401C521E74
:100790008B079B0F05D0C91ADF002023DE1B08C979
:1007A0000AE0FFF78FFEF8BD1D4608C9FD401C4654
:1007B000B4402C4310C0121F042AF5D2F308C91A02
:1007C000521EF0D40B78491C0370401C521EEAD410
:1007D0000B78491C0370401C012AE4D4097801708D
:1007E000F8BD01E004C0091F0429FBD28B0701D525
:1007F0000280801CC90700D00270704700290BD00E
:10080000C30702D00270401C491E022904D383078B
:1008100002D50280801C891EE3E70022EEE7002259
:10082000DFE70378C2781946437812061B021943A2
:100830008378C0781B04194311430902090A000692
:1008400008437047020A08704A70020C8A70020E50
:10085000CA707047002203098B422CD3030A8B42D3
:1008600011D300239C464EE003460B433CD40022A8
:1008700043088B4231D303098B421CD3030A8B42BA
:1008800001D394463FE0C3098B4201D3CB01C01A88
:10089000524183098B4201D38B01C01A5241430953
:1008A0008B4201D34B01C01A524103098B4201D341
:1008B0000B01C01A5241C3088B4201D3CB00C01AAE
:1008C000524183088B4201D38B00C01A5241430826
:1008D0008B4201D34B00C01A5241411A00D201464B
:1008E0005241104670475DE0CA0F00D049420310E4
:1008F00000D34042534000229C4603098B422DD333
:10090000030A8B4212D3FC22890112BA030A8B42DA
:100910000CD3890192118B4208D3890192118B4229
:1009200004D389013AD0921100E08909C3098B42AE
:1009300001D3CB01C01A524183098B4201D38B01F1
:10094000C01A524143098B4201D34B01C01A524194
:1009500003098B4201D30B01C01A5241C3088B42D9
:1009600001D3CB00C01A524183088B4201D38B00C4
:10097000C01A5241D9D243088B4201D34B00C01A4E
:100980005241411A00D20146634652415B10104663
:1009900001D34042002B00D54942704763465B10AB
:1009A00000D3404201B50020C046C04602BD000051
:1009B0000121C9050123411842001B06D3185B0E13
:1009C0000AD0C1100722D206891840075242D142EC
:1009D00001D5520089187047090208D50146002A3E
:1009E00003D0C10FC907002070471046704742026C
:1009F00002D0002002497047072109050143F4E7AE
:100A00000000F87FF0B5FF252D04C609C209FF27B5
:100A100004462E400137CB093E4348402A402B4034
:100A20000746002A6BD0002B69D0AA4267D0AB42A0
:100A300065D0002800DA32460125ED0529432C4314
:100A400009022002090AD21A4B0C7F24E31A434CF4
:100A5000000A7C44E35C7D242404121914145B0016
:100A6000A218884201D3521C00E0400049420C46C3
:100A70005C4324115C43DB016415E318040A5C4306
:100A8000C502200D0C4644436419250A5D43230327
:100A9000EC0C0D46654300030019EB184C42A342D1
:100AA00001D35B18401CD4052018002B07D05B0035
:100AB000C91804D3401C002901D1400840003F213F
:100AC00089048A4209D3002A08DC1106090F04D0E0
:100AD000032149074018C00FC007F0BD01224100A3
:100AE000120689187F2252069142F6D20521490743
:100AF000C84201D59010F0BDFF20C005F0BD002F09
:100B000000DA32461648AA4207D2AB4205D2190291
:100B1000090E17D0F80FC007F0BDFF2563002D06A2
:100B2000AB42F9D84900A942F6D8AB4201D1A9425B
:100B3000F2D0A94201D1002101E061004908D005AD
:100B40000843F0BD1102090EFBD0FF200243D0057F
:100B5000F0BD0A460146104654E700005E9C0000C6
:100B60000000C07F1F22030C02D10F2200041CD002
:100B7000030E01D10002083A030F01D10001121F38
:100B8000830F01D18000921E002801DB4000521E1D
:100B9000D2055118021251181922904004D3491C51
:100BA000002801D14908490008467047C10FC9070C
:100BB00000D04042012292071143D3E70121890767
:100BC000D0E7FFB504460D4681B02430009021687F
:100BD000880604D51022E0699143216000E00120DD
:100BE000A84201DD471B00E000270498A1697A199B
:100BF0001018081AA0612078C00602D42046C0460A
:100C0000C046002608E003986268A168805D9047AE
:100C1000206A401C761C206204988642F3DB207810
:100C2000C0060AD52046C046C04606E06268A168F4
:100C300030209047206A401C206238467F1E0028E2
:100C4000F4DC07E000986268A168405D9047206A84
:100C5000401C206228466D1E0028F3DC2046C0465A
:100C6000C0462078000602D5022005B0F0BD012064
:100C7000FBE700007047FFB50C461E468FB003CA65
:100C8000089009914F007D0D00D16D1E002108468E
:100C90000020C0460321099A89050840002A03DA8A
:100CA0008200801840080840800D01280A9002DD6B
:100CB0000020C0430A90089807430DD0F048F1493E
:100CC000281848430714189800281DD07542291E7B
:100CD0001DDD0A9842421BE01898012802D000202E
:100CE000302104E00020F24305E02154401CB042D2
:100CF000FBDB30460022189B002121540F998B60AA
:100D00000A60486013B0F0BDBD1B6D1CDFE70A9A96
:100D1000002900DA69420BA800F0AAFA0BAB07CB56
:100D200003AB07C30899099800F00EFB6B4607C395
:100D30000146D5480918002D00910BDDD2490398D2
:100D40000A9A49424018002303A90390684600F01C
:100D50006BFD08E003990A9A0023081803A9039081
:100D6000684600F00BFD6B4607C30004000C03D07F
:100D70000020C043410800E01046189A002A03D022
:100D80000022009215461EE0751E05D400F0EEF913
:100D9000303262556D1EF9D501220843079602D004
:100DA00000227F1C04E02078302801D100227F1E21
:100DB000002A069787D01EE0112D07DA00F0D6F939
:100DC000303262556D1C02460A43F5D1084303D008
:100DD0000098002819D00EE00021681E05E0235C71
:100DE000625C63542254401E491C8142F7DBA81BFD
:100DF000401E07950690079A18990020A0540F9856
:100E0000079B069A81600CC07CE711260020189091
:100E100059E7D21DF0B50D460446D10893B0C9007C
:100E200003C90C900D9107F0C9FF02460D98C00F41
:100E300001D02D2007E02068810701D52B2002E09A
:100E40004007C00F4001032A0F9001D0072A05DB9D
:100E500003462946204600F0C7F90EE120788006B7
:100E600001D5E76900E006272846652D04D06628ED
:100E700014D0672D69D12DE00020112F009001DBE7
:100E8000112300E07B1C0CAA03A910A8FFF7F3FEB6
:100E90001199002610987D1C0E9142E001203B46DE
:100EA0000CAAC0070B900120009003A910A8FFF71F
:100EB000E2FE119D12981099002600280E9501D18E
:100EC000781C0D18781B02D446427D1C761EE81B48
:100ED00000903AE0012F00DA01270020112F009046
:100EE00001DD112300E03B460CAA03A910A8FFF77F
:100EF000C2FE11993D46109800260E9121780907EF
:100F00000BD40E99A94200DA0D4603A9012D04DD88
:100F10004A19203AD27F302A06D0B84201DA011DA0
:100F200004DA012100910FE06D1EEFE7002802DCDA
:100F300086192D1A03E0411CA94200DD0D46801BD5
:100F4000401C00900120C0070B902078000705D4BA
:100F50000098A84202DB0020C043009069460020B0
:100F6000C8720B98012102AF0337C907884225D008
:100F7000022010902B2011900B9800280BDA404291
:100F80000B902D20119006E00B9800F0A4F8303162
:100F90007F1E0B9039701099481E00291090F3DCC9
:100FA0000B980028F0D111987F1E3870208800051A
:100FB00001D5452000E065207F1E387001A8C01BC8
:100FC000C01D0B900F98002800D0012041190098F7
:100FD000C01709180B980818A169081A401EA061CB
:100FE0002078C00602D42046C046C0460F9800288C
:100FF00005D06268A1689047206A401C2062207872
:10100000C00625D52046C046C04621E0002E07DB9D
:101010000E98B04204DD03A86268805DA16802E01A
:101020006268A16830209047206A761C401C2062CC
:101030000098401E002800900AD100F093F8C06884
:1010400062680168405CA1689047206A401C206289
:1010500028466D1E0028D9DC07E062683878A16850
:101060007F1C9047206A401C20620B99481E002973
:101070000B90F2DC2046C046C046032042E600004A
:1010800001FCFFFF104D0000E1DFFFFF01694A1C7A
:1010900002610878704700B58FB002910021059178
:1010A0000549019379440391114604906846FFF77E
:1010B000A3FA0FB000BD0000E5FFFFFF0A68107043
:1010C000521C0A6070470CC908399A4202D2531C5C
:1010D0000B601070704701468008081A020910184A
:1010E000020A1018020C1018C008820012185200D0
:1010F000891A01E0401C0A390A29FBD27047000016
:1011000010B5FF231B0644009C421DD84C009C4296
:101110001AD80346124A0B4307D4401A02D3EFF3FE
:10112000008010BDEFF3008010BD081A06D2EFF367
:10113000008001219043C907084302E0EFF30080DB
:10114000904380F3008810BD0D231B041A4204D085
:101150001146002000F0B8FB10BD00F0CDFB10BD23
:101160000000009000487047940700200B4670B5BF
:10117000024689078008084319469D08141AA941A8
:1011800025090807054308092C194841250A0106C5
:101190000D43010A2C194141200C0D0428430D0C6C
:1011A00000194D41002140194D41C008690708430D
:1011B000E908840F8D002543840024184D4124192B
:1011C0006D41121BAB4107E00925ED432C1152196B
:1011D00063410024401C61411C460A250026551B22
:1011E000B441F1D270BD0000F8B51F46044601239A
:1011F0000068DB02032601461840072A05DB0028A9
:1012000001D017A506E017A504E0002801D016A517
:1012100000E016A5102081432160A069C01E002FA8
:10122000A06101D0401EA0612046C046C046002FEC
:1012300009D038466268A1689047206A401C206245
:10124000C01C206206E0206AFAE762682878A1687C
:101250006D1C9047761EF8D22046C046C046F8BDA9
:101260004E414E006E616E00494E4600696E66004A
:10127000F7B516468AB0334878446C4603467C334B
:10128000C06F5A689B680DC42E487844763003AC12
:101290000DC80DC43720C001081837211B30FFF7D7
:1012A000E3FA05460C46803D1B3C02D56442012012
:1012B00000E000200027099010E0E0070CD00C208F
:1012C00020497843794432464C3941186846012315
:1012D00000F054FA6B4607C364107F1C002CECD15D
:1012E000184F7F442E3F16E0E80712D02001C019A6
:1012F0000EC80691089307920068F04201D1981930
:1013000008903246012306A903A800F037FA03AB80
:1013100007C36D10641C002DE6D10998002806D083
:1013200032466946012303A800F07EFA05E0012356
:101330003246694603A800F021FA0A9B07C30DB0A4
:10134000F0BD000078940000034640000A4610B546
:10135000400D0BD00121C9070F24A40200191C0362
:1013600064082143540D2143D20207E000210120EB
:10137000F2E7D40F490021435200401E0029F8DA59
:10138000DB0FDB07184310BDFFB50D46144685B0D3
:101390004868516807F0ECFC00910190A868A168CA
:1013A00007F0E6FC02910390A868616807F0E0FC92
:1013B000029A12188242029201D2012000E000201B
:1013C000019A0B18D2180028019202D08A4202D941
:1013D00003E08A4201D2012000E0002000990818B1
:1013E00000906868A16807F0C3FC029A1218824254
:1013F000029201D2012000E00020019A0B18D218BD
:101400000028019202D08A4202D903E08A4201D226
:10141000012000E000200099081800902868216849
:1014200040004900400849084018FA49471814E0AC
:1014300001994000C90F08430090019802994000AB
:10144000C90F08430190029803994000C90F08434F
:101450000290039840007F1E039000980028E7DA6E
:101460000898002801D0EC4E00E00026B74201DACF
:10147000012000E00020002804902AD0F71BF80685
:10148000C00E15D0029B2021091A039A8B401A43E3
:101490000392029A019BC2408B401A430292019A26
:1014A000009BC2408B4000991A430192C1400091B9
:1014B0007B110DD06F460320C11A03D50021820095
:1014C000B95003E08A008100BA587A50401EF3D523
:1014D000374603980299002800D00120014308985C
:1014E0000291002808460CD0002800D00120019964
:1014F000019A490508430121D20AC902D202019288
:1015000000E001210E9B0122D207012B02D0002B0B
:1015100003D013E0002807D120E0904204D8904285
:101520000CD1019B0B4209D0019B5918019105D1A7
:101530000099491C009101D17F1C009200280DD018
:10154000102108460020C0460498002806D00F98B5
:10155000002803D0082108460020C04628682168DA
:10156000019B009A4840C10F0598C90739430EC036
:1015700009B0F0BDFFB587B0099A0898089953687B
:1015800092684068896896460022039317469446FD
:10159000089A12685300099A5B08126852005208B0
:1015A0009A1A9E4BD4180A9A002A01D0352200E0DC
:1015B000402206920022012315460492DB07059380
:1015C00024E0002D05D175460346039E4D1BB34113
:1015D00009D375466646039B491B049D9841059BAC
:1015E0007519AC465F4163463B4308D0059B049E9A
:1015F000DD0776082E435B080496059301E0521E32
:10160000641EC50FED0749184041521C069B9A42C3
:10161000D7DB002D04D17546039A6B1A824101D2A3
:1016200003200CE0039A0B466B404240134303D067
:10163000014303D0012002E0022000E000206146C7
:1016400001910021009702910A99002905D0614675
:1016500040020143704B019102E080070023029099
:101660009C4201DA012000E0002007003AD01A1B5A
:10167000D006C00E15D0029D2021019C091AC5403C
:101680008C402543029C8C4000D001242543019CC2
:101690000295009DC4408D4000992C430194C140A7
:1016A000009154111DD06D460221002202290CD157
:1016B0000320001B07E0002804DB8600AE59002E43
:1016C00000D00122401C0328F5DB081B02D588004E
:1016D0002A5004E08000285810438A00A850491E70
:1016E000E3D51C460A98002802980CD0002800D0A8
:1016F00001200199019A490508430121D20AC90232
:10170000D202019200E00121109B0122D207012B9D
:1017100002D0002B03D013E0002807D11FE0904235
:1017200004D890420CD1019B0B4209D0019B59185F
:10173000019105D10099491C009101D1641C0092CE
:1017400000280CD0102108460020C046002F06D0EB
:101750001198002803D0082108460020C0460898A8
:101760000999019A009B006809684840C10F0798D1
:10177000C907214382600AC00BB0F0BD00B585B037
:10178000019300920A460146002302A8FFF7FCFDE0
:1017900002A807C805B000BDFFB50A461F4685B0C0
:1017A0000799019301230091014602A8FFF7ECFD80
:1017B00002990398049ECA0F4900D20700920F2293
:1017C000490892028C1A0021002800DB0C464500D3
:1017D00013486D08844214D3079A002A04DA441E81
:1017E0000026104DF64302E004460D460E46102139
:1017F00008460020C046002F03D0042108460020E0
:10180000C0462005E90A0843009908436905F20A21
:101810001143ADE602C0FFFF013C0000FF3F0000A6
:10182000FF070000FFFFFF7F00B585B00193009226
:101830000A460146002302A8FFF79CFE02A807C83B
:10184000A8E7FFB50A461F4685B007990193012313
:101850000091014602A8FFF78DFE02990398049EAD
:10186000CA0F4900D20700920F22490892028C1A2F
:101870000021002800DB0C46450011486D08844219
:1018800014D3079A002A04DA441E00260D4DF643AD
:1018900002E004460D460E46102108460020C046D0
:1018A000002F03D0042108460020C0462005E90A85
:1018B0000843009908436905F20A114358E60000FD
:1018C000FF070000FFFFFF7FC80212D54803400F4B
:1018D000002804D0C803C043012188407047EFF3BB
:1018E00000800001000903210907084380F30088F4
:1018F000704700207047000010B5024800F050F813
:1019000010BD00000000C07F10B50446C046C046B0
:101910002046FEF7D1FD10BD024670B50A4392077E
:101920002AD11E4DEE0104C808C9541B944334400B
:1019300017D0D0B2D9B2401A2106014310D190B2CB
:1019400099B2401A210401430AD110021902000A77
:10195000090A401A2102014302D1100E190E401A41
:1019600070BD9A42DFD010BA19BA884201D901205D
:1019700070BD0020C04370BD02780B78401C491C2C
:10198000002A09D09A4207D102780B78401C491CE2
:10199000002A01D09A42EFD0D01A70BD0101010196
:1019A00010B50C461107090F092904D00A290AD0DD
:1019B00008290CD104E011460820FFF785FF06E056
:1019C000510606D501E0510601D50120C007214688
:1019D00010BDD10607D501010909CC084907000E41
:1019E0000006044309E0410F20024907000A0143B1
:1019F000200E00061D22D14101430846E7E7000002
:101A000001491820ABBEFEE726000200704730B542
:101A10008C180278401C13071B0F01D10378401C5F
:101A2000120906D10278401C03E00578401C0D70B5
:101A3000491C5B1EF9D101E00B70491C521EFBD101
:101A4000A142E6D3002030BD10B50021034800F0CC
:101A50007FF884B2204607F0F7FB10BD00B00340CA
:101A600070B50546284600F021F9800005490C585C
:101A7000210C054A881801680122A24091430160A7
:101A800000BF70BDC4A4000000700440F8B5044657
:101A900000260025206A40210840002803D00126A6
:101AA000206A88432062606AC0210843606208E0BF
:101AB000204600F03DF940210840002801D00125D2
:101AC00007E00021204600F079F880210840002836
:101AD000EED000BF20690090002E03D0206A402184
:101AE00008432062204600F023F9402108400028E6
:101AF00000D00125002D01D02846F8BDE06CA16C76
:101B00004018616C4018216C4018E16B4018A16BC3
:101B100040180090009840080121C9030843009034
:101B20000098E062E06EA16E4018616E4018216E70
:101B30004018E16D4018A16D4018009000984008D1
:101B40000121C90308430090009820630020D4E7D6
:101B500070B505460C46022C00D205E0FF22F73294
:101B600004A10FA007F040F9A1002846103040580A
:101B700070BD00002E2E5C636F6D706F6E656E74AD
:101B8000735C4D4B4C31365A345C647269766572C5
:101B9000735C66736C5F61646331362E68000000AD
:101BA0006368616E6E656C47726F7570203C204192
:101BB00044435F525F434F554E54000070B5064694
:101BC0000C46022C00D205E0FF226A3207A112A0C7
:101BD00007F00AF90025A0003058802108400028AD
:101BE00001D080200543284670BD00002E2E5C6386
:101BF0006F6D706F6E656E74735C4D4B4C31365A01
:101C0000345C647269766572735C66736C5F616480
:101C10006331362E630000006368616E6E656C4749
:101C2000726F7570203C204144435F5343315F43E2
:101C30004F554E540000000010B50446002C00D053
:101C400004E08D220AA115A007F0CEF80020207034
:101C5000032060700120A0700320E070012020713B
:101C6000042060710020A071E071207210BD00009E
:101C70002E2E5C636F6D706F6E656E74735C4D4B72
:101C80004C31365A345C647269766572735C667383
:101C90006C5F61646331362E630000004E554C4C1E
:101CA00020213D20636F6E666967000070B50546B0
:101CB000002406E0A00009490858A84200D102E02B
:101CC000641C002CF6D000BF002C00D104E046229A
:101CD00003A10EA007F088F8204670BDC0A4000044
:101CE0002E2E5C636F6D706F6E656E74735C4D4B02
:101CF0004C31365A345C647269766572735C667313
:101D00006C5F61646331362E63000000696E73742A
:101D1000616E6365203C2041525241595F53495ADC
:101D20004528735F616463313642617365732900CE
:101D3000014600200A6A80231A40002A01D080222E
:101D400010434A6A40231A40002A01D0402210431F
:101D500070470000F8B506460C46002C00D004E0A1
:101D60004D222AA134A007F03FF83046FFF79EFF2E
:101D7000800035490F58390C344A8818016801220F
:101D8000BA401143016000BF60788507AD0F21792B
:101D900089000C2211400D436079042801D01020E5
:101DA0000543E0784001602108400543E0790028C0
:101DB00001D080200543B560F06805092D016079E8
:101DC000042803D060798007800F0543A07900289C
:101DD00001D004200543A078002801D00820054345
:101DE000F560306A8508AD0020788007800F0543D4
:101DF0003562207A002804D0706A08210843706296
:101E000003E0706A082188437062F8BD2E2E5C637F
:101E10006F6D706F6E656E74735C4D4B4C31365ADE
:101E2000345C647269766572735C66736C5F61645E
:101E30006331362E630000004E554C4C20213D206E
:101E4000636F6E6669670000C4A400000070044000
:101E5000F8B507460E461446022E00D205E0FF22D2
:101E600054320EA118A006F0BFFF002C00D005E0F0
:101E7000FF22553209A11CA006F0B6FF2078C50646
:101E8000ED0E6079002801D020200543207900283C
:101E900001D040200543B0003D50F8BD2E2E5C63BC
:101EA0006F6D706F6E656E74735C4D4B4C31365A4E
:101EB000345C647269766572735C66736C5F6164CE
:101EC0006331362E630000006368616E6E656C4797
:101ED000726F7570203C204144435F5343315F4330
:101EE0004F554E54000000004E554C4C20213D20D3
:101EF000636F6E666967000010B5436ADA08D20046
:101F0000042904D08B079B0F042423431A43426205
:101F100010BD000070B52348FEF783FC441C214926
:101F20002046FEF78FFC1F4A0A3AD07C927C0002C2
:101F3000104301461C48FEF797FC1C4908601948ED
:101F4000FEF76FFC19490968491E884204D91549F2
:101F500016480068FEF776FC1248FEF762FC13494B
:101F60000968081A0F4A0A3AD17C927C0902114387
:101F7000484304460E49FEF76DFC0A490A39487287
:101F8000FA210A480068FEF765FC04460548FEF79A
:101F900048FC05462146FEF75DFC012901D105F00C
:101FA0006BFF70BD7301002080C3C90150F8FF1F93
:101FB000E0930400002001490870704738F8FF1FC3
:101FC000014800787047000038F8FF1F70B50446DC
:101FD0000D462946204600F079F970BDF0B599B05C
:101FE000074600BF64216846FEF719FC00266C46D0
:101FF0007E20207002206070251D08220C49284692
:1020000004F07AFA05460836A670300AE070B11D71
:10201000204604F097FA28706D1C7E2028706D1CF5
:10202000281B81B2204600F051F919B0F0BD000024
:1020300069010020F0B59DB0074600BF642104A8E7
:10204000FEF7EDFB0020019002900390002604AC07
:102050007E20207004206070251D3548C17D827D62
:10206000080210430112684601713148C17D827D2A
:1020700008021043C1B268464171022201A92846F4
:1020800004F03AFA0546B61CC02168460171284999
:10209000487D097D000208430112684641712449C8
:1020A000487D097D00020843C1B26846817120481D
:1020B000807E1F49497EC90008431D49097E890168
:1020C0000843C1B26846C1711948C17E68460172B1
:1020D00017481430007B1649C97F8900084314490A
:1020E000897FC90008431249497F89010843104983
:1020F000097FC9010843C1B268464172062201A99D
:10210000284604F0F9F90546B61DA670300AE070BD
:10211000B11D204604F016FA28706D1C7E20287030
:102120006D1C281B81B2204600F0D0F81DB0F0BD18
:1021300069010020F0B59BB000BF642102A8FEF742
:102140006EFB002402AD7E202870472068702E1D93
:102150002148FEF766FB0746694601F0A5FC02220E
:102160006946304604F0C8F90646A41C0122A91F9E
:10217000304604F0C1F90646641C0122691F30464E
:1021800004F0BAF90646641C012201A9304604F0A5
:10219000B3F90646641C0122E91E304604F0ACF98E
:1021A0000646641C0122A91E304604F0A5F9064625
:1021B000641CAC70200AE870A11D284604F0C2F926
:1021C0003070761C7E203070761C701B81B22846E1
:1021D00000F07CF81BB0F0BD77010020F0B59DB099
:1021E000074600BF642104A8FEF719FB00200190F8
:1021F00002900390002604AC7E20207006206070C0
:10220000251D032201A9284604F076F90546F61C8F
:1022100002221049284604F06FF90546B61C042234
:1022200001A9284604F068F90546361DA670300A53
:10223000E070B11D204604F085F928706D1C7E20E9
:1022400028706D1C281B81B2204600F03FF81DB09D
:10225000F0BD00007B010020F0B59DB0074600BF37
:10226000642104A8FEF7DBFA00200190029003909D
:10227000002604AC7E20207008206070251D0322FB
:1022800001A9284604F038F90546F61C012201A9E7
:10229000284604F031F90546761CA670300AE07035
:1022A000B11D204604F04EF928706D1C7E20287068
:1022B0006D1C281B81B2204600F008F81DB0F0BD4F
:1022C00001B50121684606F0E5FF08BD70B504467A
:1022D0000D462A4621460448FEF742FA2A4602499C
:1022E000022001F0D9FE70BD64FFFF1FFEB5044659
:1022F0000D46002002900190082D24D12068029004
:10230000606801900299019808F06AF807468321F5
:10231000C905FEF777FB06460B49FEF793FA0299CB
:10232000019808F05DF88121C9050090FEF76AFB6D
:102330000746029908F048F806460349091DFEF7CA
:1023400081FA05F099FDFEBD9201002070B50446AA
:102350000D46607A8006800E607229462046FFF79F
:10236000B5FF607921790902401881B22148817551
:10237000090AC175207AE1790902401881B21D4825
:102380000175090A4175607A4107490F194881763C
:10239000607A8006410F17484176607A80111549AE
:1023A0000876A17A1348C176E07A8107890F11482F
:1023B00014300173E07A4007C10F0E48C177E07A0C
:1023C0008006410F0B488177E07A4006C10F09482B
:1023D0004177E07AC0110749087705F04DFD0220EA
:1023E00000F08EFB022000F03BFB0021022000F0F9
:1023F0008BFC70BD69010020012001490870704705
:1024000038F8FF1FFEB5044600F060F90546207855
:1024100001280BD12D4908702888FEF7CFFB06460E
:102420002B4907F04DFF2B4908600DE0607801282B
:102430000AD1294908702888FEF7C0FB06462449BE
:1024400007F03EFF254908602048007801283BD16D
:1024500021480078012837D100201C4908701E4906
:1024600008701E4801681B48006807F0D5FE2BD095
:102470001A4801681748006807F0B2FF0746394656
:102480001748FEF7BFFA06461649FEF7DBF9134870
:1024900001681048006807F0A3FF01900D4801682B
:1024A0008320C00507F00CFF00900199FEF7AAFAFF
:1024B00007468121C90507F069FE06460949091D3D
:1024C000FEF7C0F905F0D8FCFEBD000043F8FF1F81
:1024D00082FFEF3948F8FF1F44F8FF1F4CF8FF1F39
:1024E000000080C18A0100207CB504460E46218888
:1024F00068460180A1788170E178C170217901710D
:1025000061794171A179817101F078FA0546034939
:10251000FEF798F905F0B0FC7CBD000077010020C3
:1025200070B504460D4629462046FFF7CFFE70BD24
:1025300070B504460D4629462046FFF7C7FE08221F
:10254000211D0348FEF70CF905F096FC70BD000054
:102550006901002070B504460D4629462046FFF764
:10256000B5FEE079217A0902084303498874000A1C
:10257000C87405F081FC70BD6901002070B5044687
:102580000D4629462046FFF7A1FE70BD70B50446F2
:102590000D4629462046FFF799FE70BD70B50446EA
:1025A0000D4629462046FFF791FE70BDF0B589B073
:1025B000002000F02DFB334908800888FEF7FEFA62
:1025C0000446314907F07CFE2E4948602F48FEF74B
:1025D00028F906462D48001FFEF723F9074629492A
:1025E0000888FEF7EBFA2A49009007F069FE0546D5
:1025F000394607F065FE0446314607F0C7FD21491C
:10260000886022480830FEF70CF905461F48001D77
:10261000FEF707F906461B498868314607F050FE69
:102620000446294607F0B2FD1649C8608868194972
:1026300007F01CFE03D80220124988700CE01149F3
:102640008868154907F094FE03D201200D4988706F
:1026500002E000200B498870202101A8FEF7DFF876
:1026600008498868FEF7A4F9044622460B460BA1E8
:1026700001A8FDF791FF01AA0EA1002005F0F4F9D1
:1026800009B0F0BD94FAFF1F9D7F3B3D8E010020F5
:1026900082FFEF39CDCC6C400000C0414150505F0B
:1026A000476574446174615F43616C633A256620D9
:1026B0006D41000025730D0A0000000010B50120D7
:1026C00000F002FB00F072FA10BD000000487047F5
:1026D00094FAFF1F10B501F087F900F09FFA01206E
:1026E00000F002FB10BD000010B501200449087085
:1026F0000020886004F084FD0149486010BD00009E
:10270000A4FAFF1F10B504F07BFD08498860084655
:1027100080684968401A06D004480078022802D030
:102720000320024908700148007810BDA4FAFF1F79
:1027300070B504460D462946204606F023FF70BDBD
:1027400070B505460E4600242C46607809286FD0E7
:1027500008DC030006F024FB09463F22A72D385071
:102760005B62A700502810D008DC0A2865D04628F4
:102770003DD0472873D049286ED163E069287CD0CA
:102780006A286BD08828F7D172E0E078A27800023E
:1027900010430146201D06F058FB8AE0FFF72CFE8F
:1027A000E078A278000210430146201DFFF716FCD6
:1027B0007FE0FFF721FEE078A27800021043014697
:1027C000201DFFF737FC74E0FFF716FE3146284660
:1027D000FFF7BCFD6DE0FFF7EDFB31462846FFF744
:1027E000D5FE66E031462846FFF7D8FE61E0314667
:1027F0002846FFF7EBFB5CE0FFF7FEFDE078A278F0
:10280000000210430146201DFFF7E8FC51E0FFF7EE
:10281000F3FD31462846FFF79DFE4AE0E078A278B6
:10282000000210430146201DFFF716FD41E0FFE7BF
:1028300031462846FFF7A2FE3BE031462846FFF727
:102840006FFE36E0E078A278000210430146201DBA
:10285000FFF74AFE2DE002E025E00EE018E0E07808
:10286000A278000210430146201DFFF763FC20E020
:1028700031462846FFF75CFE1BE0FFF7BDFDE07820
:10288000A278000210430146201DFFF7BBFD10E0B7
:10289000FFF7B2FDE078A278000210430146201D48
:1028A000FFF724FD05E0627803A1002005F0DCF8C5
:1028B00000BF00BF70BD00006C6E50726F746F433C
:1028C0004D443A25580D0A000EB50E4903C9029130
:1028D00001900C4808300068009002F067F9002071
:1028E00002F0BCF800231A461946032001F0F2FF5B
:1028F0006946002002F0C4F802F01EF901A802F0B7
:102900002DF90EBD54A6000010B5002406F028FBDA
:10291000002803DD06F0ECFA044600E00124230061
:1029200006F03EFA065C04263B424F5C2DA10020D7
:1029300005F09AF8FFF744FB012805D17D21C90075
:10294000022000F0D1F812E006F09AFA012806D130
:10295000022006F0EBFA022000F0BCF807E00420A9
:1029600006F0E4FA7D21C900022000F0BDF836E04F
:1029700022A1002005F078F800F020FB01280BD1FF
:1029800006F0F8FA032006F0D1FA7D21C9000220F2
:1029900000F0AAF8FFF7A8FE21E006F0A9FB1DA1B0
:1029A000002005F061F81AE020A1002005F05CF895
:1029B00006F00AFC052006F0B9FA022000F08AF8B9
:1029C0000DE021A1002005F04FF806F0CFFA01201C
:1029D00006F0ACFA022000F07DF800E000BF00BF76
:1029E00010BD00004170705472616E736665725F55
:1029F000436865636B54696D650D0A0041707054DE
:102A000072616E736665725F53656E645265710DB7
:102A10000A0000004150505472616E736665725F27
:102A200053656E64526573700D0A000041707054F6
:102A300072616E736665725F5365724E6578745429
:102A4000696D650D0A0000004170705472616E730B
:102A50006665725F4C6F77506F7765720D0A000084
:102A600010B5044621460248007804F013FC10BD5E
:102A7000C3F9FF1F10B50446044804707D22D2003C
:102A80000221007804F06AFC10BD0000C3F9FF1FAA
:102A900070B505460C46E007C00F002809D00B4A68
:102AA00001210B48007804F059FC204601214840E0
:102AB00070BD02202040002805D0FFF725FF2046EA
:102AC00002214840F4E70020F2E7000088130000EC
:102AD000C3F9FF1F10B5044621460248007804F0F0
:102AE000F3FB10BDC3F9FF1F70B504460D462A461F
:102AF00021460248007804F031FC70BDC3F9FF1F85
:102B000010B5044621460248007804F037FC10BD99
:102B1000C3F9FF1F38B501F093FD0446224619A101
:102B2000002004F0A1FF02F041F81A4802F016F864
:102B300020216846017000214170817069460020A3
:102B400001F09EFF012001F089FF2A21124805F0C3
:102B5000D9F805F0C3F8104805F0E0F805F0AEF834
:102B600001F06EFD0446224606A1002004F07CFF21
:102B7000094805F0C9F8FFF7A7FE08A1002004F0F6
:102B800073FF38BD6D63675F6D6F6465203A202504
:102B9000640D0A0044A6000000E00740424F415285
:102BA000445F57616B6555700D0A00001FB5012227
:102BB0000221124804F034FC0021684641700121D2
:102BC00001706A4602210E4803F0FEFB00216846B0
:102BD000817101A90B48FFF7BDF80A48FEF740FFD5
:102BE0000948020C094BD1180A68012383409A4313
:102BF0000A6000BF0F2003F049FA1FBD00B0044077
:102C000080F00F4000B003401B003C1000700440F7
:102C100001460148408A70475800002000B585B041
:102C2000244801F02BFB00220221234804F0F8FB8A
:102C3000224801F023FB02A8FEF7FEFF00216846B0
:102C400041730321017302A91D48FFF783F81C4853
:102C5000FEF71CFF0020009001900B200090002147
:102C600068464171012101716A4600211448FFF74D
:102C7000EFF80F2003F03AFA0120002806D010499F
:102C8000096A402211430E4A116205E00C49096AA3
:102C9000402291430A4A116200BF88200949886195
:102CA00000200749886200BF00210548FFF724F98A
:102CB00005B000BD0B00381000B004401B003C10F4
:102CC00000B003400080044010B50446002C02D040
:102CD000012C06D102E006F0A5FD03E006F010FE8F
:102CE00000E000BF00BF10BD10B50446002C02D0AC
:102CF000012C06D102E006F097FD03E006F028FE65
:102D000000E000BF00BF10BD70B504460D4610487E
:102D10000178001D4454001F0078401C0C490870C5
:102D200008468078401C88700A46D1781078FDF7F4
:102D30009BFDC8B206490870002D04D00A2104206A
:102D400004F048FA02E0042004F03AFA70BD0000F2
:102D50009AF9FF1F70B505460C461549097865229A
:102D60005143134A121D881822462946FDF7F8FCE4
:102D70000F480078652148430D49091D401860300F
:102D80000471081F0078401C091F087008468078ED
:102D9000401C88700A46D1781078FDF765FDC8B2EE
:102DA0000349087000210820FFF7AEFF70BD000046
:102DB0005CF8FF1F10B500F005FA01F093F906F07A
:102DC00043FB00200649087088704870022004F018
:102DD00085F9042004F082F9082004F07FF910BD81
:102DE0009AF9FF1F70B50024002504214D4803F017
:102DF0002DFB012803D100204B4908701AE04A48F6
:102E00000078FA2810DD00204749087047A104F037
:102E10002BFE042004F062F9042004F0E7F906F028
:102E2000FDFA022004F0CCF93F480078401C3E49EE
:102E3000087070BD00F0EAF80446230005F0B0FF0A
:102E40000A06070C1F396D446D5B6A6D66E03BA195
:102E5000002004F009FE61E03CA1002004F004FE23
:102E60004B21C901002001F0EBF806F0DFFA142134
:102E70000320FFF749FF04F0CDF905464EE039483D
:102E8000007800280ED104F0C5F9401B642804D94D
:102E900000210220FFF738FF0AE014210320FFF78A
:102EA00033FF05E000202F4908702FA104F0DCFD5E
:102EB00034E033A1002004F0D7FD06F073FC1421A8
:102EC0000320FFF721FF29E033A1002004F0CCFD0F
:102ED000012000F031FAE1214902002001F0B0F8B0
:102EE0000220FFF7F7FD7D23DB00322203210020C3
:102EF00000F090FB12E02DA1002004F0B5FD64234A
:102F000032220221002000F085FB14210920FFF766
:102F1000FBFE03E006F0FAFB00E000BF00BF00BFCD
:102F200087E7000000F00F40A9F9FF1F4155585FE7
:102F300074696D656F75740D0A0000004533325F6A
:102F4000434D445F524553540D0A00004533325FF0
:102F5000434D445F474554434F4E465F5265710DA4
:102F60000A000000A8F9FF1F4533325F434D445F5C
:102F7000474554434F4E465F526573700D0A00003B
:102F80004533325F434D445F534554434F4E465F94
:102F90005265710D0A0000004533325F434D445FB6
:102FA000434F4E465F4F4B0D0A0000004533325FE2
:102FB000434D445F53454E440D0A000001480078DC
:102FC0007047000099F9FF1F10B506F071FA002054
:102FD00001F021F800F0F6F8052001F00FF800F0FC
:102FE000FBF8012001F00AF804A1002004F03CFDE8
:102FF00000210220FFF788FE10BD00004253505F01
:103000004533325F496E69740D0A000010B5002423
:103010000D488078002814DD0B484178001D445C81
:10302000001F4078401C0849487008468078401EC0
:1030300088700A46D1785078FDF716FCC8B202496C
:103040004870204610BD00009AF9FF1FF0B587B008
:10305000044600BF00BF00BF00BF00BF00BF00BFED
:1030600000BF00BF00BF60780002A178401885B2A1
:10307000E078C02108408611E07838210840C71068
:10308000E0784007400F0690207905906079802114
:103090000840C011029060794021084080110190E1
:1030A000607938210840C010009060790421084000
:1030B0008010049060798007800F03902849487D34
:1030C000097D00020843A8422BD12548007EB0426A
:1030D00027D12348407EB84223D12148817E0698DB
:1030E00081421ED11E48C17E0598814219D11C48DB
:1030F000017F0298814214D11948417F0198814291
:103100000FD11748817F009881420AD11448C17FAE
:103110000498814205D112481430017B0398814202
:1031200008D010A1002004F09FFC00210420FFF72C
:10313000EBFD03E000210620FFF7E6FD2A4610A183
:10314000002004F091FC0649487D097D00020843F7
:10315000024610A1002004F087FC07B0F0BD00007B
:10316000690100204533322068617320536F6D651B
:1031700020646966666572656E740D0A0000000061
:103180004C6F63616C416464723A253034580D0AA7
:1031900000000000675F4C6F63616C416464723AC9
:1031A000253034580D0A000010B506F081F900F002
:1031B00013F800F0C3FF012000F0BEF8042003F074
:1031C000FFFF10BD10B501221321024803F04EF994
:1031D00010BD000000F10F4010B50022132102487D
:1031E00003F044F910BD000000F10F4030B599B074
:1031F0000020234908702348027923A1002004F00D
:1032000033FC27A1002004F02FFC002408E01D4817
:103210006038025D25A1002004F026FC601CC4B2C9
:1032200018480079A042F2DC22A1002004F01CFC26
:103230000025144805790279014660396846FDF792
:103240008FFA00210F480171FFF7B8FE042807D15B
:1032500001201949087029466846FFF7F7FE0DE07E
:10326000FFF7ACFE012809D129466846FFF760FA4E
:1032700096230A220321002000F0CCF919B030BDBA
:1032800098F9FF1F640100204253505F4533325FBD
:10329000526576206C656E3A25640D0A00000000C8
:1032A00056616C75653A0D0A000000002025582013
:1032B000000000000D0A0000A8F9FF1F10B5044629
:1032C0000C4801790079401CC2B20A48027160388A
:1032D0004454084908796421FDF7BCFA0548017196
:1032E00005480078002803D10A21082003F072FF66
:1032F00010BD00006401002098F9FF1FFFB581B0E8
:103300000E4617461D460B4C69460879000249795E
:1033100008432070000A6070A6702A463946E01CF7
:10332000FDF71EFAE81C81B22046FFF713FD05B039
:10333000F0BD0000A000002010B50446012C06D00E
:10334000022C16D0032C26D0042C48D135E025A120
:10335000002004F089FB00220721284803F086F8AA
:1033600000220621254803F081F801202449087035
:1033700036E024A1002004F077FB012207211F483A
:1033800003F074F8002206211C4803F06FF80220B5
:103390001B49087024E021A1002004F065FB0022F5
:1033A0000721164803F062F801220621134803F0B2
:1033B0005DF803201249087012E01FA1002004F0FC
:1033C00053FB012207210D4803F050F8012206218A
:1033D0000A4803F04BF804200949087000E000BFD8
:1033E00000BF10BD45333220456E746572204E6FAC
:1033F000726D616C204D6F64650D0A00C0F00F4066
:1034000099F9FF1F45333220456E7465722057616C
:103410006B657570204D6F64650D0A004533322071
:10342000456E746572204C6F77706F776572204DB2
:103430006F64650D0A00000045333220456E7465E7
:103440007220536C656570204D6F64650D0A000035
:1034500070B504460D462A462146002000F01CFEA9
:1034600070BD00000EB5002002900190009014483D
:1034700002F0DAFE02AA0421114802F0A1FE01AA1C
:1034800001210F4802F09CFE6A4600210C4802F020
:1034900097FE0CA1002004F0E7FA11A1002004F02F
:1034A000E3FA0198820A034613A1002004F0DCFA33
:1034B0000098820A03461DA1002004F0D5FA0EBD33
:1034C0006C0000200D0A2050466C6173682045781E
:1034D000616D706C65205374617274200D0A000078
:1034E0000D0A2050466C61736820496E666F726DDC
:1034F0006174696F6E3A20000D0A20546F74616C1C
:103500002050726F6772616D20466C617368205342
:10351000697A653A092564204B422C204865783A3F
:10352000202830782578290D0A0000000D0A205047
:10353000726F6772616D20466C61736820536563BA
:10354000746F722053697A653A092564204B422CC6
:10355000204865783A20283078257829200D0A00FF
:1035600010B50346002000BF03E01C5C0C54441C53
:10357000A0B29042F9DB10BD70B5FFB0FFB082B0D1
:1035800004460D461646012189026846FDF747F9B3
:103590000122920269462046FFF7E2FF32462946A1
:1035A0006846FDF7DDF872B6094B0122920221460A
:1035B000084802F0ADFD01239B026A4621460548FA
:1035C00002F0AAFE62B600207FB07FB002B070BDEC
:1035D0006B66656B6C00002001460020002902D05C
:1035E00001290FD108E000BF0022084BDA601A461B
:1035F000D26892B2104606E000BF054A526892B205
:10360000104600E000BF00BF70470000000004400B
:1036100000800340FFB581B00D4616461F46002EC0
:1036200025D0002F23D0019800011249441820789A
:10363000022801DA2078207300202070A780A6706D
:103640006570002D03D1207804210843207003F019
:10365000E1FDA06020780221084320700648007830
:1036600003F08CFE02210448007803F02DFE05B023
:10367000F0BD0000C8FFFF1FC0F9FF1F70B5044672
:1036800018236343084D5B195A7D182363435B1964
:10369000D968182363435B19986802F0DDFE0020A7
:1036A0002101024A505470BDF4A50000C8FFFF1F5D
:1036B00070B5002400BF46E018216143234A5058EA
:1036C000020C234BD1180A68012383401A430A6075
:1036D00000BF182363431D4D5B19586818236343CB
:1036E0005B19D968182363435B191A7C8B00C35894
:1036F00007252D02AB4315020726360235402B4322
:103700008D00435100BF18236343104D5B191A46C7
:103710001132182363435B19D968182363435B197B
:10372000986802F051FE182363435B195A7D1823F1
:1037300063435B19D968182363435B19986802F0E7
:103740008BFE601CC4B2012CB6DB70BDF4A500007A
:103750000070044070B5044618236343084D5B199C
:103760001A7D182363435B19D968182363435B19D7
:10377000986802F071FE01202101024A505470BD88
:10378000F4A50000C8FFFF1F10B50446200107493B
:10379000085CC007C00F002803D02046FFF76EFF6B
:1037A00002E02046FFF7D6FF10BD0000C8FFFF1F54
:1037B000FEB50025A4E028015749441820780221CD
:1037C0000840002878D003F025FD0646A168B142E4
:1037D00073D82078C007C00F002821D0A0786421BA
:1037E000081AC0B2019020784008400020701820CC
:1037F00068434A4BC018427D18206843C018C1680E
:1038000018206843C0188068009002F025FE2078D8
:1038100004210840002826D16078401E607022E014
:103820006078002809D1207804210840002804D1BC
:10383000207802214840207015E0A078019020787F
:1038400001210843207018206843344BC018027DC2
:1038500018206843C018C16818206843C0188068E1
:10386000009002F0F9FD20780221084000280CD0D9
:10387000A188019A514308466421FCF7EBFF80B20E
:10388000029002983018A0602FE000200290207B68
:10389000002813D018216943204BC9180A7D18212C
:1038A0006943C918C968009118216943C918886813
:1038B000009902F0D1FD11E020E012E018206843E9
:1038C000164BC018427D18206843C018C1681820E4
:1038D0006843C0188068009002F0BEFD002020738D
:1038E00003E02089801B80B20290002F05D002984F
:1038F000002803D00298B84200DA029F681CC5B2C3
:10390000012D00DA57E7002F05D03A46022104487E
:10391000007803F023FDFEBDC8FFFF1FF4A50000E3
:10392000C0F9FF1F10B50DA1002004F09DF8002084
:10393000FFF7A4FEFEF7C2FEFFF73CFA00F0FCFA28
:1039400000F048F8FFF7E6F800F04EF800F006FB4C
:10395000FFF72AFCFEF7BEFE10BD0000454E5445A1
:103960005220564C50530D0A0000000038B515483F
:10397000020C154BD1180A68012383401A430A60D0
:1039800000BF1248052101228B00C35807242402DE
:10399000A343140207252D022C4023438C0003511E
:1039A00000BF002168464170012101706A4605216F
:1039B000074802F009FD00220521054802F060FDDC
:1039C00038BD00000C0038100070044000C00440F6
:1039D000C0F00F4010B500220521024802F050FD52
:1039E00010BD0000C0F00F4010B5012205210248B3
:1039F00002F046FD10BD0000C0F00F4030B587B0AA
:103A00000446002C00D004E0E6221CA120A005F012
:103A1000EBF91C2221496846FCF754FD2088204917
:103A2000401AFF216E31484305462088C117890F8F
:103A300009188910FF39ED394D19A0784000694601
:103A4000085A4519E078401E451920788007800FF4
:103A5000002803D1A078022800D86D1E11486843C1
:103A60002179E12212015143411860793C225043EF
:103A70000818A1794518284607B030BD2E2E5C6283
:103A800073705C6273705F7274632E630000000079
:103A90006461746574696D65000000000CA6000027
:103AA000B207000080510100F3B585B00C46002C30
:103AB00000D004E09F222EA132A005F095F934A099
:103AC00001460EC9C0686D460EC503900598049066
:103AD00033490498FCF7BEFE461C31490498FCF7B4
:103AE000B9FE0491E12109010498FCF7B3FE2071AD
:103AF000E12109010498FCF7ADFE04913C210498F2
:103B0000FCF7A8FE60713C210498FCF7A3FEA171AC
:103B1000FF276E37234820800DE0F61B2088401CCD
:103B2000208020788007800F002802D0FF276E3782
:103B300001E0FF276F37BE42EFD820788007800F63
:103B4000002802D11D2069468870012509E06846D9
:103B5000405DB04201D3A57005E06846405D361A6D
:103B60006D1C0C2DF3D900BFE67007B0F0BD00004E
:103B70002E2E5C6273705C6273705F7274632E636E
:103B8000000000006461746574696D6500000000E8
:103B9000001F1C1F1E1F1E1F1F1E1F1E1F000000B8
:103BA00080510100B2070000014800687047000022
:103BB00000D0034010B504462146024803F0BEFD84
:103BC00010BD000000D0034030B587B00020049045
:103BD00005900690029003902F4800F043FB2F4879
:103BE00001210A468B00C35807242402A343140270
:103BF00007252D022C4023438C00035100BF0021D8
:103C00006846017101AA0121254802F0DDFB254823
:103C100000F028FB02202449096803229204914302
:103C2000820403239B041A4011431F4A116000BF02
:103C300004A803F0B1FD04A91C4803F005FE01210E
:103C400089021A4A10690F239B0202469A431046C2
:103C500002460A431046154A106100BF14496846DF
:103C60000181012181720221C172032101730421AA
:103C700041730521817302A9104603F051FE04210E
:103C80000A4803F057FD142002F01EFA074803F01B
:103C90007BFE07B030BD00000B00381000B00440C0
:103CA00080F00F401D003C100070044000D0034025
:103CB000E40700000021044A1168884200D27047DE
:103CC000014A906000BFFAE700D0034010B50446F7
:103CD000054803F05EFE2146034803F021FE02483A
:103CE00003F052FE10BD000000D003400148006800
:103CF0007047000058F8FF1F02480068401C014947
:103D00000860704758F8FF1F10B5002000F0EEFB68
:103D1000044622462FA1002003F0A6FE012000F059
:103D2000E5FB0446224631A1002003F09DFE02205F
:103D300000F0DCFB0446224631A1002003F094FE93
:103D4000042000F0D3FB0446224632A1002003F0F9
:103D50008BFE052000F0CAFB0446224633A100205A
:103D600003F082FE082000F0C1FB0446224636A183
:103D7000002003F079FE092000F0B8FB044622463B
:103D800038A1002003F070FE0A2000F0AFFB0446CB
:103D900022463CA1002003F067FE0B2000F0A6FBAA
:103DA000044622463DA1002003F05EFE0D2000F0F7
:103DB0009DFB044622463FA1002003F055FE07204C
:103DC00000F094FB044622463FA1002003F04CFE85
:103DD00010BD00006B434C4F434B5F436F72655304
:103DE0007973436C6B3A25640D0A00006B434C4FAA
:103DF000434B5F506C6174436C6B3A25640D0A0051
:103E00006B434C4F434B5F427573436C6B3A256475
:103E10000D0A00006B434C4F434B5F466C61736867
:103E2000436C6B3A25640D0A000000006B434C4F55
:103E3000434B5F506C6C466C6C53656C436C6B3AD7
:103E400025640D0A000000006B434C4F434B5F4D4F
:103E50006367466978656446726571436C6B3A25A1
:103E6000640D0A006B434C4F434B5F4D6367496ED3
:103E70007465726E616C526566436C6B3A25640DB5
:103E80000A0000006B434C4F434B5F4D6367466C29
:103E90006C436C6B3A25640D0A0000006B434C4F79
:103EA000434B5F4D6367506C6C30436C6B3A2564D9
:103EB0000D0A00006B434C4F434B5F4C706F436CDB
:103EC0006B3A25640D0A00006B434C4F434B5F4F28
:103ED0007363304572436C6B3A25640D0A00000031
:103EE00000B587B000200590069005A90A4803F0A8
:103EF00025FC6846817E427E037EC07D019302924E
:103F0000039100906846837D828A04A1002003F01B
:103F1000ABFD07B000BD000000D003402564202E9B
:103F2000202564202E202564202025643A25643A2B
:103F300025640D0A0000000005480649086148177D
:103F4000C206D20E01219140034A116000BF7047A2
:103F50000600010000E000E080E100E070B5002014
:103F600000F0C4FA05467D21C900FCF773FC044645
:103F7000601E0949884200D90CE0601E074948616B
:103F80000321081F03F06EF8002004498861072010
:103F9000086100BF70BD0000FFFFFF0000E000E00F
:103FA00010B500F003FE0F4800F054FC0D490868FE
:103FB0000D49086000BF0D49087900F02DF90B4A42
:103FC000D21D0021084600F0E5F8084BDA78997810
:103FD000587800F0EDFC064800F0C0FD05480649A1
:103FE000086010BD3CA600000CF8FF1F28A60000CA
:103FF00034A60000006CDC0200F8FF1F00B501468B
:104000000022FFF773FE024600BFFFF76FFE801A23
:104010008842FAD300BD10B50446002C04D0012C10
:1040200005D0022C09D105E005F024FD06E005F0DD
:104030008BFD03E005F0EAFD00E000BF00BF10BD0E
:1040400070B504460D46002C04D0012C18D0022C6B
:104050001CD118E0002000F049FA064632462946F5
:104060000C4802F07FFC01210A4802F0EDFA012120
:104070004903084802F0D8FA0C2002F019F806E0CB
:1040800005F062FD03E005F0C1FD00E000BF00BFE8
:1040900070BD000000A006407CB504460E461546E3
:1040A00000960195002C04D0012C08D0022C0DD1D3
:1040B00006E06A460749084802F0E4FD07E006E02A
:1040C0006A460649064804F00BFB00E000BF00BF4B
:1040D0007CBD0000F8FFFF1F00A006403800002054
:1040E00000C0064008B5114802F082FA0122022100
:1040F0000F4803F087F900216846417001706A4655
:1041000002210C4802F060F901221146084803F030
:1041100079F900216846417001706A46012105481D
:1041200002F052F9044800F085F808BD00A00640EE
:104130000090044000F00F400900381010B5002036
:10414000FFF769FFE12149020020FFF779FF10BD69
:1041500010B504F017FC0446224607A1002003F026
:1041600083FCFFF731FDFFF77DF9FFF7FFFB02202E
:10417000FFF751FF10BD000056657273696F6E3A0C
:1041800025730D0A0000000010B5FFF709FFFFF7C7
:10419000BBFD10BD70B506460D461446002C00D080
:1041A00004E00E4A0EA119A004F01EFE304600F0F5
:1041B0008DFB2146284600F063FC16480078C0219C
:1041C00088431449087000BF124880790C210840C8
:1041D00080080328F8D1002070BD0000F40500001D
:1041E0002E2E5C636F6D706F6E656E74735C4D4BDD
:1041F0004C31365A345C647269766572735C6673EE
:104200006C5F636C6F636B2E63000000636F6E66A0
:10421000696700000040064005490978382291434B
:10422000C20038231A401143014A11707047000040
:1042300000400640020C044BD1180A680123834059
:104240001A430A607047000000700440020C044BDF
:10425000D1180A68012383401A430A60704700009E
:1042600000700440020C044BD1180A6801238340FB
:104270001A430A607047000000700440020C044BAF
:10428000D1180A68012383401A430A60704700006E
:1042900000700440020C044BD1180A6801238340CB
:1042A0001A430A60704700000070044070B504466D
:1042B000002C00D004E0124A12A11DA004F094FDCD
:1042C00000256078C006C00E05431B480571407983
:1042D00040094001A178C906C90E08431649487132
:1042E0000846007921784022114308431249087199
:1042F00000BF11488079402108400028F9D070BDE6
:10430000DF0200002E2E5C636F6D706F6E656E7441
:10431000735C4D4B4C31365A345C6472697665720D
:10432000735C66736C5F636C6F636B2E630000007D
:10433000636F6E66696700000040064010B516485E
:104340000068032189040840800C002804D002285A
:104350000CD003281BD117E000F0AEF90121C903EE
:10436000884200D100E00020044612E00B480068BB
:10437000002800D005E0FF22693209A113A004F053
:1043800033FD0648046804E07D24E40001E00024D5
:1043900000BF00BF204610BD0070044010F8FF1F92
:1043A0002E2E5C636F6D706F6E656E74735C4D4B1B
:1043B0004C31365A345C647269766572735C66732C
:1043C0006C5F636C6F636B2E63000000675F7874D3
:1043D000616C3332467265710000000010B500F068
:1043E00073F80446002C06D000F0B0F9C008A042D3
:1043F00001D3204610BD0020FCE7000070B500F09E
:10440000F3F80546002D01D1284670BD1748007805
:1044100038210840C4082846E04005461348407843
:10442000302108400609002E1DD0230004F0B8FCFE
:104430000805060708090A0C121800BF00BF00BFD4
:1044400000BF00BF6D090DE014212846FCF702FAF9
:10445000054607E00C212846FCF7FCF9054601E07B
:10446000002500BF00BF2846CFE7000000400640FF
:1044700070B51348407802210840002805D1104843
:10448000807920210840002801D0002070BD00F074
:104490001BF80446002C01D12046F7E70848C078F5
:1044A0006021084045090648C07880210840C609B7
:1044B000A800044940187100405A6043E6E7000034
:1044C0000040064008A5000010B50648807910217C
:1044D00008400009002802D1FFF790FF10BD0248F4
:1044E0000068FBE70040064004F8FF1F70B5054672
:1044F0002B0004F055FC0E0809154C162D314835DB
:10450000393D414C454C00BF00F020F90646224899
:104510004068000F411C3046FCF79CF9044638E027
:1045200000BF00F013F906461B484068000F411C0D
:104530003046FCF78FF904461748406807221204FA
:104540001040000C411C2046FCF784F9044620E092
:1045500000F064F904461CE0FFF7F0FE044618E0A2
:10456000FFF73CFF044614E000F018F8044610E0A2
:10457000FFF77EFF04460CE000F008F9044608E06F
:104580007D24E40005E000F097F8044601E00024F3
:1045900000BF00BF204670BD4080044010B50548F4
:1045A000007802210840002800D110BD00F004F876
:1045B000FBE700000040064008488079C007C00FB4
:1045C000002802D10648006870470448007A0E218E
:1045D0000840410803480068C840F5E7004006402D
:1045E00004F8FF1F08F8FF1F10B5064800680028F0
:1045F00000D004E0E12204A10EA004F0F5FB014884
:10460000006810BD0CF8FF1F2E2E5C636F6D706F7D
:104610006E656E74735C4D4B4C31365A345C64720B
:1046200069766572735C66736C5F636C6F636B2E27
:1046300063000000675F7874616C304672657100DA
:1046400070B508201B4DAD790C263540AA08194DD0
:10465000AD79102635402B09164D6D780226354070
:104660006908144DAD79202635406C09002A06D022
:10467000012A0AD0022A0ED0032A18D115E0002BF5
:1046800001D1032000E0002012E0002901D0022027
:1046900000E001200CE0002901D0052004E0012CFD
:1046A00001D1062000E0042002E0072000E000BF66
:1046B00000BF70BD0040064010B50B480078802157
:1046C000084000280DD009480068002800D005E007
:1046D000FF22553206A111A004F086FB03480068B2
:1046E00010BD0020FCE70000005006400CF8FF1F42
:1046F0002E2E5C636F6D706F6E656E74735C4D4BC8
:104700004C31365A345C647269766572735C6673D8
:104710006C5F636C6F636B2E63000000675F78747F
:10472000616C3046726571000146064A914201D8BB
:10473000002005E0044A914201D8012000E0022057
:10474000704700009798000000127A0010B50E49DB
:1047500089790C2211408C08002C08D0012C09D03A
:10476000022C0AD0032C0BD100F010F80AE0FFF75E
:104770007FFE07E0FFF720FF04E0FFF735FF01E0D1
:10478000002000BF00BF10BD0040064010B5124819
:10479000807940210840002800D110BD00F03AF88F
:1047A0000446002C00D005E08F2292000BA116A039
:1047B00004F01AFB08480079C006C00E411C2046D0
:1047C000FCF748F8044604484079C006C00E18308B
:1047D00044432046E1E70000004006402E2E5C6383
:1047E0006F6D706F6E656E74735C4D4B4C31365AE5
:1047F000345C647269766572735C66736C5F636C5B
:104800006F636B2E630000006D6367706C6C3063C8
:104810006C6B000010B5FFF7E7FE10BD10B50C483B
:104820004068012109040840000C002802D001283A
:1048300009D103E0FFF71CFE044606E0FFF7A6FFE0
:104840000446640801E0002400BF00BF204610BDFC
:104850000080044070B504462068FFF765FF0546F8
:10486000184822790178090909010B4613431946B2
:10487000017000BF00BF0178A0230A469A43114689
:10488000A2791143017000BF0F4840783C21884352
:104890002901302211400843617908430A494870D0
:1048A000607900280CD00748007880210840002853
:1048B00006D000BF04488079022108400028F9D0C2
:1048C00070BD000000500640004006400146002038
:1048D00070470000FFB581B006460F461C46002019
:1048E000009032484079402188433049487100BFE8
:1048F0002E488079202108400028F9D12B484078A3
:1049000002218843294948700846C57880791021DA
:1049100008400009002807D0012000902348C078F3
:10492000202148402149C87020480078FC21884354
:10493000F100382211408022114308431B490870BE
:104940000846407804210840002806D000BF1748D8
:104950008079022108400028F9D000BF13488079EF
:104960001021084000090028F8D10098002801D043
:104970000E48C570F8018021084003994901602262
:1049800011400843E022294691430843054600BFF1
:10499000064880790C21084080080228F8D1002CB4
:1049A00000D0A047002005B0F0BD00000040064048
:1049B000F8B50346284880790C26304084082648FC
:1049C0008079C507ED0F2448007A0E263040400854
:1049D00000900098824220D0012D14D1012C05D0E6
:1049E0001D4800780226304000280CD01A48407834
:1049F00040084000184E707000BF17488079C0070B
:104A0000C00F0028F9D11448007A2F26B043560071
:104A10000E273E403043104E30720F484078400819
:104A20004000CE07F60F30430B4E707030460078D2
:104A30008008800018433070012C03D002201840F9
:104A4000002806D000BF04488079C007C00F884204
:104A5000F9D10020F8BD000000400640002806D033
:104A60000649497802221143044A517005E003497E
:104A7000497802229143014A517070470040064034
:104A800070B505460C46002C00D004E01B4A1CA162
:104A900026A004F0A9F92748407802218843254937
:104AA000487008460078C421884380302149087046
:104AB00000BF204880791C2108400828F9D11D48F2
:104AC0004079402188431B49487100BF19488079CB
:104AD000202108400028F9D12046FFF7E7FB1548C0
:104AE0004079402108431349487100BF114880793B
:104AF000202108400028F9D0002070BD4B0500009F
:104B00002E2E5C636F6D706F6E656E74735C4D4BB3
:104B10004C31365A345C647269766572735C6673C4
:104B20006C5F636C6F636B2E63000000636F6E6677
:104B3000696700000040064007480078C0218843AC
:104B40000549087000BF044880790C21084080089E
:104B50000328F8D1002070470040064010B5114AE4
:104B60004168516001780F4A403A526801231B04A2
:104B70009A430B040124240423401A43094B403B6D
:104B80005A6000BF4178084A126803239B049A4385
:104B90008B040324A40423401A43034B1A6000BF70
:104BA00010BD0000408004400070044001480249EC
:104BB000486070470000031040800440064949687F
:104BC000032212069143020603231B061A401143D7
:104BD000014A5160704700000080044070B50246F1
:104BE0000B460D48002113E0555C684000240BE0A3
:104BF000C507ED0F002D04D04510084E754028461E
:104C000000E04010651CACB2082CF1DB4D1CA9B2D1
:104C10009942E9DB70BD0000FFFF000001A0000029
:104C200010B50249086800F011FD10BDD4F9FF1F4E
:104C300010B54DA1002002F017FF00214F4800F0F1
:104C400089FC0002000A4E49884204D10246002134
:104C50004A4800F067FA0021484800F07BFC012137
:104C600009060840884209D14649474803F040FCFC
:104C7000012212060021414800F054FA00213F4869
:104C800000F068FC012149060840884204D1024630
:104C900000213A4800F046FA0021384800F05AFC5A
:104CA000012189060840884204D102460021334888
:104CB00000F038FA0021314800F04CFC01210907CE
:104CC0000840884204D1024600212C4800F02AFA0C
:104CD00001212A4800F03EFC0002000A28498842CF
:104CE00004D102460121254800F01CFA0121234885
:104CF00000F030FC012109060840884209D123490F
:104D0000234801F0C7FE0122120601211B4800F0D2
:104D100009FA0121194800F01DFC0121490608404B
:104D2000884204D102460121144800F0FBF9012118
:104D3000124800F00FFC012189060840884204D186
:104D4000024601210D4800F0EDF901210B4800F069
:104D500001FC012109070840884204D102460121D3
:104D6000064800F0DFF910BD444D41305F49525113
:104D700048616E646C65720D0A000000008000409E
:104D8000FFFFFF003800002000C00640F8FFFF1FB3
:104D900000A0064010B50249486800F057FC10BD5D
:104DA000D4F9FF1F10B50249886800F04FFC10BD10
:104DB000D4F9FF1F10B50249C86800F047FC10BDC8
:104DC000D4F9FF1F70B505460C46042C00D204E050
:104DD000642204A10EA004F007F8285D8021084396
:104DE000285570BD2E2E5C636F6D706F6E656E748E
:104DF000735C4D4B4C31365A345C64726976657223
:104E0000735C66736C5F646D616D75782E6800000D
:104E10006368616E6E656C203C2046534C5F46456E
:104E200041545552455F444D414D55585F4D4F4497
:104E3000554C455F4348414E4E454C0070B50546C4
:104E4000002406E0A00009490858A84200D102E069
:104E5000641C002CF6D000BF002C00D104E04C22D2
:104E600003A10EA003F0C0FF204670BD34A50000D2
:104E70002E2E5C636F6D706F6E656E74735C4D4B40
:104E80004C31365A345C647269766572735C667351
:104E90006C5F646D616D75782E630000696E73746C
:104EA000616E6365203C2041525241595F53495A1B
:104EB0004528735F646D616D757842617365732910
:104EC0000000000070B505462846FFF7B7FF8000D8
:104ED00005490C58210C054A881801680122A24096
:104EE0001143016000BF70BD38A500000070044090
:104EF00070B505460C461646042C00D204E082220A
:104F000005A110A003F070FF285D80098001B106A3
:104F1000890E0843285570BD2E2E5C636F6D706F2F
:104F20006E656E74735C4D4B4C31365A345C6472F2
:104F300069766572735C66736C5F646D616D7578BC
:104F40002E6800006368616E6E656C203C204653DD
:104F50004C5F464541545552455F444D414D55586F
:104F60005F4D4F44554C455F4348414E4E454C00C4
:104F700010B50446002C00D005E0FF22153213A125
:104F80001CA003F031FF2068FF30013021790901B6
:104F90004018C0680121890788432168FF31013129
:104FA000227912018918C8602068FF300130217908
:104FB0000901401881680120000601432068FF3084
:104FC0000130227912018018816010BD2E2E5C63A1
:104FD0006F6D706F6E656E74735C4D4B4C31365AED
:104FE000345C647269766572735C66736C5F646D61
:104FF000612E630068616E646C6520213D204E5512
:105000004C4C000070B505460C461646042C00D2E8
:1050100005E0FF22DA320AA113A003F0E5FE002E1C
:105020000CD02101E81DF93008188068012109061B
:1050300008432201E91DF9315118886070BD000054
:105040002E2E5C636F6D706F6E656E74735C4D4B6E
:105050004C31365A345C647269766572735C66737F
:105060006C5F646D612E68006368616E6E656C20B4
:105070003C2046534C5F464541545552455F444D94
:10508000414D55585F4D4F44554C455F4348414E47
:105090004E454C0070B505460C461646042C00D211
:1050A00005E0FF22DA320AA113A003F09DFE002ED4
:1050B0000CD02101E81DF93008188068012109068B
:1050C00008432201E91DF9315118886070BD0000C4
:1050D0002E2E5C636F6D706F6E656E74735C4D4BDE
:1050E0004C31365A345C647269766572735C6673EF
:1050F0006C5F646D612E68006368616E6E656C2024
:105100003C2046534C5F464541545552455F444D03
:10511000414D55585F4D4F44554C455F4348414EB6
:105120004E454C0070B505460C461646042C00D280
:1051300005E0FF22DA320AA113A003F055FE002E8B
:105140000CD02101E81DF9300818806801210906FA
:1051500008432201E91DF9315118886070BD000033
:105160002E2E5C636F6D706F6E656E74735C4D4B4D
:105170004C31365A345C647269766572735C66735E
:105180006C5F646D612E68006368616E6E656C2093
:105190003C2046534C5F464541545552455F444D73
:1051A000414D55585F4D4F44554C455F4348414E26
:1051B0004E454C00F7B504461546002C00D004E0DF
:1051C000A32218A121A003F00FFE042D00D204E0B9
:1051D000A42214A121A003F007FE0020206060603B
:1051E000A060E060019820602571019800F0EEF960
:1051F0000646B0004719B80023490C50B100234AB5
:105200008918C8577F21C943884200D108E000BFF0
:10521000C206D20E012191401D4A116000BF00BF9D
:10522000FEBD00002E2E5C636F6D706F6E656E7438
:10523000735C4D4B4C31365A345C647269766572DE
:10524000735C66736C5F646D612E630068616E648D
:105250006C6520213D204E554C4C00006368616E0A
:105260006E656C203C2046534C5F46454154555278
:10527000455F444D415F4D4F44554C455F43484168
:105280004E4E454C00000000D4F9FF1F30A5000031
:1052900000E100E070B505460C46042C00D205E0A4
:1052A000FF22793208A112A003F09EFD2101E81D22
:1052B000F9300818C068410049082201E81DF9309A
:1052C0001018C16070BD00002E2E5C636F6D706F92
:1052D0006E656E74735C4D4B4C31365A345C64723F
:1052E00069766572735C66736C5F646D612E6800CD
:1052F0006368616E6E656C203C2046534C5F46458A
:1053000041545552455F444D414D55585F4D4F44B2
:10531000554C455F4348414E4E454C0070B50546DF
:105320000C46042C00D205E0FF22793208A112A01D
:1053300003F05AFD2101E81DF9300818C06841004A
:1053400049082201E81DF9301018C16070BD000045
:105350002E2E5C636F6D706F6E656E74735C4D4B5B
:105360004C31365A345C647269766572735C66736C
:105370006C5F646D612E68006368616E6E656C20A1
:105380003C2046534C5F464541545552455F444D81
:10539000414D55585F4D4F44554C455F4348414E34
:1053A0004E454C0070B505460C461646042C00D2FE
:1053B00005E0FF225F320BA114A003F015FD2101CF
:1053C000E81DF9300818C0680121C9058843F105B6
:1053D0000122D205114008432201E91DF93151187B
:1053E000C86070BD2E2E5C636F6D706F6E656E74DD
:1053F000735C4D4B4C31365A345C6472697665721D
:10540000735C66736C5F646D612E68006368616EC7
:105410006E656C203C2046534C5F464541545552C6
:10542000455F444D414D55585F4D4F44554C455F88
:105430004348414E4E454C0070B505460C46164655
:10544000042C00D205E0FF223D320BA114A003F092
:10545000CBFC2101E81DF9300818C068012149077B
:105460008843710701225207114008432201E91DB8
:10547000F9315118C86070BD2E2E5C636F6D706F6E
:105480006E656E74735C4D4B4C31365A345C64728D
:1054900069766572735C66736C5F646D612E68001B
:1054A0006368616E6E656C203C2046534C5F4645D8
:1054B00041545552455F444D414D55585F4D4F4401
:1054C000554C455F4348414E4E454C0070B505462E
:1054D0000C46042C00D205E0FF226C3208A112A079
:1054E00003F082FC2101E81DF9300818C068012191
:1054F000C90708432201E91DF9315118C86070BD80
:105500002E2E5C636F6D706F6E656E74735C4D4BA9
:105510004C31365A345C647269766572735C6673BA
:105520006C5F646D612E68006368616E6E656C20EF
:105530003C2046534C5F464541545552455F444DCF
:10554000414D55585F4D4F44554C455F4348414E82
:105550004E454C0070B505460C46042C00D205E0C3
:10556000FF22CB3204A10EA003F03EFC2101E81D76
:10557000F9300818806870BD2E2E5C636F6D706FF7
:105580006E656E74735C4D4B4C31365A345C64728C
:1055900069766572735C66736C5F646D612E68001A
:1055A0006368616E6E656C203C2046534C5F4645D7
:1055B00041545552455F444D414D55585F4D4F4400
:1055C000554C455F4348414E4E454C0070B505462D
:1055D000002406E0A00009490858A84200D102E0D2
:1055E000641C002CF6D000BF002C00D104E0522235
:1055F00003A10DA003F0F8FB204670BD28A5000014
:105600002E2E5C636F6D706F6E656E74735C4D4BA8
:105610004C31365A345C647269766572735C6673B9
:105620006C5F646D612E6300696E7374616E636597
:10563000203C2041525241595F53495A4528735FDB
:10564000646D61426173657329000000F8B504461A
:10565000002C00D005E0FF221E3215A11EA003F091
:10566000C3FB257901273F062668042D00D206E0FA
:10567000FF22DA321C490846283003F0B5FB002F20
:105680000CD02901F01DF9300818806801210906A5
:1056900008432A01F11DF9315118886000BFA06844
:1056A000002803D02046A268E1689047F8BD0000BA
:1056B0002E2E5C636F6D706F6E656E74735C4D4BF8
:1056C0004C31365A345C647269766572735C667309
:1056D0006C5F646D612E630068616E646C6520218F
:1056E0003D204E554C4C0000B85C000070B505469E
:1056F0002846FFF76BFF800005490C58210C054A2E
:10570000881801680122A2401143016000BF70BDEA
:105710002CA5000000700440FFB581B004460F4680
:1057200015460A9E002C00D004E0BF2237A141A0FC
:1057300003F05AFB002F00D004E0C02233A141A0A7
:1057400003F052FB0498002800D004E0C1222FA1EE
:1057500040A003F049FB012D03D0022D01D0042D00
:1057600000D104E0C22229A13FA003F03DFB012E9D
:1057700003D0022E01D0042E00D104E0C32223A1C5
:1057800048A003F031FB2760049860600B98E0604C
:10579000012D04D0022D05D0042D09D105E00120F2
:1057A000607206E00220607203E00020607200E098
:1057B00000BF00BF012E04D0022E05D0042E09D157
:1057C00005E00120E07206E00220E07203E0002024
:1057D000E07200E000BF00BF0C98002804D0012850
:1057E00006D002280ED108E001202072A0720AE043
:1057F000002020720120A07205E00120207200200C
:10580000A07200E000BF00BF05B0F0BD2E2E5C63AB
:105810006F6D706F6E656E74735C4D4B4C31365AA4
:10582000345C647269766572735C66736C5F646D18
:10583000612E6300636F6E66696720213D204E55BF
:105840004C4C00007372634164647220213D204E11
:10585000554C4C00646573744164647220213D2092
:105860004E554C4C000000002873726357696474F5
:1058700068203D3D20315529207C7C2028737263AF
:105880005769647468203D3D20325529207C7C2076
:10589000287372635769647468203D3D203455292C
:1058A0000000000028646573745769647468203DC3
:1058B0003D20315529207C7C20286465737457690C
:1058C000647468203D3D20325529207C7C2028646A
:1058D0006573745769647468203D3D203455290010
:1058E00070B505460C46042C00D204E0672212A1D4
:1058F0001BA003F079FA2101E81DF930081880682F
:105900000121090608432201E91DF9315118886077
:1059100000212201E81DF930815022011018416058
:105920002201E81DF9301018816018492201E81D94
:10593000F9301018C16070BD2E2E5C636F6D706FF2
:105940006E656E74735C4D4B4C31365A345C6472C8
:1059500069766572735C66736C5F646D612E63005B
:105960006368616E6E656C203C2046534C5F464513
:1059700041545552455F444D415F4D4F44554C4550
:105980005F4348414E4E454C00000000800000201F
:1059900070B504460E461546002C00D004E0F922EE
:1059A00003A10DA003F020FAA660E56070BD000021
:1059B0002E2E5C636F6D706F6E656E74735C4D4BF5
:1059C0004C31365A345C647269766572735C667306
:1059D0006C5F646D612E630068616E646C6520218C
:1059E0003D204E554C4C0000F8B506460D46144679
:1059F000042D00D204E0752222A12CA003F0F4F9BA
:105A0000002C00D004E076221EA133A003F0ECF9B4
:105A10002A01F01DF930216881502A0110186168AF
:105A20004160E0680102090A2A01F01DF9301018EE
:105A300081602901F01DF9300818C7683F21490429
:105A4000384688430746E07A400403214904084069
:105A5000A17AC9040122D20411400843617A0905E0
:105A60000322120511400843217A8905012292057B
:105A70001140084307432901F01DF9300818C76099
:105A8000F8BD00002E2E5C636F6D706F6E656E74D6
:105A9000735C4D4B4C31365A345C64726976657276
:105AA000735C66736C5F646D612E63006368616E26
:105AB0006E656C203C2046534C5F46454154555220
:105AC000455F444D415F4D4F44554C455F43484110
:105AD0004E4E454C00000000636F6E6669672021E2
:105AE0003D204E554C4C000010B50446002C00D013
:105AF00005E0232212010BA114A003F075F9206820
:105B0000FF300130217909014018C068012189075F
:105B100008432168FF310131227912018918C860D8
:105B200010BD00002E2E5C636F6D706F6E656E741D
:105B3000735C4D4B4C31365A345C647269766572D5
:105B4000735C66736C5F646D612E680068616E647F
:105B50006C6520213D204E554C4C000010B504468C
:105B6000002C00D005E0232212010BA114A003F0A9
:105B70003BF92068FF300130217909014018C068E5
:105B80000121890708432168FF310131227912017F
:105B90008918C86010BD00002E2E5C636F6D706F99
:105BA0006E656E74735C4D4B4C31365A345C647266
:105BB00069766572735C66736C5F646D612E6800F4
:105BC00068616E646C6520213D204E554C4C000090
:105BD000F7B504460E46002C00D005E0FF22023245
:105BE00022A12CA003F000F9002E00D005E0FF2236
:105BF00003321EA12BA003F0F7F82068FF3001301C
:105C000021790901401880680121490608400028CF
:105C100001D02848FEBD21792068FFF761FE217977
:105C200032462068FFF7E0FE0298C007C00F002848
:105C300019D025792768042D00D205E0FF226C32A7
:105C40001DA127A003F0D0F82901F81DF93008188C
:105C5000C0680121C90708432A01F91DF93151180B
:105C6000C86000BF00BF0020D4E700002E2E5C6398
:105C70006F6D706F6E656E74735C4D4B4C31365A40
:105C8000345C647269766572735C66736C5F646DB4
:105C9000612E630068616E646C6520213D204E5565
:105CA0004C4C0000636F6E66696720213D204E55A5
:105CB0004C4C0000881300002E2E5C636F6D706FDB
:105CC0006E656E74735C4D4B4C31365A345C647245
:105CD00069766572735C66736C5F646D612E6800D3
:105CE0006368616E6E656C203C2046534C5F464590
:105CF00041545552455F444D414D55585F4D4F44B9
:105D0000554C455F4348414E4E454C00FFB585B06C
:105D100000200190059C2070641C0798002826D064
:105D200006980668002E07D1302020700198401C8C
:105D30000190019809B0F0BD16E030460899FAF7D5
:105D400093FD0490089904984843371A002F04DA09
:105D50003D46E8430746313700E03037049E277060
:105D6000641C0198401C0190002EE6D12EE006989C
:105D7000006803900398002806D130202070019815
:105D8000401C01900198D5E71DE008990398FAF7A7
:105D900061FD029008990298484303990D1A0A2D53
:105DA00001D2303508E028460A380E99002901D082
:105DB000412100E061214518029803902570641C80
:105DC0000198401C019003980028DED10198B1E7AA
:105DD0000FB438B50A480078002804D1401E38BCFA
